:02000002B0004C
:1040000000400B00EA610B00000006000C000502F6
:084010000401B51400000000DA
:04401800E05E0B005B
:1040200081F0004102E000BF83F0004330B54FEA69
:1040300041044FEA430594EA050F08BF90EA020FD6
:104040001FBF54EA000C55EA020C7FEA645C7FEA69
:10405000655C00F0E2804FEA5454D4EB5555B8BF8C
:104060006D420CDD2C4480EA020281EA030382EAFD
:10407000000083EA010180EA020281EA0303362D8F
:1040800088BF30BD11F0004F4FEA01314FF4801C62
:104090004CEA113102D0404261EB410113F0004F74
:1040A0004FEA03334CEA133302D0524263EB43032B
:1040B00094EA050F00F0A780A4F10104D5F1200EC9
:1040C0000DDB02FA0EFC22FA05F2801841F1000124
:1040D00003FA0EF2801843FA05F359410EE0A5F1F8
:1040E00020050EF1200E012A03FA0EFC28BF4CF029
:1040F000020C43FA05F3C01851EBE37101F00045DF
:1041000007D54FF0000EDCF1000C7EEB00006EEBEB
:104110000101B1F5801F1BD3B1F5001F0CD3490875
:104120005FEA30004FEA3C0C04F101044FEA4452CC
:1041300012F5800F80F09A80BCF1004F08BF5FEA53
:10414000500C50F1000041EB045141EA050130BD33
:104150005FEA4C0C404141EB0101013C28BFB1F545
:10416000801FE9D291F0000F04BF01460020B1FA90
:1041700081F308BF2033A3F10B03B3F120020CDA63
:104180000C3208DD02F1140CC2F10C0201FA0CF041
:1041900021FA02F10CE002F11402D8BFC2F1200CA6
:1041A00001FA02F120FA0CFCDCBF41EA0C0190405C
:1041B000E41AA2BF01EB0451294330BD6FEA0404A5
:1041C0001F3C1CDA0C340EDC04F11404C4F1200290
:1041D00020FA04F001FA02F340EA030021FA04F3A2
:1041E00045EA030130BDC4F10C04C4F1200220FAF9
:1041F00002F001FA04F340EA0300294630BD21FA37
:1042000004F0294630BD94F0000F83F4801306BFFC
:1042100081F480110134013D4EE77FEA645C18BFF0
:104220007FEA655C29D094EA050F08BF90EA020F87
:1042300005D054EA000C04BF1946104630BD91EA7F
:10424000030F1EBF0021002030BD5FEA545C05D182
:104250004000494128BF41F0004130BD14F58004C1
:104260003CBF01F5801130BD01F0004545F0FE4135
:1042700041F470014FF0000030BD7FEA645C1ABF6A
:10428000194610467FEA655C1CBF0B46024650EAA1
:10429000013406BF52EA033591EA030F41F40021CD
:1042A00030BD00BF90F0000F04BF0021704730B553
:1042B0004FF4806404F132044FF000054FF0000128
:1042C00050E700BF90F0000F04BF0021704730B5E9
:1042D0004FF4806404F1320410F0004548BF4042BE
:1042E0004FF000013EE700BF42004FEAE2014FEA13
:1042F00031014FEA02701FBF12F07F4393F07F4FEE
:1043000081F06051704732F07F4208BF704793F0F0
:104310007F4F04BF41F40021704730B54FF4607403
:1043200001F0004521F000411CE700BF50EA010206
:1043300008BF704730B54FF000050AE050EA0102AF
:1043400008BF704730B511F0004502D5404261EB1F
:1043500041014FF4806404F132045FEA915C3FF460
:10436000D8AE4FF003025FEADC0C18BF03325FEAFD
:10437000DC0C18BF033202EBDC02C2F1200300FAAE
:1043800003FC20FA02F001FA03FE40EA0E0021FAD3
:1043900002F11444BDE600BF70B54FF0FF0C4CF4C1
:1043A000E06C1CEA11541DBF1CEA135594EA0C0F73
:1043B00095EA0C0F00F0DEF82C4481EA030621EAAE
:1043C0004C5123EA4C5350EA013518BF52EA0335E9
:1043D00041F4801143F4801338D0A0FB02CE4FF09B
:1043E0000005E1FB02E506F00042E0FB03E54FF0CB
:1043F0000006E1FB03569CF0000F18BF4EF0010EC3
:10440000A4F1FF04B6F5007F64F5407404D25FEABE
:104410004E0E6D4146EB060642EAC62141EA555171
:104420004FEAC52040EA5E504FEACE2EB4F1FD0CB3
:1044300088BFBCF5E06F1ED8BEF1004F08BF5FEA31
:10444000500E50F1000041EB045170BD06F00046E3
:1044500046EA010140EA020081EA0301B4EB5C0490
:10446000C2BFD4EB0C0541EA045170BD41F4801188
:104470004FF0000E013C00F3AB8014F1360FDEBFAD
:10448000002001F0004170BDC4F10004203C35DA89
:104490000C341BDC04F11404C4F1200500FA05F30C
:1044A00020FA04F001FA05F240EA020001F00042AD
:1044B00021F0004110EBD37021FA04F642EB060123
:1044C0005EEA430E08BF20EAD37070BDC4F10C044D
:1044D000C4F1200500FA04F320FA05F001FA04F211
:1044E00040EA020001F0004110EBD37041F10001FD
:1044F0005EEA430E08BF20EAD37070BDC4F1200508
:1045000000FA05F24EEA020E20FA04F301FA05F26F
:1045100043EA020321FA04F001F0004121FA04F217
:1045200020EA020000EBD3705EEA430E08BF20EAE7
:10453000D37070BD94F0000F0FD101F00046400021
:1045400041EB010111F4801F08BF013CF7D041EAA3
:10455000060195F0000F18BF704703F000465200A7
:1045600043EB030313F4801F08BF013DF7D043EA78
:104570000603704794EA0C0F0CEA135518BF95EA2E
:104580000C0F0CD050EA410618BF52EA4306D1D1B5
:1045900081EA030101F000414FF0000070BD50EAD4
:1045A000410606BF1046194652EA430619D094EA5E
:1045B0000C0F02D150EA013613D195EA0C0F05D148
:1045C00052EA03361CBF104619460AD181EA03019C
:1045D00001F0004141F0FE4141F470014FF0000054
:1045E00070BD41F0FE4141F4780170BD70B54FF0EF
:1045F000FF0C4CF4E06C1CEA11541DBF1CEA13556F
:1046000094EA0C0F95EA0C0F00F0A7F8A4EB050450
:1046100081EA030E52EA03354FEA013100F0888047
:104620004FEA03334FF0805545EA131343EA126310
:104630004FEA022245EA111545EA10654FEA0026C5
:104640000EF000419D4208BF964244F1FD0404F57E
:10465000407402D25B084FEA3202B61A65EB0305DA
:104660005B084FEA32024FF480104FF4002CB6EB97
:10467000020E75EB030E22BFB61A754640EA0C0017
:104680005B084FEA3202B6EB020E75EB030E22BF57
:10469000B61A754640EA5C005B084FEA3202B6EB98
:1046A000020E75EB030E22BFB61A754640EA9C0057
:1046B0005B084FEA3202B6EB020E75EB030E22BF27
:1046C000B61A754640EADC0055EA060E18D04FEAE5
:1046D000051545EA16754FEA06164FEAC30343EA85
:1046E00052734FEAC2025FEA1C1CC0D111F4801F52
:1046F0000BD141EA00014FF000004FF0004CB6E74B
:1047000011F4801F04BF01430020B4F1FD0C88BFE9
:10471000BCF5E06F3FF6AFAEB5EB030C04BFB6EBF4
:10472000020C5FEA500C50F1000041EB045170BDE7
:104730000EF0004E4EEA113114EB5C04C2BFD4EB14
:104740000C0541EA045170BD41F480114FF0000E98
:10475000013C90E645EA060E8DE60CEA135594EA14
:104760000C0F08BF95EA0C0F3FF43BAF94EA0C0F17
:104770000AD150EA01347FF434AF95EA0C0F7FF48C
:1047800025AF104619462CE795EA0C0F06D152EAE0
:1047900003353FF4FDAE1046194622E750EA4106C4
:1047A00018BF52EA43067FF4C5AE50EA41047FF4D5
:1047B0000DAF52EA43057FF4EBAE12E74FF0FF3C3A
:1047C00006E000BF4FF0010C02E000BF4FF0010C0B
:1047D0004DF804CD4FEA410C7FEA6C5C4FEA430C84
:1047E00018BF7FEA6C5C1BD001B050EA410C0CBFD3
:1047F00052EA430C91EA030F02BF90EA020F002035
:10480000704710F1000F91EA030F58BF994208BF9B
:1048100090422CBFD8176FEAE37040F00100704758
:104820004FEA410C7FEA6C5C02D150EA013C07D1AF
:104830004FEA430C7FEA6C5CD6D152EA033CD3D0FA
:104840005DF8040B704700BF8446104662468C46F4
:104850001946634600E000BF01B5FFF7B7FF002827
:1048600048BF10F1000F01BD4DF808EDFFF7F4FF50
:104870000CBF012000205DF808FB00BF4DF808EDDB
:10488000FFF7EAFF34BF012000205DF808FB00BFFE
:104890004DF808EDFFF7E0FF94BF012000205DF820
:1048A00008FB00BF4DF808EDFFF7CEFF94BF0120D5
:1048B00000205DF808FB00BF4DF808EDFFF7C4FFCE
:1048C00034BF012000205DF808FB00BF4FEA410C17
:1048D0007FEA6C5C02D150EA013C0AD14FEA430CFA
:1048E0007FEA6C5C02D152EA033C02D14FF0000037
:1048F00070474FF0010070474FEA410212F5001275
:1049000015D211D56FF47873B3EB625212D94FEA16
:10491000C12343F0004343EA505311F0004F23FA00
:1049200002F018BF404270474FF00000704750EA55
:10493000013005D111F0004008BF6FF00040704712
:104940004FF00000704700BF4A0011D212F500126C
:1049500011D20DD56FF47873B3EB62520ED44FEAD7
:10496000C12343F0004343EA505323FA02F0704757
:104970004FF00000704750EA013002D14FF0FF3095
:1049800070474FF0000070474FEA4102B2F1E04338
:1049900024BFB3F5001CDCF1FE5C0DD901F0004C26
:1049A0004FEAC0024CEA5070B2F1004F40EB830076
:1049B00008BF20F00100704711F0804F21D113F1A2
:1049C0003872BCBF01F00040704741F480114FEADB
:1049D0005252C2F11802C2F1200C10FA0CF320FA64
:1049E00002F018BF40F001004FEAC1234FEAD32381
:1049F00003FA0CFC40EA0C0023FA02F34FEA4303EB
:104A0000CCE77FEA625307D150EA01331EBF4FF073
:104A1000FE4040F44000704701F0004040F0FE408E
:104A200040F40000704700BF034613F8012B002A32
:104A3000FBD1181A0138704709480A49884208B55D
:104A400005D0094A824202D0121A01F09FF90748A4
:104A5000074A0021121A01F0A7F9014808BD00BF5A
:104A600034E503204C610B00A4E50320A4E50320FA
:104A7000F0E7032070B5074E074C01F067F8A41B60
:104A8000A4080025AC4200D170BD56F8043B9847FD
:104A90000135F7E708610B0028610B0000F013B83F
:104AA00008B500F0DFF9BDE8084001F007B800F0F4
:104AB00075BB00F07BBB0078B0FA80F0400970470E
:104AC00001230370704708B500F072FF4FF4E13125
:104AD00000F062FF0021132001F0A8F8BDE80840B3
:104AE00000210E2001F0A2B873B54FF47A740026AD
:104AF000132001F0ACF8013C0644F9D100F058FF56
:104B000016F57A7F4FF47A74054696FBF4F42ADCA6
:104B10002D2100F061FD61420A22284600F075FD5A
:104B2000284600F05CFD002340F2DE321E21009397
:104B30002046642300F052FB0446642000F05AFB38
:104B400000F036FF002C05460FDA2D2100F044FD61
:104B500061420A22284600F058FD284602B0BDE80E
:104B6000704000F03CBD2146D6E72146F1E7F8B59C
:104B70008A00073222F0070200AFADEB020D4B1E98
:104B80006C460022D5B28D4202F1010204DA50F8DF
:104B9000256044F82560F5E70020984212DA2246A5
:104BA0000025A3EB000E75450ADA1668D2F804C09A
:104BB000664505F1010501DDC2E900C60432F2E7F0
:104BC0000130EAE7CA0706D503EBD3735B1054F84C
:104BD0002300BD46F8BD01EBD171491004EB810300
:104BE00054F8210053F8043C184400EBD0704010F6
:104BF000EFE7000000000000F8B52DED028B844DBA
:104C0000844C2B78BFF35B8F13F0010F09D128463A
:104C1000FFF751FF28B100F03DF920602846FFF76B
:104C20004FFF00F037F92368C01A282812D900F086
:104C300031F92060784C0E20256801F008F8774B98
:104C400043F8250023681D2B03F101020ABF00234E
:104C500022602360724D734C2B78BFF35B8F13F08F
:104C6000010F09D12846FFF726FF28B100F012F9FD
:104C700020602846FFF724FF00F00CF92368C01AD3
:104C8000B0F5487F40F2AC8000F004F9664920603E
:104C90000023624C65480B601F22013A05D054F88E
:104CA000043B40F8043B0123F7E70BB11E230B60E4
:104CB0001E215E489FED5E7AFFF759FF07EE900ACE
:104CC000F8EEE77A5B4B67EE877A9FED5B7A87EECB
:104CD000878A83ED008A594B1868FFF7F3FA584B1F
:104CE0000022FFF7A1F940A3D3E90023FFF754FB0B
:104CF000544B0022FFF79AF9FFF746FE07EE900AA1
:104D0000C8EE277A17EE900AFFF7EEFA38A3D3E938
:104D1000002304460D46FFF73FFB22462B46FFF7D4
:104D20003BFB22462B46FFF737FB33A3D3E9002397
:104D300006460F4620462946FFF72EFB22462B4605
:104D4000FFF72AFB02460B4630463946FFF76CF95F
:104D50002BA3D3E9002306460F4620462946FFF73A
:104D60001BFB02460B4630463946FFF75FF9364BD0
:104D7000364D374C0022FFF70FFBFFF705FE28608A
:104D8000FFF7B2FA20A3D3E90023FFF72FFCFFF7C8
:104D9000FBFD206000F00CFE2E4900F019FC00F035
:104DA00007FE95ED000A022100F016FD00F000FE5E
:104DB000294900F020FC00F0FBFD284900F008FC28
:104DC00000F0F6FD94ED000A022100F005FD00F070
:104DD000EFFDBDEC028B2249BDE8F84000F00BBCB2
:104DE000BDEC028BF8BD00BF7B14AE47E17A943F67
:104DF0003D0AD7A370AD6040EC51B81E85FB6F40F3
:104E000085EB51B81ECB8A40A4703D0AD7A3194048
:104E1000A8E50320B0E503202CE60320B4E5032039
:104E2000A4E50320ACE50320ACE6032030E6032034
:104E300033335340A8E6032000F07F4534E50320D8
:104E4000000039400000F03F0000E03FB4E60320DE
:104E5000B0E60320F45E0B00FF5E0B00035F0B0067
:104E60000D5F0B0008B5FFF7C7FEBDE80840FFF770
:104E70003BBE000008B5024B1B685B6C019308BD8C
:104E80004802030008B5024B1B685B68019308BD2C
:104E90001802030008B5024B1B685B69019308BD4B
:104EA0001802030008B5024B1B685B68019308BD3C
:104EB0002C02030008B5024B1B689B68019308BDD8
:104EC0002C02030008B5024B1B681B6B019308BD45
:104ED0002C02030008B5024B1B681B6A019308BD36
:104EE0002802030008B5024B1B685B6A019308BDEA
:104EF0002802030008B5024B1B689B6A019308BD9A
:104F00002802030008B5024B1B68DB6A019308BD49
:104F10002802030008B5024B1B681B6B019308BDF8
:104F20002802030008B5024B1B685B6B019308BDA8
:104F30002802030008B5024B1B681B6C019308BDD7
:104F40002802030008B5024B1B685B69019308BD8A
:104F50006402030008B5024B1B689B68019308BDFF
:104F60006802030008B5024B1B68DB68019308BDAB
:104F70006802030008B5024B1B68DB69019308BD9A
:104F80003002030008B5024B1B681B6A019308BD81
:104F90003002030008B5024B1B68DB68019308BDB3
:104FA0003C02030008B5024B1B681B69019308BD56
:104FB0003C02030008B5024B1B685B69019308BD06
:104FC0003C02030008B5024B1B689B69019308BDB6
:104FD0003C02030008B5024B1B68DB69019308BD66
:104FE0003C02030008B5024B1B681B6A019308BD15
:104FF0003C02030008B5024B1B689B6A019308BD85
:105000003C02030008B5024B1B681B6C019308BDF2
:105010003C02030008B5024B1B681B68019308BDE6
:105020004C02030008B5024B1B685B68019308BD86
:105030004C02030008B5024B1B681B69019308BDB5
:105040004C02030008B5024B1B685B69019308BD65
:105050004C02030008B5024B1B689B69019308BD15
:105060004C02030008B5024B1B68DB69019308BDC5
:105070004C02030008B5024B1B681B6A019308BD74
:105080004C02030008B5024B1B685B68019308BD26
:105090002002030008B5024B1B685B69019308BD41
:1050A0002002030008B5034B1B68D3F88830019336
:1050B00008BD00002002030008B5034B1B68D3F8AD
:1050C0009430019308BD00002002030008B5024B94
:1050D0001B68DB6B019308BD4402030008B5024B5B
:1050E0001B685B68019308BD4002030008B5024BD2
:1050F0001B689B68019308BD4002030008B5024B82
:105100001B68DB68019308BD4002030008B5024B31
:105110001B681B69019308BD4002030008B5024BE0
:105120001B685B69019308BD4002030008B5024B90
:105130001B689B69019308BD4002030008B5024B40
:105140001B68DB69019308BD4002030008B5024BF0
:105150001B681B6A019308BD4002030008B5024B9F
:105160001B681B6B019308BD4002030008B5024B8E
:105170001B685B6B019308BD4002030008B5024B3E
:105180001B681B6C019308BD4002030008B5024B6D
:105190001B685B6C019308BD4002030008B5024B1D
:1051A0001B681B68019308BD1C02030008B5024B75
:1051B0001B685B68019308BD1C02030008B5024B25
:1051C0001B681B6C019308BD1C02030008B5024B51
:1051D0001B685B6C019308BD1C0203008A4210B57A
:1051E00007D0441A0298C01A4443501A94FBF0F0B6
:1051F000184410BD0021FFF74DBF000002480023F6
:105200000360FFF737BE00BFB8E603200022406806
:105210001146FFF79BBF002240681146FFF7A6BF6B
:1052200040680022FFF79ABF4068002281F0010128
:10523000FFF784BF002340681A461946FFF776BF80
:10524000002340681A461946FFF768BF00224068ED
:105250001146FFF75BBF002240681146FFF746BFCB
:10526000406800220221FFF749BF002340681A4628
:10527000FFF734BF024B03225A60024A1A6070479C
:10528000BCE603201C5F0B007047F8B506461546C8
:105290000C468F18BC4206D0336814F8011B9B687B
:1052A00030469847F6E72846F8BD007C0022FFF715
:1052B00011BE007C0021FFF715BE007C0021FFF726
:1052C00019BE007C0021FFF71DBE007C0021FFF706
:1052D00021BE10B514210446FFF7EBFB204610BD9C
:1052E00038B5044615464FF47A730022C4E9012309
:1052F000094B2174084623602946FFF71BFEBF3087
:1053000008D16B69DB0705D56868FFF74FFFE868D0
:10531000FFF74CFF204638BD585F0B00704710B5B3
:1053200018210446FFF7C5FB204610BDF0B5037DEC
:10533000062B8DB00E4600F104074FF0000412D08A
:1053400000F1080515F8011D0A22304600F05DF94C
:10535000AF42044419D0002CF4D02E21304600F086
:105360003BF90444EEE72F236A4639460A208DF8BC
:105370000040FFF7E7FD6846FFF756FB336802463B
:10538000DB68694630469847044620460DB0F0BDBC
:1053900010B5054B0446112240F8043B002100F0F3
:1053A00003FD204610BD00BF805F0B000346074A87
:1053B00010B543F8042B01F1100251F8044B43F8E7
:1053C000044B9142F9D10A781A7010BD805F0B002E
:1053D00010B59DF8084044EA032343EA024242EA3A
:1053E000016104234160037510BD000007B5064B41
:1053F0000360CB7800938B784A780978FFF7E8FF51
:1054000003B05DF804FB00BF805F0B00014B024A54
:105410001A607047C4E603208C5F0B0000234068CD
:105420001A46FFF75BBE406800220221FFF766BE06
:10543000002240681146FFF759BE0022406811461D
:10544000FFF764BE002340681A461946FFF766BEA0
:10545000002340681A461946FFF768BE40680021DD
:10546000FFF78CBE40680021FFF790BE4068002225
:1054700081F00101FFF762BE40680022FFF76EBEB7
:10548000002240681146FFF771BE002240681146B5
:10549000FFF75CBE2DE9F04395B014460D46074674
:1054A000FFF776FF00211C220DA8009100F07CFC84
:1054B00040230C9320466B460CAA0021FFF752FDB7
:1054C000044600284BD1024601216868FFF71EFE02
:1054D0000221804622466868FFF718FE009E81463A
:1054E0002146002E3BD0002939D17368022B03D00E
:1054F0000A2B11D0F669F4E7B8F1000FFAD0716900
:1055000006A8043107ADFFF771FF0FCD3C1D0FC496
:105510002B6823704146EDE7B9F1000FEAD07469BA
:10552000102201A800F040FC06238DF8143001ADD4
:1055300004F108031834186859682A4603C208336E
:10554000A3421546F7D101A906A807ADFFF72EFF24
:105550000FCD3C1D0FC42B6823704946CAE7009845
:10556000FFF7F8FC384615B0BDE8F083024B034A5C
:105570001A6000225A607047C8E60320985F0B004B
:10558000F8B506460D468F180024BD420CD033688E
:1055900015F8011B9B6830469847031E01DB1C442D
:1055A000F3E7002C08BF1C462046F8BD13B504469F
:1055B000084659B10191FFF737FA23680199DB6872
:1055C0000246204602B0BDE81040184702B010BDA8
:1055D00008B5FFF7EBFF08BD03689B68184738B5AF
:1055E0000D210546FFF7F8FF0A2104462846FFF77C
:1055F000F3FF204438BD38B50546FFF7D7FF044612
:105600002846FFF7ECFF204438BD30B58BB00023AF
:10561000012A8DF8243098BF0A2209AC0D46B1FB4F
:10562000F2F101FB125303F0FF03092B94BF303357
:105630003733DBB2AA4204F8013DEFD92146FFF728
:10564000B5FF0BB030BD00002DE9F74F55EC104B06
:1056500006460F4610EE102A10EE100A2B46294679
:10566000FFF734F940B153493046FFF79FFF8246B8
:10567000504603B0BDE8F08F25F000494E4B4FF087
:10568000FF3220464946FFF721F948B94A4B4FF00F
:10569000FF3220464946FFF7FBF808B94749E3E7E0
:1056A000474B4FF0604220462946FFF705F908B105
:1056B0004449D9E7444B4FF0604220462946FFF762
:1056C000DDF80028F4D10022002320462946FFF708
:1056D000D5F8D0B12D213046FFF77EFF05F100430C
:1056E00082461D463949DFF8EC904FF0000B002050
:1056F0004FF000085FFA8BF39F4208D942464B46B1
:10570000FEF774FF0BF1010BF4E78246EAE722464D
:105710002B46FEF78BFC0D460446FFF715F9804635
:10572000FEF7C0FD02460B4620462946FEF77CFCEC
:105730000A2204460D4630464146FFF766FF824482
:10574000002F95D02249DFF88C903046FFF72EFFCE
:105750004FF000088244002F8AD042464B46204634
:105760002946FEF719FE04460D46FFF7C5F8B0F1CD
:10577000000B1CDA2D213046FFF72EFFCBF1000184
:1057800003460A2230460193FFF73FFF019B18446E
:1057900082445846FEF796FD02460B4620462946AF
:1057A000FEF742FC013F04460D46FFB2D3E75946DF
:1057B0000023E6E7CC5F0B00FFFFEF7FD05F0B001D
:1057C000FFFFEF41D45F0B00FFFFEFC10000E03FA0
:1057D000D85F0B000000244038B5044610EE100AD4
:1057E000CDB2FEF781FD41EC100B29462046BDE805
:1057F0003840FFF729BF0000014B00229A60704734
:10580000D0E6032010B5044608462170FFF7B2FB2E
:1058100000236360204610BD054B02221A60054B31
:10582000054A9A600020C3E90000FFF72BBC00BFC7
:10583000ECE60320E0E603200000FFFF024B1A68BD
:10584000024B1A60704700BF38E50320F0E60320E2
:1058500070474174704708B5007CFFF7CBFB20EA26
:10586000E07008BD08B5007CFFF79CFB20EAE07003
:1058700008BD08B5007CFFF7A5FB40EAE07008BD55
:1058800008B5007CFFF796FB40EAE07008BD007C9D
:10589000FFF7A0BB37B5457C04462DB1207C03B093
:1058A000BDE83040FFF776BB007C0191FFF7A2FB1B
:1058B00000280199F2DC284603B030BD10B5142150
:1058C0000446FFF7F6F8204610BD000010B54FF46F
:1058D0007A730446084611460022C4E90123044BAA
:1058E0002360012320746374FFF78CFB204610BDF6
:1058F00000600B00417470477047704708B5002185
:10590000007CFFF7A7FB40EAE07008BD08B5012165
:10591000007CFFF79FFB40EAE07008BD08B5007C03
:10592000FFF790FB20EAE07008BD08B5007CFFF7A8
:1059300081FB20EAE07008BD13B50446007C0191AC
:10594000FFF780FB0028019901DC607C20B1207CFE
:10595000FFF788FB20EAE07002B010BD007CFFF783
:1059600089BB10B514210446FFF7A3F8204610BDEB
:1059700010B54FF47A73044608460021C4E90113B8
:10598000044B23600123207463741146FFF742FB2C
:10599000204610BD30600B00007C0022FFF742BBA8
:1059A00010B514220446002100F0FEF9204610BD77
:1059B00010B50F4C88B003A8FFF7F2FF2178BFF3B2
:1059C0005B8F11F001010FD120460191FFF773F8B1
:1059D000019948B103AA0748FFF7CAFF2046FFF71D
:1059E0006FF8054800F0CCF9024808B010BD00BFC0
:1059F000F4E60320F8E60320F9580B000022406883
:105A00001146FFF783BB002240681146FFF79EBB9B
:105A1000002240681146FFF7A9BB40680022FFF74B
:105A20009DBB4068002281F00101FFF787BB002386
:105A300040681A461946FFF779BB002340681A46AA
:105A40001946FFF76BBB002240681146FFF74EBBBB
:105A5000406800220221FFF751BB002340681A462C
:105A6000FFF73CBB024B04225A60024A1A6070479F
:105A70000CE7032060600B00014B1860704700BF0B
:105A80003CE5032008B50B4B43B1FFF791FF0368DA
:105A90001B699847002801DDAFF30080064B43B136
:105AA00000F048F903681B699847002801DDAFF34F
:105AB000008008BD000000000000000008B5FFF7EE
:105AC000E1FFFFF7E7F9014B186008BD28E7032065
:105AD0000548064A064908B5121A00F057F9054B61
:105AE000054A1A6008BD00BF00F4032004F4032037
:105AF000BC610B0000F403201E1C279A07B500238D
:105B000000931A466FF07701FFF7D6FA03B05DF8FD
:105B100004FB000007B543880A2B08D0502B0BD19B
:105B2000094B1B684BB103B05DF804EB1847FFF756
:105B3000E5FF03B05DF804FB002300931A466FF005
:105B40007701FFF7B9FAF4E718E7032010B5124818
:105B50000021FFF73BFB114B1A68114B9A42114B86
:105B60000CBF012200221A7001D0FFF7B1FFFFF72E
:105B700089F9044600F020F90B4B13B12046AFF32E
:105B8000008000210848FFF7A1FABDE8104007484F
:105B90000021FFF787BA00BF795A0B0000F40320F9
:105BA0001E1C279A14E7032000000000155B0B0061
:105BB000232813B502D9002002B010BDA0F10B03B9
:105BC000022B1AD8174C2178BFF35B8F11F001011B
:105BD0000BD120460191FEF76EFF019928B11248C2
:105BE000FFF710FE2046FEF76BFF0F4B1878FFF70C
:105BF000C9F90028DFD10120DEE7012809D800F02B
:105C000059F80021007CFFF78DF980F00100C0B247
:105C1000D2E709380128EED800F08CF8007CFFF7B5
:105C2000E1F9F2E71CE7032020E70320232838B539
:105C300004460D460AD8FF2908D0FFF7B9FF28B15E
:105C400029462046BDE83840FFF734B938BD0D2855
:105C500010B504469CBF0E34A4B22046FFF7A8FF3F
:105C600050B103212046FFF71DF9032804D1204637
:105C7000BDE81040FFF726B9002010BD70470000B6
:105C800038B50A4B036001230446436108492020CC
:105C900000F074F8202560600549A560284600F0F2
:105CA0006DF8C4E90305204638BD00BF18000100A7
:105CB00094600B0030B50E4D2978BFF35B8F11F067
:105CC000010487B011D12846FEF7F5FE68B1684699
:105CD000FFF7D6FF6A4621460648FFF701FB284634
:105CE000FEF7EEFE044800F04BF8024807B030BD66
:105CF0002CE7032030E703207D5C0B007047000099
:105D000038B5044614252A46002100F04DF82580B8
:105D10004025074925812846258200F02FF80449AF
:105D20006060284600F02AF8E060204638BD00BFD9
:105D300094600B0030B50E4D2978BFF35B8F11F0E6
:105D4000010487B011D12846FEF7B5FE68B101A85D
:105D5000FFF7D6FF01AA21460648FFF7B7FD284600
:105D6000FEF7AEFE044800F00BF8024807B030BD65
:105D700044E7032048E70320FD5C0B00FEF797BED5
:105D8000002301461A46184600F044B80A449142DE
:105D900000F1FF3300D1704710B511F8014B03F843
:105DA000014F9142F9D110BD02440346934200D104
:105DB000704703F8011BF9E738B5104B1D68AB6B52
:105DC0000446B3B91820FFF7E9F90246A86320B9E1
:105DD0000B4B0C484221FFF7F1F90B490B4BC0E983
:105DE00000130B4B83600B23838100210120C2E948
:105DF0000401AB6B00221C615A6138BD3CE50320F5
:105E000095600B00AC600B000E33CDAB34126DE629
:105E1000ECDE05002DE9F843DFF8B8800646D8F837
:105E200000001F460D46914600F056F8254B1C68B1
:105E300034B9254C1C60254B13B11B68C4F888305D
:105E400063681F2B07DDD8F8000000F047F84FF01B
:105E5000FF30BDE8F8834EB3D4F8880088B91C4BF6
:105E600023B9D8F8000000F038F8F0E74FF4847058
:105E7000FFF794F90028F4D00023C0E94033C4F8B8
:105E80008800636840F8239001229A4000EB830168
:105E9000D0F800311343C0F80031022EC1F88070F1
:105EA00002BFD0F804311343C0F804316368D8F856
:105EB00000005A1C0233626044F8235000F00EF8D0
:105EC0000020C6E7E8E703205CE7032000000000AD
:105ED0009D510B00A0E503207047704770470000FC
:105EE000394A0B00754A0B009D4A0B00A14A0B0072
:105EF000000000005444532056616C75653A0070F0
:105F0000706D0045432056616C75653A006D532FE6
:105F10006D00000000000000000000006B520B004C
:105F200061520B0057520B004D520B0041520B00B7
:105F300035520B005D540B0065540B0029520B00C9
:105F400021520B0017520B000D520B0095540B0001
:105F5000000000000000000089520B00D3520B002B
:105F6000AB520B008B520B00B3520B00BB520B0019
:105F7000C3520B00CB520B000000000000000000D9
:105F80002D530B001D530B001F530B00617070004D
:105F900000000000000000001D540B0027540B00FF
:105FA00031540B003B540B0045540B0051540B0073
:105FB0005D540B0065540B006D540B0079540B00BD
:105FC00081540B008B540B0095540B006E616E00D6
:105FD000696E66006F7666002E0025592D256D2DA1
:105FE00025645425483A254D3A2553257A00617396
:105FF0006374696D6500000000000000000000008F
:1060000051580B00BD580B0095580B0081550B00E3
:1060100065580B0081580B0073580B008F580B000C
:1060200053580B0057580B00000000000000000000
:10603000FB580B0063590B0039590B0081550B00BD
:106040002B590B00FD580B000D590B005D590B002F
:106050001D590B00F5580B00000000000000000067
:106060005B5A0B00515A0B00475A0B00FD590B00AD
:106070003B5A0B002F5A0B005D540B0065540B006C
:10608000235A0B001B5A0B00115A0B00075A0B0026
:1060900095540B00005245454E54206D616C6C6F59
:1060A0006320737563636565646564002F746D7048
:1060B0002F6A656E6B696E732D4743432D31302D0A
:1060C000706970656C696E652D34385F32303230BE
:1060D000313132345F313630363138303633392F62
:1060E0007372632F6E65776C69622F6E65776C696A
:1060F000622F6C6962632F7374646C69622F7261C2
:106100006E642E6300000000FD510B0075520B0001
:106110000D540B006D550B00F9570B0019580B006F
:086120003D580B00655A0B000D
:10612800040000001400000003000000474E550062
:106138000F119E4CBDD5D110799BDEB346F2A8CA8B
:046148008961389B96
:10614C0019000000EE5F0B0040E50320000000008A
:10615C000000000000000000000000000000000033
:10616C000000000000000000000000000000000023
:10617C000000000000000000000000000000000013
:10618C000000000000000000000000000000000003
:10619C0000000000000000000000000000000000F3
:1061AC00000000000000000000000000ECE70320ED
:0461BC0000000000DF
:1061C60000000102030405060708090A0B0C0D0E60
:1061D6000F101112131415161718191A1B1C1D1E51
:0461E6001F2028004E
:0461EA00785634129D
:04000003B0004020E9
:00000001FF
