:02000004085F93
:10A0000000A05F08FCFF5F080000060020000501BB
:08A010000401B514000000007A
:10A018000E480F4908B5884205D00E4A824202D040
:10A028000D4B121A98470D480D4A00210D4B121A74
:10A0380098470D480D49884205D00D4A824202D002
:10A04800054B121A9847014808BD00BF98AC071085
:10A0580024F75F080CAD07102D0D11100CAD07107B
:10A06800E8AF0710A10E111060A93F0288A05F0891
:0CA07800FCFF3F0219A05F080000000080
:08A088007CA05F0894E33F0295
:10A0900081F0004102E000BF83F0004330B54FEA99
:10A0A00041044FEA430594EA050F08BF90EA020F06
:10A0B0001FBF54EA000C55EA020C7FEA645C7FEA99
:10A0C000655C00F0E2804FEA5454D4EB5555B8BFBC
:10A0D0006D420CDD2C4480EA020281EA030382EA2D
:10A0E000000083EA010180EA020281EA0303362DBF
:10A0F00088BF30BD11F0004F4FEA01314FF4801C92
:10A100004CEA113102D0404261EB410113F0004FA3
:10A110004FEA03334CEA133302D0524263EB43035A
:10A1200094EA050F00F0A780A4F10104D5F1200EF8
:10A130000DDB02FA0EFC22FA05F2801841F1000153
:10A1400003FA0EF2801843FA05F359410EE0A5F127
:10A1500020050EF1200E012A03FA0EFC28BF4CF058
:10A16000020C43FA05F3C01851EBE37101F000450E
:10A1700007D54FF0000EDCF1000C7EEB00006EEB1B
:10A180000101B1F5801F1BD3B1F5001F0CD34908A5
:10A190005FEA30004FEA3C0C04F101044FEA4452FC
:10A1A00012F5800F80F09A80BCF1004F08BF5FEA83
:10A1B000500C50F1000041EB045141EA050130BD63
:10A1C0005FEA4C0C404141EB0101013C28BFB1F575
:10A1D000801FE9D291F0000F04BF01460020B1FAC0
:10A1E00081F308BF2033A3F10B03B3F120020CDA93
:10A1F0000C3208DD02F1140CC2F10C0201FA0CF071
:10A2000021FA02F10CE002F11402D8BFC2F1200CD5
:10A2100001FA02F120FA0CFCDCBF41EA0C0190408B
:10A22000E41AA2BF01EB0451294330BD6FEA0404D4
:10A230001F3C1CDA0C340EDC04F11404C4F12002BF
:10A2400020FA04F001FA02F340EA030021FA04F3D1
:10A2500045EA030130BDC4F10C04C4F1200220FA28
:10A2600002F001FA04F340EA0300294630BD21FA66
:10A2700004F0294630BD94F0000F83F4801306BF2C
:10A2800081F480110134013D4EE77FEA645C18BF20
:10A290007FEA655C29D094EA050F08BF90EA020FB7
:10A2A00005D054EA000C04BF1946104630BD91EAAF
:10A2B000030F1EBF0021002030BD5FEA545C05D1B2
:10A2C0004000494128BF41F0004130BD14F58004F1
:10A2D0003CBF01F5801130BD01F0004545F0FE4165
:10A2E00041F470014FF0000030BD7FEA645C1ABF9A
:10A2F000194610467FEA655C1CBF0B46024650EAD1
:10A30000013406BF52EA033591EA030F41F40021FC
:10A3100030BD00BF90F0000F04BF0021704730B582
:10A320004FF4806404F132044FF000054FF0000157
:10A3300050E700BF90F0000F04BF0021704730B518
:10A340004FF4806404F1320410F0004548BF4042ED
:10A350004FF000013EE700BF42004FEAE2014FEA42
:10A3600031014FEA02701FBF12F07F4393F07F4F1D
:10A3700081F06051704732F07F4208BF704793F020
:10A380007F4F04BF41F40021704730B54FF4607433
:10A3900001F0004521F000411CE700BF50EA010236
:10A3A00008BF704730B54FF000050AE050EA0102DF
:10A3B00008BF704730B511F0004502D5404261EB4F
:10A3C00041014FF4806404F132045FEA915C3FF490
:10A3D000D8AE4FF003025FEADC0C18BF03325FEA2D
:10A3E000DC0C18BF033202EBDC02C2F1200300FADE
:10A3F00003FC20FA02F001FA03FE40EA0E0021FA03
:10A4000002F11444BDE600BF70B54FF0FF0C4CF4F0
:10A41000E06C1CEA11541DBF1CEA135594EA0C0FA2
:10A4200095EA0C0F00F0DEF82C4481EA030621EADD
:10A430004C5123EA4C5350EA013518BF52EA033518
:10A4400041F4801143F4801338D0A0FB02CE4FF0CA
:10A450000005E1FB02E506F00042E0FB03E54FF0FA
:10A460000006E1FB03569CF0000F18BF4EF0010EF2
:10A47000A4F1FF04B6F5007F64F5407404D25FEAEE
:10A480004E0E6D4146EB060642EAC62141EA5551A1
:10A490004FEAC52040EA5E504FEACE2EB4F1FD0CE3
:10A4A00088BFBCF5E06F1ED8BEF1004F08BF5FEA61
:10A4B000500E50F1000041EB045170BD06F0004613
:10A4C00046EA010140EA020081EA0301B4EB5C04C0
:10A4D000C2BFD4EB0C0541EA045170BD41F48011B8
:10A4E0004FF0000E013C00F3AB8014F1360FDEBFDD
:10A4F000002001F0004170BDC4F10004203C35DAB9
:10A500000C341BDC04F11404C4F1200500FA05F33B
:10A5100020FA04F001FA05F240EA020001F00042DC
:10A5200021F0004110EBD37021FA04F642EB060152
:10A530005EEA430E08BF20EAD37070BDC4F10C047C
:10A54000C4F1200500FA04F320FA05F001FA04F240
:10A5500040EA020001F0004110EBD37041F100012C
:10A560005EEA430E08BF20EAD37070BDC4F1200537
:10A5700000FA05F24EEA020E20FA04F301FA05F29F
:10A5800043EA020321FA04F001F0004121FA04F247
:10A5900020EA020000EBD3705EEA430E08BF20EA17
:10A5A000D37070BD94F0000F0FD101F00046400051
:10A5B00041EB010111F4801F08BF013CF7D041EAD3
:10A5C000060195F0000F18BF704703F000465200D7
:10A5D00043EB030313F4801F08BF013DF7D043EAA8
:10A5E0000603704794EA0C0F0CEA135518BF95EA5E
:10A5F0000C0F0CD050EA410618BF52EA4306D1D1E5
:10A6000081EA030101F000414FF0000070BD50EA03
:10A61000410606BF1046194652EA430619D094EA8D
:10A620000C0F02D150EA013613D195EA0C0F05D177
:10A6300052EA03361CBF104619460AD181EA0301CB
:10A6400001F0004141F0FE4141F470014FF0000083
:10A6500070BD41F0FE4141F4780170BD70B54FF01E
:10A66000FF0C4CF4E06C1CEA11541DBF1CEA13559E
:10A6700094EA0C0F95EA0C0F00F0A7F8A4EB050480
:10A6800081EA030E52EA03354FEA013100F0888077
:10A690004FEA03334FF0805545EA131343EA126340
:10A6A0004FEA022245EA111545EA10654FEA0026F5
:10A6B0000EF000419D4208BF964244F1FD0404F5AE
:10A6C000407402D25B084FEA3202B61A65EB03050A
:10A6D0005B084FEA32024FF480104FF4002CB6EBC7
:10A6E000020E75EB030E22BFB61A754640EA0C0047
:10A6F0005B084FEA3202B6EB020E75EB030E22BF87
:10A70000B61A754640EA5C005B084FEA3202B6EBC7
:10A71000020E75EB030E22BFB61A754640EA9C0086
:10A720005B084FEA3202B6EB020E75EB030E22BF56
:10A73000B61A754640EADC0055EA060E18D04FEA14
:10A74000051545EA16754FEA06164FEAC30343EAB4
:10A7500052734FEAC2025FEA1C1CC0D111F4801F81
:10A760000BD141EA00014FF000004FF0004CB6E77A
:10A7700011F4801F04BF01430020B4F1FD0C88BF19
:10A78000BCF5E06F3FF6AFAEB5EB030C04BFB6EB24
:10A79000020C5FEA500C50F1000041EB045170BD17
:10A7A0000EF0004E4EEA113114EB5C04C2BFD4EB44
:10A7B0000C0541EA045170BD41F480114FF0000EC8
:10A7C000013C90E645EA060E8DE60CEA135594EA44
:10A7D0000C0F08BF95EA0C0F3FF43BAF94EA0C0F47
:10A7E0000AD150EA01347FF434AF95EA0C0F7FF4BC
:10A7F00025AF104619462CE795EA0C0F06D152EA10
:10A8000003353FF4FDAE1046194622E750EA4106F3
:10A8100018BF52EA43067FF4C5AE50EA41047FF404
:10A820000DAF52EA43057FF4EBAE12E74FF0FF3C69
:10A8300006E000BF4FF0010C02E000BF4FF0010C3A
:10A840004DF804CD4FEA410C7FEA6C5C4FEA430CB3
:10A8500018BF7FEA6C5C1BD001B050EA410C0CBF02
:10A8600052EA430C91EA030F02BF90EA020F002064
:10A87000704710F1000F91EA030F58BF994208BFCB
:10A8800090422CBFD8176FEAE37040F00100704788
:10A890004FEA410C7FEA6C5C02D150EA013C07D1DF
:10A8A0004FEA430C7FEA6C5CD6D152EA033CD3D02A
:10A8B0005DF8040B704700BF8446104662468C4624
:10A8C0001946634600E000BF01B5FFF7B7FF002857
:10A8D00048BF10F1000F01BD4DF808EDFFF7F4FF80
:10A8E0000CBF012000205DF808FB00BF4DF808ED0B
:10A8F000FFF7EAFF34BF012000205DF808FB00BF2E
:10A900004DF808EDFFF7E0FF94BF012000205DF84F
:10A9100008FB00BF4DF808EDFFF7CEFF94BF012004
:10A9200000205DF808FB00BF4DF808EDFFF7C4FFFD
:10A9300034BF012000205DF808FB00BF4FEA410C46
:10A940007FEA6C5C02D150EA013C0AD14FEA430C29
:10A950007FEA6C5C02D152EA033C02D14FF0000066
:10A9600070474FF0010070474FEA410212F50012A4
:10A9700015D211D56FF47873B3EB625212D94FEA46
:10A98000C12343F0004343EA505311F0004F23FA30
:10A9900002F018BF404270474FF00000704750EA85
:10A9A000013005D111F0004008BF6FF00040704742
:10A9B0004FF00000704700BF4A0011D212F500129C
:10A9C00011D20DD56FF47873B3EB62520ED44FEA07
:10A9D000C12343F0004343EA505323FA02F0704787
:10A9E0004FF00000704750EA013002D14FF0FF30C5
:10A9F00070474FF0000070474FEA4102B2F1E04368
:10AA000024BFB3F5001CDCF1FE5C0DD901F0004C55
:10AA10004FEAC0024CEA5070B2F1004F40EB8300A5
:10AA200008BF20F00100704711F0804F21D113F1D1
:10AA30003872BCBF01F00040704741F480114FEA0A
:10AA40005252C2F11802C2F1200C10FA0CF320FA93
:10AA500002F018BF40F001004FEAC1234FEAD323B0
:10AA600003FA0CFC40EA0C0023FA02F34FEA43031A
:10AA7000CCE77FEA625307D150EA01331EBF4FF0A3
:10AA8000FE4040F44000704701F0004040F0FE40BE
:10AA900040F40000704700BF034613F8012B002A62
:10AAA000FBD1181A0138704770B502F0A7FD0025D8
:10AAB000054E064CA41BA408AC4200D170BD56F84C
:10AAC000043B98470135F7E7D8FF3F02FCFF3F0200
:10AAD00000F09CB808B500F07FFBBDE8084002F02C
:10AAE00045BD01F0CBBF01F0D7BF00000C2008B579
:10AAF000024A034901F0C6FEFEE700BFFDCC3F025B
:10AB0000A4E33F020078B0FA80F0400970470123C7
:10AB10000370704773B5002278251F232F4CCDE9B1
:10AB2000005311462046A02301F0E9F84FF4FC63DE
:10AB3000CDE90053A02320461946002201F0DFF89A
:10AB40004FF47843264E7922CDE9005320464FF446
:10AB5000A073002101F0D3F83146204600F0D9FE61
:10AB60002046012100F0CFFE00231E4A1E4D204644
:10AB70001E49C4E90423E37602F0B2F929462046CF
:10AB800000F0C7FE20461A4902F0AAF931462046D5
:10AB900000F0BFFE174B20461749236102F0A0F9D1
:10ABA0002946204600F0B5FE2046144902F098F9E7
:10ABB0003146204600F0ADFE114B2046114923617D
:10ABC00002F08EF92946204600F0A3FE20460E49E9
:10ABD00002B0BDE8704002F083B900BF30AE07108C
:10ABE0003CE43F020A001E0030E43F02B9E33F02AA
:10ABF000BFE33F02AA001E00C6E33F02CDE33F02CF
:10AC00000A009600D5E33F02E2E33F0208B502F0F6
:10AC10001DFC4FF4E13102F00DFCF0224FF4A07165
:10AC20000B4801F0E9FA0021094800F0C9FB0121B5
:10AC3000074801F09DFAFFF76DFF0021012002F0A7
:10AC40004DFDBDE808400021084602F047BD00BFA9
:10AC500030AE071070B52DED028B4FF47A746C4D49
:10AC600082B0012002F064FD2B68013C184428608A
:10AC7000F7D14FF47A7390FBF3F0286002F0E6FB13
:10AC80002C680646002C48DA2D2102F02DF961428D
:10AC90000A22304602F041F9304602F028F900233A
:10ACA000009340F25962642340F24C41286801F05D
:10ACB0001DFF07EE900AB8EEE78A642001F022FF3C
:10ACC000B5EEC08AF1EE10FA524C28D4F3EE047AB5
:10ACD000B4EEE78AF1EE10FA24D502F0B7FB4E4944
:10ACE00002F0FEF802F0B2FB0221B0EE480A02F0D8
:10ACF00015FA4FF478463B237321CDE900369722AD
:10AD0000B423444800F0FBFF4FF0FF33DFF81CC1D1
:10AD10004249C4E904C33F482AE02146B8E79FED11
:10AD2000408ADAE7DFED3F7A4EDDB4EEE78AF1EEF6
:10AD300010FA49D502F08AFB3B4902F0D1F802F043
:10AD400085FB0221B0EE480A02F0E8F93B234FF4FC
:10AD500078407321CDE900309722B423204600F0DB
:10AD6000CEFF4FF0FF332046304D3149C4E9045344
:10AD700002F0B6F82F49274800F0CBFD0221254804
:10AD800000F0C1FD0023E3764FF0F8232A4E2B4D4F
:10AD9000C4E9046395ED000A02211E4802F0BEF9E1
:10ADA0004FF0FF330221B0EE480A26616361194873
:10ADB00002F0B4F9322085ED008A02B0BDEC028BBE
:10ADC000BDE8704001F09EBEB4EEE78AF1EE10FAE5
:10ADD000D0DD02F03BFB1A4902F082F802F036FBAC
:10ADE0000221B0EE480A02F099F93B234FF4784271
:10ADF0007321CDE900320748B423972200F07FFF8A
:10AE00004FF0FF330949C4E904130E4983E700BF3B
:10AE100028AE071030AE0710E8E33F02F0E33F0230
:10AE20000000000000004842F6E33F029600CD001B
:10AE3000FEE33F023CE43F020F00CD0024AE0710CA
:10AE400004E43F020CE43F02F8B58A00073222F026
:10AE5000070200AFADEB020D6C4600224B1ED5B2CF
:10AE60008D4202F1010204DA50F8256044F82560B1
:10AE7000F5E70020984211DA22460025A3EB000EE8
:10AE8000754509DA1668D2F804C00135664501DD5A
:10AE9000C2E900C60432F3E70130EBE7CA0706D582
:10AEA00003EBD3735B1054F82300BD46F8BD01EBF0
:10AEB000D171491004EB810354F8210053F8043C8C
:10AEC000184400EBD0704010EFE7000000000000D5
:10AED0002DE9F0412DED028BA34DD5E88F3F13F006
:10AEE000010FA24C09D12846FFF70CFE28B101F052
:10AEF000A7FA20602846FFF70AFE01F0A1FA2368AE
:10AF0000C01A282812D901F09BFA2060984C002022
:10AF1000256802F00DFC974B43F8250023681D2B94
:10AF200003F101020ABF002322602360924DD5E89D
:10AF30008F3F13F0010F914C09D12846FFF7E2FD36
:10AF400028B101F07DFA20602846FFF7E0FD01F00E
:10AF500077FA2368C01AB0F5487F40F2EA8001F022
:10AF60006FFA00231F2286492060824C85480B60BF
:10AF7000013A05D054F8043B40F8043B0123F7E7BD
:10AF80000BB11E230B601E217E48FFF75DFF07EE0D
:10AF9000900A9FED7D7AF8EEE77A67EE877A9FED6B
:10AFA0007B7A87EE878A7A4BDFF8248283ED008AEA
:10AFB000784B1868FFF7BEF90022774BFFF76CF863
:10AFC0005FA3D3E90023FFF71FFA0022734BFFF7BB
:10AFD00065F8FFF711FD07EE900AC8EE277A17EE25
:10AFE000900AFFF7B9F958A3D3E9002304460D46A8
:10AFF000FFF70AFA22462B46FFF706FA22462B46AF
:10B00000FFF702FA52A3D3E9002306460F46204673
:10B010002946FFF7F9F922462B46FFF7F5F90246D4
:10B020000B4630463946FFF737F84BA3D3E90023E8
:10B0300006460F4620462946FFF7E6F902460B462C
:10B0400030463946FFF72AF80022554BFFF7DCF966
:10B05000FFF7D2FC534D544E2860FFF77DF940A313
:10B06000D3E90023FFF7FAFAFFF7C6FC306002F0DD
:10B07000EDF94E4901F034FF02F0E8F995ED000AD0
:10B08000022102F031F802F0E1F9494901F03BFFF9
:10B0900002F0DCF94749484C01F022FF02F0D6F9F2
:10B0A00096ED000A022102F01FF802F0CFF94349A1
:10B0B00001F029FF2046424900F02BFC20460221E6
:10B0C00000F021FC0023E3764FF01F133D4F98ED75
:10B0D000000AC4E904730221204602F01FF8276128
:10B0E0004FF0FF3796ED000A02212046676102F01B
:10B0F00015F83368344EC8F80030344BDFF8D4808C
:10B1000096ED000AC4E904830221204602F006F805
:10B1100095ED000A2046C4E90487022101F0FEFFF4
:10B120002B6832203360BDEC028BBDE8F04101F0AA
:10B13000E9BCBDEC028BBDE8F08100BFAFF300803D
:10B140007B14AE47E17A943F3D0AD7A370AD6040CF
:10B15000EC51B81E85FB6F4085EB51B81ECB8A4081
:10B16000A4703D0AD7A3194010AD071018AD071001
:10B1700094AD07101CAD07100CAD071014AD0710EF
:10B1800014AE071098AD07103333534000F07F45DD
:10B1900010AE07109CAC0710000039400000F03FD3
:10B1A0000000E03F2CAE071018AE071012E43F027B
:10B1B0001DE43F0221E43F0230AE07102BE43F02C2
:10B1C0003CE43F020F00500020AE0710E007E0070C
:10B1D0001CAE0710AF00500008B5FFF779FEBDE8C0
:10B1E0000840FFF737BD0000062305221221014861
:10B1F00000F0F8BF30AE07102DE9F04F1F4685B0C4
:10B20000BDF93880A7EB010AA8EB0209B9F1000FDC
:10B21000B8BFC9F10009BAF1000FB8BFCAF1000AFE
:10B22000D14583460C461546BDF83C3004DD3A4610
:10B230002C4647460D469046BC4205DD2A4645460B
:10B24000904622463C4617463E1BB2B20092A8EBFF
:10B25000050282EAE271A1EBE271C6F3C03202FAA2
:10B2600086F64545B4BF01224FF0FF3201917610BA
:10B270000292BC421CDCDBF80020D145D2F81880D9
:10B28000C7BF294622462A46214603935846C0474F
:10B29000019A039BB61AB1B236B2002E05DA029AB1
:10B2A0001544009A2DB2561836B2013424B2E0E7A4
:10B2B00005B0BDE8F08F704710B404682469A44657
:10B2C0005DF8044B604730B4BDF80850046802953F
:10B2D000A46BA44630BC604730B4BDF80850046885
:10B2E0000295E46BA44630BC604770B4BDF90C50C5
:10B2F000BDF810600468CDE90356246CA44670BC08
:10B3000060472DE9F3411C46164605460F46036883
:10B31000013CBDF820805B693444984724B22B6817
:10B32000CDF80480009428469C6A32463B46394654
:10B33000A04728462B68DB6A02B0BDE8F0411847F9
:10B340002DE9F341174604461D460E460368BDF835
:10B3500020805B699847CDE9007822686B1E3344F2
:10B360002046956A31463A461BB2A84720462368D4
:10B37000DB6A02B0BDE8F04118472DE9F3471E46ED
:10B3800003680C465B6905461746BDF92890BDF871
:10B390002C8098472644B4422B680BDACDF8008005
:10B3A0002146D3F820A03A464B4628460134D047E0
:10B3B00024B2F0E72846DB6A02B0BDE8F047184740
:10B3C00013B50191B0F90E1002680091146C0022BF
:10B3D000B0F90C301146A04702B010BD2DE9F7437B
:10B3E0009942164680460D461C46BDF92870BDF8A8
:10B3F0002C90026812D1BE42C2BF33463E461F4661
:10B40000CDF828907B1C946B9B1B32462946404606
:10B41000A4461BB203B0BDE8F0436047BE420AD168
:10B420009942C2BF0B4625461C46CDF82890631CA6
:10B430005B1BD46BE9E753699847CDE90079D8F8ED
:10B44000003040469F6A324623462946B847404668
:10B45000D8F80030DB6A03B0BDE8F04318472DE9A7
:10B46000F34704460F4616461D460368BDF82C8078
:10B470005B69BDF9289098472368CDF80080324673
:10B4800039462046D3F824A02B46D047236809F13B
:10B49000FF32CDF80080324439462046D3F824A04C
:10B4A00012B22B46D0472368CDF800803246394689
:10B4B0002046D3F820A04B46D0476B1ED9192368ED
:10B4C000CDF8008020461D6A32464B4609B2A84797
:10B4D00020462368DB6A02B0BDE8F0471847704792
:10B4E00001F00303B0F90A208376B0F90830C907E8
:10B4F00059BF8381C2818281C381704730B5018188
:10B50000002481814FF0FF31054D4281C281054AFF
:10B510004460C0E90512056004610477046230BD2F
:10B5200048FC3F02010100012DE9F04F2DED028B97
:10B5300091B016461F46026ABDF870308346BDF8CA
:10B5400074809DF878509DF87C4003910493002A04
:10B5500040F0C580B0F90C308B4240F34C81B0F91B
:10B560000E30B34240F34781062313FB0513002B33
:10B5700040F3418106EBC403002B40F33C81037F81
:10B580001BB9AF2F84BF0137FFB2DBF8003058463C
:10B590005B6998470522099200220592984A07EBB9
:10B5A0008703D3180C93B3B20693059A0C9B02FB46
:10B5B00005F99B5C0793ABB20B93BDF80C30089375
:10B5C000039B19FA83F90FFA89F308EE103A08235E
:10B5D0004FF000090A93039B02EB030A0FFA8AFA61
:10B5E000079ADBF80030D20752D5012D1FFA89F2F5
:10B5F0003ED1012C3CD19B6906991F46049B0A440D
:10B600005146584612B2B84709F101034FFA83F97F
:10B61000079B5B0807930A9B013B13F0FF030A9308
:10B62000DED1059F01377BB20593099B013B13F0E7
:10B63000FF030993B9D1049B43450FD0012DDBF8DB
:10B6400000303BD1012C39D10899CDF8008005316B
:10B650001C6A32460823584609B2A0475846DBF810
:10B660000030DB6A11B0BDEC028BBDE8F04F18472B
:10B6700014FB02F206990A44049901910094DB69D3
:10B6800018EE101A1F4658462B4612B2B847BBE7B1
:10B69000049A4245B8D0012D1FFA89F207D1012C36
:10B6A00005D19B6906991F460A444346A8E714FB47
:10B6B00002F20699CDF804800A44DFE70B9AE40011
:10B6C00002EB8201089ACDF804800A4411460094E6
:10B6D000DC6932462B46584609B2A047BEE7137ACA
:10B6E0005168FF1A1268FFB20B9231F8372001EB54
:10B6F000C70306929A78012D0992DA7893F906A089
:10B700000C9293F905200A9201D8012C57D9BDF962
:10B71000283008930FFA8AF307934FF00008C146C8
:10B720004746DBF8003058465B699847B3B20E9342
:10B730001AFA86F30F930C9B9F428FD2079B0E9AA7
:10B740003B4403FB042300221BB208EE103A43469D
:10B7500005920F9A02EB070A0FFA8AFA099A0599DD
:10B76000914241D25A1CD2B25B070D9207D1069B7F
:10B7700006990B9A01339BB212F80190069319F0C7
:10B78000800F12D0012DDBF80030BDF80C101AD15B
:10B79000012C18D10A9A9B691144059A1E4611443E
:10B7A00058465246049B09B2B047059E4FEA4909E4
:10B7B0000136F3B205935FFA89F90D9BCEE70023BA
:10B7C000CDE90733A9E70598089A024402FB051161
:10B7D000049A5846CDE90042DB6918EE102A1E464D
:10B7E00009B22B46B047E0E7099B013798445FFA5E
:10B7F00088F8FFB29FE711B0BDEC028BBDE8F08F77
:10B8000040F73F02F0B5026A04460B4685B0002AB5
:10B8100034D10A2908D1438A0282427E03EBC20353
:10B820006382012005B0F0BD0D29FAD0E17E007ED3
:10B83000657E71B10621B4F9106011FB0061B4F9A5
:10B840000C60B142C1BFB4F91210228201EBC502F3
:10B850006282E28ACDE902050192A28A2046009224
:10B86000B4F91010B4F91220FFF75EFE237E228A8D
:10B8700003EB430302EB43032382D2E70A2907D1F8
:10B8800000230382417E927A438A01FB0233C7E799
:10B890000D29C6D0157AA942C3D3517A9942C0D393
:10B8A00051685D1BEDB201EBC505A87828B3E978B6
:10B8B00019B3E17E267E677E91B195F905100844A3
:10B8C000B4F9101006FB0011B4F90C00814207DD39
:10B8D00000202082B4F91210927A02FB07126282D1
:10B8E000E28A20460192A28ACDE902670092B4F969
:10B8F0001010B4F91220FFF717FE2979227E238A4F
:10B9000001FB0233B8E7012938BF012101764176F6
:10B910007047036A29B113B9438A0633438201622F
:10B920007047002BFBD0438A063BF7E7002180B22B
:10B9300001F0E5BE012180B201F0E1BE002180B23C
:10B9400001F0DDBE012180B201F0D9BE002180B23C
:10B9500001F0D5BE012180B201F0D1BE38B5044658
:10B9600012B209B21D46FFF7C9FD00220B4B20465B
:10B9700023609DF9183084F83C2084F83D309DF90F
:10B980001030226484F83E309DF91430A4F844202D
:10B9900084F83F30A264656238BD00BFA0FC3F025E
:10B9A0002DE9F04104460D4616461F46DFF84C804F
:10B9B00086B0D8E88F0F10F001010BD140460591F9
:10B9C000FFF7A0F8059928B10B4801F0C3FB4046EA
:10B9D000FFF79DF89DF93430324602939DF93030DF
:10B9E0002946CDE900732046034BFFF7B7FF2046F9
:10B9F00006B0BDE8F08100BF84AE071080AE07102E
:10BA0000F8B50446484F90F93E00002918BF0F468C
:10BA10000028164609DB012180B201F05FFE94F98F
:10BA20003E00012180B201F06AFE94F93F0001213D
:10BA300080B201F053FE94F93F00012180B201F081
:10BA40005EFE94F83C5085BB0123606A84F82C505C
:10BA5000276384F8343084F83560A66301F084FBF2
:10BA600094F93D0000285EDB012180B201F036FE32
:10BA700094F93D00012180B201F041FE642001F003
:10BA800041F894F93D00002180B201F038FE6420B5
:10BA900001F038F894F93D00012180B201F02FFE49
:10BAA000BDE8F840C82001F02DB8012D20D194F94F
:10BAB0002400294680B201F011FE94F924000021EF
:10BAC00080B201F01CFE94F92600294680B201F0F4
:10BAD00005FE94F92600002180B201F010FE94F9D1
:10BAE00025000028BCDB002180B201F0F7FDB7E79C
:10BAF00094F92500012180B201F0F0FD94F92500B0
:10BB0000012180B201F0FBFD94F926000028A7DB9B
:10BB1000012180B201F0E2FD94F92600012180B2FA
:10BB200001F0EDFD9CE7F8BD0024F40090F83C30F6
:10BB300023B900F12801406A01F044BB704710B5F9
:10BB40000446FFF7F3FF94F93E00002805DBBDE84B
:10BB50001040002180B201F0D2BD10BD90F83C3001
:10BB600013B9406A01F014BB704710B5044690F950
:10BB70003E00002803DB012180B201F0C0FD204619
:10BB8000FFF7ECFF10BD10B5044690F92500002129
:10BB900080B201F0B4FD94F925000121BDE8104008
:10BBA00080B201F0ACBD2DE9F04105460E461446C9
:10BBB0007AB190F83C304FEA1128CFB25BB94146D8
:10BBC000686A01F06DFB3946686A01F069FB013C67
:10BBD000F5D1BDE8F081012B1ED1B046102718F435
:10BBE000004F95F9240014D0FFF7ACFE95F926001C
:10BBF000013FFFF79FFE4FEA480895F92600BFB2C4
:10BC0000FFF794FE1FFA88F8002FE8D1013CE4D139
:10BC1000DFE7FFF793FEE9E7B845DAD02846FFF7FC
:10BC2000B2FF013CFAD1D4E72DE9F3411D460446A9
:10BC3000BDF82030BDF824600093036892B2D3F8B9
:10BC4000548089B2ABB2BDF92070C047314620465E
:10BC500005FB07F202B0BDE8F041FFF7A4BF2DE9F4
:10BC6000F341BDF92040002B46D0002C44D0002BDE
:10BC700005DA013111FA83F15B4209B21BB2B0F966
:10BC80000C608E4238DD002C05DA013212FA84F2A3
:10BC9000644212B224B2B0F90E5095422CDD01EB91
:10BCA00003081FFA88F808F1FF3C0FFA8CFCBCF17E
:10BCB000000F21DB02EB040E1FFA8EFE0EF1FF37A0
:10BCC0003FB2002F18DB0029BCBF00210FFA88F318
:10BCD000002ABCBF00220FFA8EF46645DCBF731A3F
:10BCE0001BB2BD42D8BFAC1ABDF82450D8BF24B295
:10BCF000CDE90045FFF798FF02B0BDE8F0812DE9DE
:10BD0000F74380460C4615461E46BDF92870BDF81F
:10BD10002C90002B52D0002F50D0002B05DA01348C
:10BD200014FA83F45E4224B236B2B8F90C30A3425E
:10BD300044DD002F05DA013515FA87F57F422DB273
:10BD40003FB2B8F90E20AA4238DD04EB060E1FFA06
:10BD50008EFE0EF1FF3000B200282FDB05EB070C42
:10BD60001FFA8CFC0CF1FF3109B2002926DB002CF4
:10BD7000BCBF00240FFA8EF6002DBCBF00250FFAC1
:10BD80008CF78342DCBF1B1B1EB28A42D8F80030FE
:10BD9000DCBF521B17B240465B69984733464046AA
:10BDA0002A462146CDE90079FFF73EFF4046D8F804
:10BDB0000030DB6A03B0BDE8F043184703B0BDE8CC
:10BDC000F0832DE9F341171E06460C461D46BDF8CB
:10BDD000208033DBB0F90E30BB422FDD002D2DD09B
:10BDE00005DA013414FA85F46D4224B22DB2B6F9A5
:10BDF0000C30A34222DD611989B24A1E12B2002A18
:10BE00001CDB002CBCBF00240DB29342DCBF1B1B0B
:10BE10001DB2336830465B69984701233046009372
:10BE20003A462B462146CDF80480FFF7FDFE30460A
:10BE30003368DB6A02B0BDE8F041184702B0BDE8E4
:10BE4000F0812DE9F3410F1E064614461D46BDF84C
:10BE5000208031DBB0F90C30BB422DDD002D2BD022
:10BE600005DA013414FA85F46D4224B22DB2B6F924
:10BE70000E30A34220DD611989B24A1E12B2002A97
:10BE80001ADB002CBCBF00240DB29342DCBF1B1B8D
:10BE90001DB2336830465B6998473046012322461D
:10BEA0003946CDE90058FFF7BFFE30463368DB6AFC
:10BEB00002B0BDE8F041184702B0BDE8F081002AA9
:10BEC00073B526DBB0F90E40944222DD002B20D062
:10BED00005DA013111FA83F15B4209B21BB2B0F904
:10BEE0000C408C4215DDCE18B6B2751E2DB2002D59
:10BEF0000FDB0029BCBF002133B2AC42D8BF631AAC
:10BF0000BDF81840D8BF1BB2019401240094FFF77C
:10BF10008BFE02B070BD73B5002926DBB0F90C4072
:10BF20008C4222DD002B20D005DA013212FA83F296
:10BF30005B4212B21BB2B0F90E40944215DDD61826
:10BF4000B6B2751E2DB2002D0FDB002ABCBF002239
:10BF500033B2AC42D8BFA31ABDF81840D8BF1BB249
:10BF6000CDE900340123FFF75FFE02B070BD70B56C
:10BF700090F83C3004460D4623B9BDE87040406A55
:10BF800001F08EB9012B18D108262B0694F9240054
:10BF900010D5FFF7D7FC94F92600FFF7CBFC013E44
:10BFA00094F92600FFF7C2FC6D0016F0FF06EDB213
:10BFB000EBD170BDFFF7C2FCEDE7FFF7E4FDF8E75A
:10BFC00013B5044690F93F000191FFF7BFFC2046EE
:10BFD0000199FFF7CCFF94F93F0002B0BDE8104093
:10BFE000FFF7B8BC70B50D46036804465B69984717
:10BFF00055B194F844102046FFF7E2FF236820462D
:10C00000BDE87040DB6A184794F84510F3E770B557
:10C0100090F83C3005460C464BB9090A406A01F0DD
:10C020003FF9686AE1B2BDE8704001F039B9012B0F
:10C0300018D11026230495F9240010D5FFF782FCAF
:10C0400095F92600FFF776FC013E95F92600FFF7EB
:10C050006DFC640016F0FF06A4B2EBD170BDFFF7D3
:10C060006DFCEDE7FFF78FFDF8E7F7B50029044613
:10C070001E4617DBB0F90C308B4213DD002A11DBB2
:10C08000B0F90E3093420DDD0123056800936F6D0A
:10C0900092B289B2B8473146204603B0BDE8F040BD
:10C0A000FFF7B5BF03B0F0BD2DE9F3410D1E044607
:10C0B00016461F4620DBB0F90C30AB421CDD002ACF
:10C0C0001ADBB0F90E30934216DD03685B699847BE
:10C0D0000123226800932046D2F85480A9B2B2B25C
:10C0E000C04720463946FFF792FF20462368DB6AA7
:10C0F00002B0BDE8F041184702B0BDE8F08170B56C
:10C1000090F83C3004460D469BB9090E406A01F098
:10C11000C7F8C5F30741606A01F0C2F8C5F307210B
:10C12000606A01F0BDF8606AE9B2BDE8704001F0F4
:10C13000B7B8012B18D12026002D94F9240010DA6D
:10C14000FFF700FC94F92600FFF7F4FB013E94F999
:10C150002600FFF7EBFB16F0FF064FEA4505EBD193
:10C1600070BDFFF7EBFBEDE7FFF70DFDF8E770475C
:10C1700001F00301022970B50446817624D0032919
:10C1800025D0012914BFC025A02590F84C3090F887
:10C190004D2019BFA0F84030A0F84220A0F8402060
:10C1A000A0F84230236820465B6998472046362134
:10C1B000FFF706FF20462946FFF7D9FE23682046F1
:10C1C000BDE87040DB6A184700250564EAE70023F4
:10C1D00060250364E6E710B504465021FEF783FCB2
:10C1E000204610BD10B5044600F09AF8014B2046D9
:10C1F000236010BD24FD3F0270B5044600250021D8
:10C2000000F0E5F8074B2046E3600749A4F84C50DE
:10C2100000F09AF8236829462046BDE870401B6B61
:10C22000184700BF4001F000F8FC3F02704770B5AE
:10C2300001F003010229044690F84C2090F84D309B
:10C24000817620D0032924D0012917BFC025A0253D
:10C25000A0F84020A0F8423004BFA0F84220A0F887
:10C260004030236820465B69984720463621FFF717
:10C27000A7FE20462946FFF77AFE23682046BDE840
:10C280007040DB6A18470025A0F84020A0F8423033
:10C29000E7E76025A0F84220A0F84030E1E7000081
:10C2A000064B0022002918BF0B4642F2210183648D
:10C2B000A0F844101946FFF7A3BB00BF0024F40008
:10C2C000F8B50446B0F84070B0F84250BDF81860B8
:10C2D000394413FA81F72A4416FA82F5013F47EAF6
:10C2E0000147013D2A2145EA0245FFF769FE39462B
:10C2F0002046FFF704FF20462B21FFF761FE294669
:10C300002046FFF7FCFE2046BDE8F8402C21FFF751
:10C3100057BE10B504465021FEF7E5FB204610BD80
:10C3200013B50446CDE900230B46A0228021FFF778
:10C3300037FB044B204623600023A4F84C3002B0A6
:10C3400010BD00BF84FD3F022DE9F0470C46036895
:10C3500005465B69984714F8017B97B32646284643
:10C3600016F8021BFFF72CFE94F80190B24609F074
:10C370007F084446013CE4B2FF2C05D028461AF859
:10C38000011BFFF7F4FDF5E795F93E00012180B2AE
:10C3900001F0B5F995F93E00002180B201F0AFF946
:10C3A00019F0800F06EB080408D016F808000134D5
:10C3B000FF2808BF4FF4FA7000F0A4FB013FFFB262
:10C3C000CBE72B682846BDE8F047DB6A184738B54D
:10C3D0000D46036800211B6D044698472DB1294680
:10C3E0002046BDE83840FFF7AFBF38BD09B5044867
:10C3F0000068044B03441B685B6C029309BD00009A
:10C4000098AC07103000000009B504480068044BE0
:10C4100003441B685B68029309BD000098AC0710D9
:10C420000000000009B504480068044B03441B6881
:10C43000DB68029309BD000098AC07100000000003
:10C4400009B504480068044B03441B685B69029308
:10C4500009BD000098AC07100000000009B50448B1
:10C460000068044B03441B685B68029309BD00002D
:10C4700098AC07101400000009B504480068044B8C
:10C4800003441B689B68029309BD000098AC071029
:10C490001400000009B504480068044B03441B68FD
:10C4A000DB68029309BD000098AC0710140000007F
:10C4B00009B504480068044B03441B681B690293D8
:10C4C00009BD000098AC07101400000009B504482D
:10C4D0000068044B03441B681B6B029309BD0000FA
:10C4E00098AC07101400000009B504480068044B1C
:10C4F00003441B681B6A029309BD000098AC071037
:10C500001000000009B504480068044B03441B6890
:10C510005B6A029309BD000098AC07101000000090
:10C5200009B504480068044B03441B689B6A0293E6
:10C5300009BD000098AC07101000000009B50448C0
:10C540000068044B03441B68DB6A029309BD0000CA
:10C5500098AC07101000000009B504480068044BAF
:10C5600003441B681B6B029309BD000098AC0710C5
:10C570001000000009B504480068044B03441B6820
:10C580005B6B029309BD000098AC0710100000001F
:10C5900009B504480068044B03441B681B6C0293F4
:10C5A00009BD000098AC07101000000009B5044850
:10C5B0000068044B03441B685B69029309BD0000DB
:10C5C00098AC07104C00000009B504480068044B03
:10C5D00003441B689B68029309BD000098AC0710D8
:10C5E0005000000009B504480068044B03441B6870
:10C5F000DB68029309BD000098AC071050000000F2
:10C6000009B504480068044B03441B681B68029387
:10C6100009BD000098AC07101800000009B50448D7
:10C620000068044B03441B685B69029309BD00006A
:10C6300098AC07101800000009B504480068044BC6
:10C6400003441B68DB69029309BD000098AC071026
:10C650001800000009B504480068044B03441B6837
:10C660001B6A029309BD000098AC07101800000077
:10C6700009B504480068044B03441B685B6A0293D5
:10C6800009BD000098AC07101800000009B5044867
:10C690000068044B03441B68DB6B029309BD000078
:10C6A00098AC07101800000009B504480068044B56
:10C6B00003441B681B6C029309BD000098AC071073
:10C6C0001800000009B504480068044B03441B68C7
:10C6D0005B6C029309BD000098AC071018000000C5
:10C6E00009B504480068044B03441B68DB680293E7
:10C6F00009BD000098AC07102400000009B50448EB
:10C700000068044B03441B681B69029309BD0000C9
:10C7100098AC07102400000009B504480068044BD9
:10C7200003441B685B69029309BD000098AC0710C5
:10C730002400000009B504480068044B03441B684A
:10C740009B69029309BD000098AC0710240000000B
:10C7500009B504480068044B03441B68DB69029375
:10C7600009BD000098AC07102400000009B504487A
:10C770000068044B03441B681B6A029309BD000058
:10C7800098AC07102400000009B504480068044B69
:10C7900003441B689B6A029309BD000098AC071014
:10C7A0002400000009B504480068044B03441B68DA
:10C7B0001B6C029309BD000098AC07102400000018
:10C7C00009B504480068044B03441B681B680293C6
:10C7D00009BD000098AC07103400000009B50448FA
:10C7E0000068044B03441B685B68029309BD0000AA
:10C7F00098AC07103400000009B504480068044BE9
:10C8000003441B681B69029309BD000098AC071024
:10C810003400000009B504480068044B03441B6859
:10C820005B69029309BD000098AC0710340000005A
:10C8300009B504480068044B03441B689B690293D4
:10C8400009BD000098AC07103400000009B5044889
:10C850000068044B03441B68DB69029309BD0000B8
:10C8600098AC07103400000009B504480068044B78
:10C8700003441B681B6A029309BD000098AC0710B3
:10C880003400000009B504480068044B03441B68E9
:10C890005B6B029309BD000098AC071048000000D4
:10C8A00009B504480068044B03441B685B680293A5
:10C8B00009BD000098AC07100800000009B5044845
:10C8C0000068044B03441B685B69029309BD0000C8
:10C8D00098AC07100800000009B504480068044B34
:10C8E00003441B68D3F88830029309BD98AC071045
:10C8F0000800000009B504480068044B03441B68A5
:10C90000D3F89430029309BD98AC071008000000DA
:10C9100009B504480068044B03441B68DB6B0293B1
:10C9200009BD000098AC07102C00000009B50448B0
:10C930000068044B03441B685B68029309BD000058
:10C9400098AC07102800000009B504480068044BA3
:10C9500003441B689B68029309BD000098AC071054
:10C960002800000009B504480068044B03441B6814
:10C97000DB68029309BD000098AC07102800000096
:10C9800009B504480068044B03441B681B69029303
:10C9900009BD000098AC07102800000009B5044844
:10C9A0000068044B03441B685B69029309BD0000E7
:10C9B00098AC07102800000009B504480068044B33
:10C9C00003441B689B69029309BD000098AC0710E3
:10C9D0002800000009B504480068044B03441B68A4
:10C9E000DB69029309BD000098AC07102800000025
:10C9F00009B504480068044B03441B681B6A029392
:10CA000009BD000098AC07102800000009B50448D3
:10CA10000068044B03441B681B6B029309BD0000B4
:10CA200098AC07102800000009B504480068044BC2
:10CA300003441B685B6B029309BD000098AC0710B0
:10CA40002800000009B504480068044B03441B6833
:10CA50001B6C029309BD000098AC07102800000071
:10CA600009B504480068044B03441B685B6C0293DF
:10CA700009BD000098AC07102800000009B5044863
:10CA80000068044B03441B681B68029309BD000047
:10CA900098AC07100400000009B504480068044B76
:10CAA00003441B685B68029309BD000098AC071043
:10CAB0000400000009B504480068044B03441B68E7
:10CAC0001B6C029309BD000098AC07100400000025
:10CAD00009B504480068044B03441B685B6C02936F
:10CAE00009BD000098AC0710040000008A4210B590
:10CAF00007D0441A0298C01A4443501A94FBF0F02D
:10CB0000184410BD0021FFF7D9BE000000230248E1
:10CB10000360FFF76BBC00BF8CAE071000224068BB
:10CB20001146FFF765BF002240681146FFF77CBF42
:10CB300000224068FFF76ABF0022406881F00101CF
:10CB4000FFF748BF002340681A461946FFF734BF75
:10CB5000002340681A461946FFF720BF00224068AC
:10CB60001146FFF70DBF002240681146FFF7ECBEEB
:10CB7000002202214068FFF7F5BE002340681A46F4
:10CB8000FFF7D4BE0322024B5A60024A1A60704774
:10CB900090AE0710E4FD3F027047F8B50646154613
:10CBA0000C468F18BC4206D0336830469B6814F898
:10CBB000011B9847F6E72846F8BD0022007CFFF7E6
:10CBC00093BC0021007CFFF79DBC0021007CFFF797
:10CBD000A7BC0021007CFFF7B1BC0021007CFFF75F
:10CBE000BBBC10B504461421FDF77DFF204610BDE7
:10CBF00038B5044615464FF47A730022C4E9012380
:10CC0000094B0846217423602946FFF7C1FCBF3059
:10CC100008D16B69DB0705D56868FFF73DFFE86859
:10CC2000FFF73AFF204638BD20FE3F02704710B59F
:10CC300004461821FDF757FF204610BDF0B5037DCF
:10CC40000E46062B4FF000048DB000F1040712D001
:10CC500000F1080515F8011D0A22304600F05DF9C3
:10CC6000AF42044419D0002CF4D02E21304600F0FD
:10CC70003BF90444EEE72F236A4639460A208DF833
:10CC80000040FFF793FC6846FDF706FF3368024655
:10CC900069463046DB689847044620460DB0F0BD33
:10CCA00010B50446044B1122002140F8043B00F06B
:10CCB00066FE204610BD00BF48FE3F020346074AFD
:10CCC00010B543F8042B01F1100251F8044B9142C6
:10CCD00043F8044BF9D10A781A7010BD48FE3F02A0
:10CCE00010B59DF8084044EA032343EA02420423B6
:10CCF00042EA01614160037510BD000007B5064BB3
:10CD00000360CB7800938B784A780978FFF7E8FFC7
:10CD100003B05DF804FB00BF48FE3F02014B024A2E
:10CD20001A60704798AE071054FE3F020023406817
:10CD30001A46FFF7FBBD002202214068FFF712BE32
:10CD4000002240681146FFF7FFBD002240681146EF
:10CD5000FFF716BE002340681A461946FFF71EBEAD
:10CD6000002340681A461946FFF726BE0021406896
:10CD7000FFF768BE00214068FFF772BE00224068DE
:10CD800081F00101FFF726BE00224068FFF73EBE9A
:10CD9000002240681146FFF747BE00224068114656
:10CDA000FFF726BE2DE9F04395B014460D46074621
:10CDB000FFF776FF00211C220DA8009100F0DFFD97
:10CDC000402320460C9300216B460CAAFFF70AFC77
:10CDD000044600284BD1024601216868FFF7D0FDC8
:10CDE0000221804622466868FFF7CAFD2146814637
:10CDF000009E002E3BD0002939D17368022B03D04E
:10CE00000A2B11D0F669F4E7B8F1000FFAD0716976
:10CE100006A804313C1D07ADFFF770FF0FCD0FC40E
:10CE20002B6841462370EDE7B9F1000FEAD01022DC
:10CE300001A8746900F0A3FD062301AD8DF814303C
:10CE400004F1080318342A4618685968083303C2E5
:10CE5000A3421546F7D101A906A83C1D07ADFFF76F
:10CE60002DFF0FCD0FC42B6849462370CAE70098E9
:10CE7000FFF7AAFB384615B0BDE8F083024B034A22
:10CE80001A6000225A6070479CAE071060FE3F0295
:10CE9000F8B506460D4600248F18BD420CD0336805
:10CEA00030469B6815F8011B9847031E01DB1C44A4
:10CEB000F3E7002C08BF1C462046F8BD13B5044616
:10CEC000084659B10191FDF7E7FD02462046236867
:10CED0000199DB6802B0BDE81040184702B010BDF0
:10CEE00008B5FFF7EBFF08BD03689B68184738B526
:10CEF0000D210546FFF7F8FF0A2104462846FFF7F3
:10CF0000F3FF204438BD38B50546FFF7D7FF044688
:10CF10002846FFF7ECFF204438BD0023012A98BFC4
:10CF20000A2230B58BB08DF8243009AC0D46B1FB28
:10CF3000F2F101FB125303F0FF03092B94BF3033CE
:10CF40003733DBB2AA4204F8013DEFD92146FFF79F
:10CF5000B5FF0BB030BD00002DE9F74F55EC104B7D
:10CF600006460F4610EE102A2B4610EE100A2946F0
:10CF7000FDF7E4FC40B153493046FFF79FFF82467E
:10CF8000504603B0BDE8F08F25F000494FF0FF3266
:10CF9000204649464C4BFDF7D1FC48B94FF0FF32D3
:10CFA00020464946484BFDF7ABFC08B94749E3E743
:10CFB0004FF0604220462946454BFDF7B5FC08B1CD
:10CFC0004449D9E74FF0604220462946424BFDF7DD
:10CFD0008DFC0028F4D10022002320462946FDF7CD
:10CFE00085FCD0B12D213046FFF77EFF05F10043CF
:10CFF00082461D464FF0000B00204FF000083749D5
:10D00000DFF8E0905FFA8BF39F4208D942464B4627
:10D01000FDF724FB0BF1010BF4E78246EAE7224619
:10D020002B46FDF73BF80D460446FDF7C5FC804650
:10D03000FDF770F902460B4620462946FDF72CF80D
:10D040000A2204460D4630464146FFF766FF8244F9
:10D05000002F95D030462249FFF730FF4FF00008EF
:10D06000DFF880908244002F8AD042464B4620460B
:10D070002946FDF7C9F904460D46FDF775FCB0F1E8
:10D08000000B1CDA2D213046FFF72EFF0346CBF1B3
:10D0900000010A2230460193FFF73FFF019B013F49
:10D0A000184482445846FDF745F902460B4620468F
:10D0B0002946FCF7F1FFFFB204460D46D3E7594677
:10D0C0000023E6E794FE3F02FFFFEF7F98FE3F025A
:10D0D000FFFFEF419CFE3F02FFFFEFC10000E03F7A
:10D0E000A0FE3F020000244038B5044610EE100AAE
:10D0F000CDB2FDF731F941EC100B29462046BDE8D1
:10D100003840FFF729BF38B5C9B20546FFF724FFFD
:10D1100004462846FFF7EBFE204438BD38B50446E8
:10D1200010EE100A0D46FDF717F941EC100B2946D9
:10D130002046BDE83840FFF7E6BF00000022014B63
:10D140009A607047A4AE07100021FFF7BBBA002118
:10D15000FFF7AABA10B5044608462170FFF76CFA2B
:10D1600000232046636010BD13B504460078FFF726
:10D17000EEFF58B920784FF6FF710190FFF740FAA3
:10D18000019802B0BDE81040FFF7DEBF02B010BD4D
:10D190000078FFF7D9BF000030B5002440081860C0
:10D1A0001868E5B2884206D90134082C02D040083C
:10D1B0001860F5E70725024B5B5D137030BD00BFBB
:10D1C000A2FE3F022DE9F04306468FB000780C46E0
:10D1D000FFF7BDFF00281BDB1422002109A83578CA
:10D1E00000F0CDFB0B230022284609A9ADF824301E
:10D1F000FFF73EFA9DF82D3013B19DF82C5055B134
:10D2000000270125B946B84623795DB1C3B1002096
:10D210000FB0BDE8F083DDF830809DF834909DF8C4
:10D220003570F1E7002B35D1A368434508D18DF85F
:10D2300020908DF82170BDF82020A3899A42E6D075
:10D240000023A1688DF80F300A9804AB0DF10F028E
:10D25000FFF7A2FF217985B989B9A36843450ED3A9
:10D260008DF820908DF82170BDF82020A3899A4276
:10D2700005D1049B434502D1C9E70029F9D1002318
:10D280000193637B9DF80F200093237B3078FFF799
:10D29000FDF9BCE72B462A460121CDE90055F5E70B
:10D2A00008B50078FFF7BAF9C0B208BD0222002025
:10D2B000044B1A60044B054AC3E900009A60FFF76B
:10D2C000EFBA00BFC0AE0710B4AE07100000FFFFFA
:10D2D000024B1A68024B1A60704700BFA0AC0710DF
:10D2E000C4AE071070474174704708B5007CFFF763
:10D2F0004BFA20EAE07008BD08B5007CFFF7FEF9A4
:10D3000020EAE07008BD08B5007CFFF713FA40EA98
:10D31000E07008BD08B5007CFFF7FEF940EAE07058
:10D3200008BD007CFFF714BA37B5457C04462DB123
:10D33000207C03B0BDE83040FFF7D2B9007C0191FA
:10D34000FFF722FA00280199F2DC284603B030BD2D
:10D3500010B504461421FDF7C6FB204610BD0000A1
:10D3600010B54FF47A730446084611460022C4E90A
:10D370000123044B2074236001236374FFF712FA26
:10D38000204610BDD0FE3F02007CFFF7EFB941748C
:10D3900070477047704708B50021007CFFF748FAD6
:10D3A00040EAE07008BD08B50121007CFFF740FAB3
:10D3B00040EAE07008BD08B5007CFFF72BFA20EAD0
:10D3C000E07008BD08B5007CFFF716FA20EAE070AF
:10D3D00008BD13B50446007C0191FFF71BFA002835
:10D3E000019901DC607C20B1207CFFF72FFA20EA54
:10D3F000E07002B010BD007CFFF736BA10B50446ED
:10D400001421FDF770FB204610BD000010B54FF44D
:10D410007A73044608460021C4E90113044B2074C2
:10D420002360012311466374FFF7CAF9204610BD3B
:10D4300000FF3F020022007CFFF7D0B910B5044680
:10D440001422002100F09BFA204610BD10B588B0D0
:10D4500003A8FFF7F3FF0C4CD4E88F1F11F0010174
:10D460000FD120460191FDF74DFB019948B103AA68
:10D470000648FFF7CBFF2046FDF749FB044800F0C4
:10D480006BFA024808B010BDC8AE0710CCAE07104A
:10D490006BDC3F02002240681146FFF771BA0022A0
:10D4A00040681146FFF7A4BA002240681146FFF712
:10D4B000BBBA00224068FFF7A9BA0022406881F099
:10D4C0000101FFF787BA002340681A461946FFF7A3
:10D4D00073BA002340681A461946FFF75FBA002264
:10D4E00040681146FFF730BA002202214068FFF77A
:10D4F00039BA002340681A46FFF718BA0422024BD3
:10D500005A60024A1A607047E0AE071030FF3F02CF
:10D51000014B1860704700BFA4AC071008B50F4B53
:10D5200043B1FFF793FF03681B699847002801DDAB
:10D5300000E000BF0A4B43B100F07CF903681B69AF
:10D540009847002801DD00E000BF064B0BB100F05A
:10D55000B7F9054B0BB100F0E9F908BD0000000078
:10D5600000000000000000000000000008B5FFF708
:10D57000D5FFFEF765FF014B186008BDF0AE071040
:10D580000548064A08B5121A054900F0EBF9054BA3
:10D59000054A1A6008BD00BF00B4071004B40710A4
:10D5A00098F75F0800B407101E1C279A002307B5E0
:10D5B0001A466FF077010093FFF79CF903B05DF80E
:10D5C00004FB000007B543880A2B08D0502B0BD171
:10D5D000094B1B684BB103B05DF804EB1847FFF72C
:10D5E000E5FF03B05DF804FB00231A466FF07701F6
:10D5F0000093FFF77FF9F4E7ECAE0710002110B5B8
:10D600001148FFF765FA114B1A68114B9A420CBF8B
:10D61000012200220F4B1A7001D0FFF7B1FFFEF775
:10D62000F3FE044600F0B4F90B4B13B1204600E0C2
:10D6300000BF00210848FFF76BF9BDE8104000214A
:10D640000648FFF749B900BFE9DD3F0200B4071003
:10D650001E1C279AE8AE0710000000009DDE3F0266
:10D660001B2837B5044602D9002003B030BDA0F115
:10D670000F03022B0BD9012821D800F087F80021D5
:10D68000007CFEF777FF80F00100C0B2EDE7114D9E
:10D69000D5E88F1F11F001010BD128460191FDF74C
:10D6A00031FA019928B10C48FFF754FD2846FDF7DF
:10D6B0002EFA094B1878FEF7CDFF0028D4D1083C8C
:10D6C000012C05D800F0B6F8007CFFF74FF8DAE738
:10D6D0000120CAE780AE071084AE07101B2838B5BA
:10D6E00004460D460AD8FF2908D0FFF7B9FF28B134
:10D6F00029462046BDE83840FEF7BEBE38BD38B5E5
:10D7000004460D46FEF7C6FEFF2810D0062804D8B2
:10D710004D2323FA00F0C30709D42046FFF7A0FFEA
:10D7200028B129462046BDE83840FEF7C1BE38BDC5
:10D7300010B50446FFF794FF50B103212046FEF7D1
:10D740008DFE032804D12046BDE81040FEF7BEBE82
:10D75000002010BD7047000038B50A4B0446036036
:10D76000012309494361202000F0F4F8202560607E
:10D7700005492846A56000F0EDF8C4E903052046F8
:10D7800038BD00BF1800010064FF3F0230B50E4DE8
:10D7900087B0D5E88F1F11F0010411D12846FDF79D
:10D7A000B1F968B16846FFF7D7FF6A4621460748D6
:10D7B000FFF71EFA2846FDF7AAF9054800F0CCF855
:10D7C000024807B030BD00BFF4AE0710F8AE071036
:10D7D0002DE03F027047000038B5142504462A4664
:10D7E000002100F0CCF825804025074928462581F6
:10D7F000258200F0AFF804496060284600F0AAF8DE
:10D80000E060204638BD00BF64FF3F0270477047AC
:10D8100010B50446FFF7E0FF204610BD10B50446E2
:10D82000FFF7DAFF204610BD10B50446FFF7D4FF1E
:10D83000204610BD30B50E4D87B0D5E88F1F11F0D2
:10D84000010411D12846FDF75DF968B101A8FFF781
:10D85000DFFF214601AA0748FFF782FD2846FDF7B2
:10D8600056F9054800F078F8024807B030BD00BF0F
:10D870000CAF071018AF0710ADE03F0210B50D4C0C
:10D8800086B0D4E88F3FDB0711D42046FDF73AF984
:10D8900068B101A8FFF7C2FF012101AA0648FFF7FE
:10D8A0005FFD2046FDF733F9044800F055F80248C3
:10D8B00006B010BD10AF07102CAF0710E7E03F0215
:10D8C00010B5FFF7DBFF074B044653B1FFF75CFDD4
:10D8D00038B1236820461B699847002801DD00E025
:10D8E00000BF10BD0000000010B50D4C86B0D4E89C
:10D8F0008F3FDB0711D42046FDF704F968B101A87A
:10D90000FFF792FF022101AA0648FFF729FD2046F2
:10D91000FDF7FDF8044800F01FF8024806B010BDFE
:10D9200014AF071040AF0710E5E03F0210B5FFF756
:10D93000DBFF074B044653B1FFF726FD38B12368E0
:10D9400020461B699847002801DD00E000BF10BD9C
:10D9500000000000FDF7C5B8002301461A4618462E
:10D9600000F044B80A44431E914200D1704710B5FC
:10D9700011F8014B914203F8014FF9D110BD024457
:10D980000346934200D1704703F8011BF9E70000FA
:10D9900038B5104B04461D68AB6BB3B91820FFF7C0
:10D9A0006DF80246A86320B90B4B42210B48FFF7E4
:10D9B00081F80B490B4BC0E900130B4B002183602E
:10D9C0000B2383810120C2E90401AB6B00221C619F
:10D9D0005A6138BDA4AC071065FF3F027CFF3F02CF
:10D9E0000E33CDAB34126DE6ECDE05002DE9F843C5
:10D9F000DFF8BC8006461F460D46D8F80000914669
:10DA000000F058F8264B1C6834B9264C1C60264B95
:10DA100013B11B68C4F8883063681F2B07DDD8F882
:10DA2000000000F049F84FF0FF30BDE8F8835EB326
:10DA3000D4F8880088B91D4B23B9D8F8000000F04D
:10DA40003AF8F0E74FF48470FFF718F80028F4D0A4
:10DA50000023C0E94033C4F8880063680122022E25
:10DA600040F8239002FA03F200EB8301D0F8003172
:10DA700043EA0203C0F80031C1F8807002BFD0F859
:10DA800004311343C0F804316368D8F800005A1C0D
:10DA90000233626044F8235000F00EF80020C4E71F
:10DAA000E0AF071054AF07100000000055D33F024D
:10DAB00008AD0710704770477047000081B33F0200
:10DAC000A9B33F02ADB33F020000000043616C6C9C
:10DAD000206F6E2070757265207669727475616C46
:10DAE0000045433A202000286D532F6D29005444EF
:10DAF000533A2020002870706D2F6D2900547572E4
:10DB00006269646974793A202000284E54552900CE
:10DB1000434C45414E3A2000434C45414E004D5543
:10DB2000524B593A20004D55524B590044495254DA
:10DB3000593A2000444952545900544453205661E4
:10DB40006C75653A0070706D0045432056616C75C8
:10DB5000653A006D532F6D0040E73F0248E43F02F5
:10DB6000207E1600B6EE3F02BEEB3F02207E1D0077
:10DB700000000000050001000000020D0602F40094
:10DB8000040005040601F40007000A0C0A00F50071
:10DB9000160009100A01F3002800100D1001F4000E
:10DBA00042000B0D0C01F400540002040401F400C7
:10DBB000550004110601F4005E0004110601F40092
:10DBC000670005050701F4006B0006080B03F90068
:10DBD0007100020405020000720004010601FC004D
:10DBE00073000201050100007400050D0500F4003A
:10DBF0007D00080D0A01F4008A00040D0A03F400F8
:10DC00009100090D0A01F400A000080D0A01F400BA
:10DC1000AD00070D0A02F400B900090D0A01F40075
:10DC2000C800090D0A01F400D700080D0A00F4002D
:10DC3000E400090D0A01F400F300080D0A01F400E4
:10DC40000001020A0501F7000301030C0501F800B9
:10DC5000080109090B01F800130109040B01FB007D
:10DC6000180109090B01F8002301090D0A01F4004C
:10DC7000320111101201F40054010C0D0C00F400DB
:10DC800068010B0D0C01F4007A010B0D0D01F4007D
:10DC90008C010B0D0D01F4009E01090D0B01F40028
:10DCA000AD01080D0B01F400BA010C0D0E01F400DA
:10DCB000CE010B0D0D01F400E001020D0502F40090
:10DCC000E401070D0A01F400F0010B0D0C01F40052
:10DCD0000202080D0A01F4000F020D0D0F01F400FD
:10DCE00025020B0D0D01F40037020D0D0E01F4009D
:10DCF0004D020A0D0C01F4005E020D0E0E01F4003F
:10DD000075020C0D0D01F40089020A0D0C01F400DE
:10DD10009A02090D0B01F400A9020B0D0D01F4008C
:10DD2000BB020B0D0C00F400CD02110D1100F4002C
:10DD3000E9020C0D0C00F400FD020C0D0C00F400C7
:10DD400011030A0D0B01F400220303110501F40075
:10DD50002903050D0500F400320303110500F4004A
:10DD6000390307070801F40040030A010A00030011
:10DD7000420304030500F4004403090A0A01F70002
:10DD80005003090D0A01F4005F03080A0901F700B6
:10DD90006903080D0A01F4007603080A0A01F70076
:10DDA0008003040D0501F4008703080E0A01F70043
:10DDB0009503080D0A01F400A203020D0401F4000A
:10DDC000A60304110400F400AF03090D0901F400D7
:10DDD000BE03020D0401F400C2030D0A0F01F70097
:10DDE000D303080A0A01F700DD03080A0A01F70055
:10DDF000E703090D0A01F700F603080D0A01F70011
:10DE00000304050A0601F7000A04080A0901F700DD
:10DE10001404040C0501F5001A04080A0A01F700AD
:10DE20002404090A0900F70030040D0A0D00F70068
:10DE30004104080A0900F7004B04090E0900F70025
:10DE40005B04070A0901F700640404110601F400E9
:10DE50006D0402110402F400720404110601F400BE
:10DE60007B0407030901F900FFFFF8C0DEF7200972
:10DE7000864191FF1304C320C8FF89826190101F5F
:10DE800014DA3D1E8340781708F47A3533F04020C9
:10DE90003810EC20C620C640C6406C803900013CDA
:10DEA0000277026304630477083C0E0660CC198194
:10DEB000E0180F0336C2D8730631E3C4FE13266C94
:10DEC000CCCCC46623108C4663333332664C802539
:10DED0007EA50030C33F30C30CD6F0C008442110EB
:10DEE00084421108003C6642C3C3C3C3C3C3C342D8
:10DEF000663C113F33333333303E31B07830181C39
:10DF00001C1C1818100807F83C66C3C303061C073E
:10DF100003C3C3663C0C187162C9A346FE18306087
:10DF2000C07F2010080807F38C030180F06C63E0C9
:10DF30001E3198780C06F38D83C1E0D06C63E0FF4E
:10DF4000030206040C081818181030303E31B0785F
:10DF50003C1B18F8C6C1E0F06C63E03C66C2C3C36A
:10DF6000C3673B0303C2663CC00030C0000064A02E
:10DF70000081C78E0C0780700E0180FF80001FF0AB
:10DF800000700E01C0183871C080003E31B078308A
:10DF900018183818180C0000018003F0060E06014E
:10DFA0008600661DBB31CF18C79863CC31E611B32C
:10DFB00099CCF7860001800070400FE00600F00F5A
:10DFC000009019819810830C3FC204606606C0302F
:10DFD000FF183303606C0D833FC606C0780F01E065
:10DFE0006FF81F861981A03C0180300600C0680DC3
:10DFF000831861F0FF183303603C0780F01E03C0F4
:10E00000780F0360CFF0FFE030180C0603FD80C0EE
:10E010006030180FF8FFC0C0C0C0C0FEC0C0C0C094
:10E02000C0C00F830E606603C00C00C1FC03C03685
:10E030000360730F0F10C0780F01E03C0780FFFEF4
:10E0400003C0780F01E03C06FFFFFFC0060C18304C
:10E0500060C183078F1E2780C0D8330C630CC1B802
:10E060003F0730C3186306606C0CC0C0C0C0C0C09E
:10E07000C0C0C0C0C0C0FFE03F01FC1FE0FD05EC18
:10E080006F637913CD9E6CF1478E3C7180E07C0FFD
:10E09000C1E83D8798F11E33C3786F07E07C0E0F0F
:10E0A0008183180CC06C01E00F007803C01B01983D
:10E0B0000C60C0F800FF306C0F03C0F06FF300C0BD
:10E0C000300C0300C0000F8183180CC06C01E00FFE
:10E0D000007803C01B01986C60C0FB0008FF8C0E29
:10E0E000C06C06C06C0CFF8C0EC06C06C06C06C009
:10E0F000703F186C0F03C01E01F00E00F03C0D863F
:10E100003F00FF86030180C06030180C06030180C9
:10E11000C0C0780F01E03C0780F01E03C0780F01FB
:10E12000B061F0C06C0D8110630C610460CC19010A
:10E13000603C070060C18130E19870CC28662621E0
:10E140001330C8986C4C14340A1A070703038081F3
:10E150008060630C30C1980F00E00600F019019850
:10E1600030C60E6060C0360630C30C1981D80F006F
:10E17000600600600600600600FFC060300C060309
:10E1800001C0603018060300FFC0FB6DB6DB6DB642
:10E19000E0841084108410841080EDB6DB6DB6DB53
:10E1A000E03060A244D8A180FFC0C6307E71B0C00C
:10E1B00060F3DB0D86C73DC0C060301BCE360F0755
:10E1C00083C1E0F07C6DE03C66C3C0C0C0C0C366E4
:10E1D0003C0303033B67C3C3C3C3C3C3673B3C6682
:10E1E000C3C3FFC0C0C3663C366F66666666603BED
:10E1F00067C3C3C3C3C3C3673B0303C67CC0C0C0FC
:10E20000DEE3C3C3C3C3C3C3C3C3C3FFFFC0300381
:10E21000333333333333E0C06030184C466361F03E
:10E22000EC6231986C30FFFFFFC0DEF71CF0C78650
:10E230003C31E18F0C7863C31E18C0DEE3C3C3C357
:10E24000C3C3C3C3C33C66C3C3C3C3C3C3663CDE4B
:10E2500071B0783C1E0F0783E36F30180C003B67EA
:10E26000C3C3C3C3C3C3673B030303DF318C63185A
:10E27000C6003EE3C0C0E03C07C3E37E66F66666C8
:10E280006667C3C3C3C3C3C3C3C3C77BC1A098CCA2
:10E290004221B0D0281C0C00C61E3891C4CA66D3D7
:10E2A00016D0A6871C38C0C6004362361C181C3C1A
:10E2B000266243C12198CC4261B0D0381C0C0603C1
:10E2C000010300FE0C30C1861820C1FC3666666E64
:10E2D000CE66666630FFFFFFFFC0C66666673766BC
:10E2E0006666C061243800000000070001000000DD
:10E2F00004110803F00009000A060B01EF001100E9
:10E300000D100D00F1002B000D140D00EF004C005E
:10E3100013111501F000750010111101F0009700A4
:10E3200004060601EF009A0006160801EF00AB0094
:10E3300006160801EF00BC0007080901EF00C30042
:10E340000B0B0E02F600D30004070601FE00D700F7
:10E3500006030801F900DA0004030601FE00DC00F0
:10E3600006110700F000E9000C110D01F000030197
:10E3700007110E03F00012010C110D01F0002C0129
:10E380000C110D01F00046010B110D01F0005E01B2
:10E390000C110D01F00078010C110D01F00092013B
:10E3A0000B110D01F000AA010C110D01F000C401C8
:10E3B0000C110D01F000DE01040C0601F500E40172
:10E3C00004100601F500EC010C0C0E01F500FE0135
:10E3D0000C090E01F7000C020C0C0E01F5001E02D8
:10E3E0000C120F02EF00390215151701EF00710230
:10E3F00010121100EF0095020E121102EF00B5028B
:10E4000010121101EF00D9020F121102EF00FB02EE
:10E410000D121002EF0019030C120F02EF0034036B
:10E4200010121201EF0058030E121202EF007803CF
:10E4300004120702EF0081030B120E01EF009A0392
:10E4400010121102EF00BE030B120F02EF00D703F0
:10E4500011121502EF00FE030F121202EF0020044A
:10E4600011121301EF0047040E121002EF006704AF
:10E4700011131301EF00900410121102EF00B40405
:10E480000F121001EF00D6040C120F02EF00F1047E
:10E490000E121202EF0011050F121000EF003305EB
:10E4A00017121700EF0067050F121001EF00890522
:10E4B00010120F00EF00AD050D120F01EF00CB059C
:10E4C00006170802EF00DD0507110700F000EC0554
:10E4D00006170800EF00FE050C0B0E01F0000F06FA
:10E4E0000F020DFF0400130604030600EF001506DB
:10E4F0000D0D0E01F4002B060D120F02EF00490660
:10E500000C0D0D01F4005D060D120F01EF007B06EE
:10E510000D0D0E01F400910607120801EF00A1068F
:10E520000D120F01F400BF060C120E02EF00DA0606
:10E5300004120702EF00E30606170700EF00F506D6
:10E540000C120E02EF00100704120602EF0019076A
:10E55000130D1502F40038070C0D0F02F4004C07E0
:10E560000D0D0F01F40062070D120F02F400800779
:10E570000D120F01F4009E07080D0902F400AB070D
:10E580000C0D0D01F400BF07060F0801F200CB07C8
:10E590000C0D0F02F400DF070D0D0D00F400F50760
:10E5A000120D1300F40013080D0D0D00F4002908DE
:10E5B0000D120D00F40047080A0D0C01F400580874
:10E5C00006170901EF006A0802160702EF0070083B
:10E5D00006170903EF0082080C050C00F900FFFF85
:10E5E000FFFF766660FFF0F3FCFF3FCF6198600E9F
:10E5F00070738318FFF7FFBFFC73831818C7FFBF42
:10E60000FDFFE31839C1CE0E7002007E0FF87FE7E0
:10E61000AFB93DC80F403F00FF00FC05FF27F93FA1
:10E62000EBEFFE3FE07C008004003C060FC181FC64
:10E6300030738C0C3181CE601FCC03F3003C6780BB
:10E6400019F8027F80CE7011860639C187F8307EB6
:10E650000C078007801FC03FE03CE03CE03EE00F3D
:10E66000C007003F8C7FCCF1FCF0F8F078F8F87F21
:10E67000FC3FDE1F8EFFFF660C738E71C738E38E82
:10E6800038E38E1C71C38E1870C3871C38E3871C57
:10E6900071C71C71CE38E71C638010235FF3871BA2
:10E6A000140E01C038070FFFFFFFF8700E01C038CD
:10E6B00000FFF336C0FFFFC0FFF00C308618610C7E
:10E6C00030C218618430C01F83FC7FE79EF0FF0FCB
:10E6D000F0FF0FF0FF0FF0FF0FF0F79E7FE3FC0F4E
:10E6E00000061C7FFFE3C78F1E3C78F1E3C78F1E37
:10E6F0001F83FC7FEF9FF0FF0F00F00F01E03C0F46
:10E7000081E03C03807FF7FF7FF01F07FCFFEF1ED7
:10E71000F1E01E03C07807C01E00F00FF0FF1F7F5E
:10E72000E7FC1F8003C0F81F07E1BC278CF31E63C2
:10E73000D87BFFFFFFFE0780F01E03C03FE7FE7F90
:10E74000E7006006F87FCFFEF1F00F00F00F00FE4B
:10E750001EFFE7FC3F000F83FC7FE79FF00F78FF71
:10E76000CFFEF9FF0FF0FF0FF0F79F7FE3FC0F8064
:10E77000FFFFFFFF80E01C0701E0380F01C0780FAA
:10E7800001E0380F01E03C000F03FC7FC79E70E7FB
:10E790000E39C1F83FC79EF0FF0FF0FF9F7FE3FCEB
:10E7A0001F801F03FC7FEF9EF0EF0FF0FF0FF9F7C4
:10E7B000FF3FF1EF00EF1E7FE7FC1F00FFF00000BE
:10E7C0000FFFFFF000000FFF116C00100703F1FCBA
:10E7D0007E0F80E00FC03F807F00F003FFFFFFFF50
:10E7E000F000000000FFFFFFFFF0000E00FC07F04C
:10E7F0000FE01F00F07F1F8FE0F008001F07FC7F75
:10E80000EF9FF0FF0F00F00F01E03C0780F00E00DB
:10E81000E00000F00F00F000FE001FFC03C0F03825
:10E8200001C38007183D9987EC6C71C3C3061E189D
:10E8300030F181878C187C60C3638E3B8FDF8C3C0A
:10E84000F0700001C0000780801FFE001FC00003A1
:10E85000E003E003E007F007F007700F780E780E92
:10E86000381E3C1C3C3FFC3FFE3FFE780E780F708C
:10E870000FF007FFC3FFCFFF3C3EF07BC1EF0FBFA0
:10E88000FCFFE3FFCF07BC0FF03FC0FF07FFFEFF19
:10E89000FBFF8007E01FF83FFC7C3E781FF80FF07D
:10E8A00000F000F000F000F000F000F80F781F7C9E
:10E8B0003E3FFE1FFC07F0FFE1FFE3FFE783EF03AE
:10E8C000DE07FC07F80FF01FE03FC07F80FF03FE6C
:10E8D00007BC1F7FFCFFF1FF80FFF7FFBFFDE00FCC
:10E8E000007803C01FFCFFE7FF3C01E00F00780346
:10E8F000C01FFFFFFFFFC0FFFFFFFFFF00F00F0083
:10E90000F00FFEFFEFFEF00F00F00F00F00F00F031
:10E910000F0003F00FFC3FFE3E1F78077800F00069
:10E92000F000F07FF07FF07FF00778077C0F3E1F4C
:10E930003FFB0FFB03E3F03FC0FF03FC0FF03FC0C2
:10E94000FF03FFFFFFFFFFFF03FC0FF03FC0FF03CC
:10E95000FC0FF03FC0F0FFFFFFFFFFFFFFFFFF01D5
:10E96000E03C0780F01E03C0780F01E03C07F8FF91
:10E970001FE3FC7BFE7FC3E0F03EF03CF078F0F05C
:10E98000F1E0F3C0F780FF00FF80FF80FBC0F1E003
:10E99000F0F0F0F0F078F03CF03EF01EF01E03C016
:10E9A000780F01E03C0780F01E03C0780F01E03CC7
:10E9B00007FFFFFFFCF81FFE0FFF0FFF87FFC3FFDE
:10E9C000E1FFF9FFFCEFFE77FB3BFDDDFEFCFF7E88
:10E9D0007F9F3FCF9FE78FF3C7F8E3C0F01FF03F63
:10E9E000F07FE0FFE1FFC3FDC7FB8FF39FE73FC769
:10E9F0007F8FFF0FFE1FFC1FF81FF03FE03C03E07E
:10EA00000FFC0FFF87C7C780F3C07BC01FE00FF06C
:10EA100007F803FC01FE00F780F3C078F0F87FFCF4
:10EA20001FFC03F800FFE3FFEFFFBC1FF03FC0FF38
:10EA300003FC1FFFFBFFCFFE3C00F003C00F003CB8
:10EA400000F003C00003E00FFC0FFF87C7C780F38F
:10EA5000C07BC01FE00FF007F803FC01FE04F7873E
:10EA6000F3C3F8F0F87FFC1FFF83F1800000FFF88C
:10EA7000FFFCFFFCF03EF01EF01EF01EF03CFFF825
:10EA8000FFF0FFF8F03CF03CF03CF03CF03CF03C98
:10EA9000F01F0FC07FE1FFE7C3EF03DE003C007F04
:10EAA000007FF03FF80FF801F001FE03DE0FBFFE1C
:10EAB0003FF81FC0FFFFFFFFF0F00F00F00F00F066
:10EAC0000F00F00F00F00F00F00F00F00F00F0F05B
:10EAD0003FC0FF03FC0FF03FC0FF03FC0FF03FC03F
:10EAE000FF03FC0FF03FC0F7879FFE3FF03F007031
:10EAF0000EF03DE079C0E381C787870E0E1C1E78BB
:10EB00001CE039C073807E00FC01F801E003C007FF
:10EB10008070381CE0F079E1F0F3C3E1E387C3874C
:10EB20000F870E3B9E1E77381CEE7039CCE0739930
:10EB3000C06E3F00FC7E01F8FC03F0F803E1E00743
:10EB400083C00F0780F03CF0F9E1E1E783CF03FCDD
:10EB500003F007E007800F003F00FF01FE079E0F54
:10EB60001E3C3CF83DE078F01E781E783C3C3C3C76
:10EB7000781E780E700FF007E007E003C003C003B3
:10EB8000C003C003C003C003C003C0FFFFFFFFFEFC
:10EB900001F00F00F00F00F807807807807C03C0B9
:10EBA0003C03C01FFFFFFFFFC0FFFFFCF3CF3CF3A0
:10EBB000CF3CF3CF3CF3CF3CFFFFC0C18103060441
:10EBC0000C1810306040C1810306FFFFCF3CF3CF2B
:10EBD0003CF3CF3CF3CF3CF3CFFFFFC00F00F00F6F
:10EBE00001F81B839C39C30C70E70EE070FFFFFF38
:10EBF000FCE6301F83FF1FFDE1E00F03F9FFDF1E7E
:10EC0000F0F78FBFFCFFE3CF80F007803C01E00FFF
:10EC1000007BC3FF9FFEF8F783FC1FE0FF07F83F70
:10EC2000E3DFFEFFE7BE000F83FE7FF78FF07F007C
:10EC3000F00F00F0778F7FF3FE0F80007803C01E87
:10EC400000F0078FBCFFEFFF78FF83FC1FE0FF079A
:10EC5000F83DE3EFFF3FF8FBC01F81FE1FF9F1CF46
:10EC6000077FFBFFDE00F003C39FFC7FC0F8003E80
:10EC7000FDFBC79FBF3C78F1E3C78F1E3C78F01EB9
:10EC800079FBDFFEF1FF07F83FC1FE0FF07FC7DF22
:10EC9000FE7FF1F7803C01FF1E7FF0FE00F00F00C9
:10ECA000F00F00F00F7CFFEFFFF9FF0FF0FF0FF008
:10ECB000FF0FF0FF0FF0FF0FFFF00FFFFFFFFFFF51
:10ECC000FF3CF3C000F3CF3CF3CF3CF3CF3CF3CF9A
:10ECD000FFFF80F00F00F00F00F00F0FF1EF3CF797
:10ECE0008FF0FF0FF8FF8F3CF1CF1EF0EF0FFFFF0B
:10ECF000FFFFFFFFFFFFFFF78F9FFBFBFFFFFCF80E
:10ED0000FF1E1FE3C3FC787F8F0FF1E1FE3C3FC77E
:10ED100087F8F0FF1E1EF7CFFEFFFF9FF0FF0FF0FA
:10ED2000FF0FF0FF0FF0FF0FF0F00F81FF1FFCF15E
:10ED3000EF07F83FC1FE0FF07BC79FFC7FC0F800D4
:10ED4000F7C7FF3FFDF1EF07F83FC1FE0FF07FC7A8
:10ED5000BFFDFFCF787803C01E00F00780000F7959
:10ED6000FFDFFEF1FF07F83FC1FE0FF07BC7DFFEBC
:10ED70007FF1F7803C01E00F007803C0F3F7FFF864
:10ED8000F0F0F0F0F0F0F0F0F01F87FCFFEF0FF87C
:10ED90000FF07FE0FF01FF0FFFE7FE1F8079E7BF65
:10EDA000FDE79E79E79E7DF3C0F0FF0FF0FF0FF0C7
:10EDB000FF0FF0FF0FF0FF1FFFF7FF3EF0F07B8328
:10EDC0009E1CF1E38E1C707783B81DC07E03E01F8C
:10EDD000007000F0E1DC78771F3DE7CF79B38E6CEF
:10EDE000E3BB38EEFC1F3F07C7C1F1F07C780E1E75
:10EDF0000078F3C78F783B81FC07C01E01F01FC06D
:10EE0000EF0F78F1E78700F07B839E1C71E38E1E85
:10EE1000707383B81FC07E03E00F007003803C074F
:10EE2000C03E01E000FFFFFFFC0F0783C1E0F07868
:10EE30003C0FFFFFFFC01CF3CE38E38E38E3BCF07D
:10EE4000E38E38E38E3CF1C0FFFFFFFFFFF0E38F5E
:10EE50001C71C71C71C70F3DC71C71C71CF3CE00C6
:10EE6000780FE0CF307F01E000000000003E5B4FF4
:10EE70005B3E3E6B4F6B3E1C3E7C3E1C183C7E3C1A
:10EE8000181C577D571C1C5E7F5E1C00183C180028
:10EE9000FFE7C3E7FF0018241800FFE7DBE7FF30B8
:10EEA000483A060E2629792926407F050507407F26
:10EEB00005253F5A3CE73C5A7F3E1C1C08081C1C99
:10EEC0003E7F14227F22145F5F005F5F06097F018F
:10EED0007F006689956A606060606094A2FFA2947A
:10EEE00008047E040810207E201008082A1C080848
:10EEF0001C2A08081E101010100C1E0C1E0C303896
:10EF00003E3830060E3E0E06000000000000005F96
:10EF100000000007000700147F147F14242A7F2AB2
:10EF20001223130864623649562050000807030074
:10EF3000001C2241000041221C002A1C7F1C2A08C0
:10EF4000083E080800807030000808080808000023
:10EF500060600020100804023E5149453E00427F97
:10EF6000400072494949462141494D331814127FE6
:10EF70001027454545393C4A494931412111090786
:10EF80003649494936464949291E00001400000007
:10EF900040340000000814224114141414140041D9
:10EFA00022140802015909063E415D594E7C121196
:10EFB000127C7F494949363E414141227F414141CE
:10EFC0003E7F494949417F090909013E4141517349
:10EFD0007F0808087F00417F41002040413F017FBA
:10EFE000081422417F404040407F021C027F7F0482
:10EFF00008107F3E4141413E7F090909063E4151CB
:10F00000215E7F09192946264949493203017F01BA
:10F01000033F4040403F1F2040201F3F4038403FBB
:10F02000631408146303047804036159494D4300D1
:10F030007F4141410204081020004141417F040208
:10F04000010204404040404000030708002054549F
:10F0500078407F284444383844444428384444287D
:10F060007F385454541800087E090218A4A49C78D0
:10F070007F0804047800447D40002040403D007F2C
:10F080001028440000417F40007C047804787C080C
:10F090000404783844444438FC18242418182424E0
:10F0A00018FC7C08040408485454542404043F44C5
:10F0B000243C4040207C1C2040201C3C4030403CF4
:10F0C00044281028444C9090907C4464544C440054
:10F0D00008364100000077000000413608000201B8
:10F0E0000204023C2623263C1EA1A161123A4040A4
:10F0F000207A385454555921555579412254547821
:10F1000042215554784020545579400C1E527212B9
:10F110003955555559395454545939555454580042
:10F1200000457C410002457D420001457C407D1246
:10F1300011127DF0282528F07C54554500205454A8
:10F140007C547C0A097F4932494949323A44444453
:10F150003A324A4848303A4141217A3A424020788E
:10F16000009DA0A07D3D4242423D3D4040403D3C8F
:10F1700024FF2424487E4943662B2FFC2F2BFF09B4
:10F1800029F620C0887E09032054547941000044A8
:10F190007D413048484A32384040227A007A0A0A93
:10F1A000727D0D19317D2629292F28262929292606
:10F1B00030484D4020380808080808080808382F4B
:10F1C00010C8ACBA2F102834FA00007B00000814D5
:10F1D0002A142222142A14085500550055AA55AAAB
:10F1E00055AAFF55FF55FF000000FF00101010FF4B
:10F1F00000141414FF001010FF00FF1010F010F0A6
:10F20000141414FC001414F700FF0000FF00FF1496
:10F2100014F404FC141417101F10101F101F1414E2
:10F22000141F00101010F0000000001F101010102C
:10F230001F10101010F010000000FF101010101020
:10F2400010101010FF10000000FF140000FF00FF5E
:10F2500000001F10170000FC04F4141417101714FA
:10F2600014F404F40000FF00F7141414141414141C
:10F27000F700F7141414171410101F101F1414148F
:10F28000F4141010F010F000001F101F0000001FF9
:10F2900014000000FC140000F010F01010FF10FF2C
:10F2A000141414FF141010101F00000000F010FFC1
:10F2B000FFFFFFFFF0F0F0F0F0FFFFFF00000000A5
:10F2C00000FFFF0F0F0F0F0F3844443844FC4A4A29
:10F2D0004A347E02020606027E027E0263554941DE
:10F2E000633844443C04407E201E2006027E020215
:10F2F00099A5E7A5991C2A492A1C4C7201724C3029
:10F300004A4D4D303048784830BC625A463D3E49FF
:10F310004949007E0101017E2A2A2A2A2A44445FA3
:10F32000444440514A444040444A51400000FF0197
:10F3300003E080FF000008086B6B083612362436A5
:10F34000060F090F0600001818000000101000300A
:10F3500040FF0101001F01011E00191D1712003C92
:10F360003C3C3C00000000000000000000000000E9
:10F370000000000000000000DDC03F0269D73F022E
:10F38000C5B33F028FBB3F0291BB3F02C3BB3F02ED
:10F390009FBB3F02B1BB3F02D1BA3F028FBB3F02CE
:10F3A000B9BD3F02B7BD3F02DBBB3F0219BC3F0204
:10F3B00053BC3F0299BC3F02B5BC3F0237BD3F0280
:10F3C000000000000000000000000000000000003D
:10F3D000DDC03F0269D73F0281C93F0217C43F0227
:10F3E00043C93F0237C53F02EFC73F0297C73F02FD
:10F3F000D1BA3F0243C43F02B9BD3F02BDC83F027C
:10F400001BC73F029BC63F02D7C53F0299BC3F02C4
:10F41000B5BC3F0237BD3F02C5B33F02C5B33F0293
:10F42000090180961180FF3A81550A3601082A04A5
:10F43000000000F02B04000000F021800A13800A75
:10F440002980FF00000000000000000047CA3F02C2
:10F45000AFCA3F02DDC03F0269D73F0281C93F0208
:10F4600017C43F0243C93F0237C53F02EFC73F02FF
:10F4700097C73F02D1BA3F0243C43F0249CA3F0285
:10F48000BDC83F021BC73F029BC63F02D7C53F0214
:10F4900099BC3F02B5BC3F0237BD3F0279CB3F026A
:10F4A00099CB3F02000000000000000005CB3F02A6
:10F4B000EBCB3F02DDC03F0269D73F0281C93F026B
:10F4C00017C43F0243C93F0237C53F02EFC73F029F
:10F4D00097C73F02D1BA3F0243C43F0207CB3F0266
:10F4E000BDC83F021BC73F029BC63F02D7C53F02B4
:10F4F00099BC3F02B5BC3F0237BD3F0279CB3F020A
:10F5000099CB3F02000000000000000053D43F02EE
:10F5100049D43F023FD43F0235D43F0229D43F02B1
:10F520001DD43F0245D63F024DD63F0211D43F02C3
:10F5300009D43F02FFD33F02F5D33F027DD63F02FD
:10F54000000000000000000071D43F02BBD43F0265
:10F5500093D43F0273D43F029BD43F02A3D43F0213
:10F56000ABD43F02B3D43F02000000000000000013
:10F5700015D53F0205D53F0207D53F0261707000E7
:10F58000000000000000000005D63F020FD63F0239
:10F5900019D63F0223D63F022DD63F0239D63F026D
:10F5A00045D63F024DD63F0255D63F0261D63F02B7
:10F5B00069D63F0273D63F027DD63F026E616E0070
:10F5C000696E66006F7666002E000008101820280D
:10F5D000303825592D256D2D25645425483A254D63
:10F5E0003A2553257A0061736374696D65000000E4
:10F5F0000000000000000000BDDB3F0229DC3F02EC
:10F6000001DC3F0269D73F02D1DB3F02EDDB3F0265
:10F61000DFDB3F02FBDB3F02BFDB3F02C3DB3F021E
:10F6200000000000000000006DDC3F02D5DC3F025E
:10F63000ABDC3F0269D73F029DDC3F026FDC3F023B
:10F640007FDC3F02CFDC3F028FDC3F0267DC3F0202
:10F650000000000000000000CBDD3F02C1DD3F02E2
:10F66000B7DD3F026DDD3F02ABDD3F029FDD3F02B4
:10F6700045D63F024DD63F0293DD3F028BDD3F0270
:10F6800081DD3F0277DD3F027DD63F0200524545D6
:10F690004E54206D616C6C6F632073756363656598
:10F6A000646564002F746D702F6A656E6B696E738C
:10F6B0002D4743432D31302D706970656C696E653F
:10F6C0002D34385F32303230313132345F313630C0
:10F6D000363138303633392F7372632F6E65776C5D
:10F6E00069622F6E65776C69622F6C6962632F7334
:10F6F00074646C69622F72616E642E630000000096
:10F70000C1BA3F02E5D33F025DD43F02F5D53F02C7
:10F7100055D73F0215DA3F0285DB3F02A9DB3F02E6
:04F72000D5DD3F02F2
:10F724000000000219000000BEFE3F02A8AC071052
:10F7340000000000000000000000000000000000C5
:10F7440000000000000000000000000000000000B5
:10F7540000000000000000000000000000000000A5
:10F764000000000000000000000000000000000095
:10F774000000000000000000000000000000000085
:10F784000000000000000000000000000000000075
:04F79400E4AF0710C7
:04F79800000000006D
:10FFBE000200100000A05F0888A05F0860A93F0241
:10FFCE0001000A00FFFFFFFFFFFF00000102030414
:10FFDE0005060708090A0B0C0D0E0F10111213144B
:0EFFEE0015161718191A1B1C1D1E1F203E0089
:04FFFC0078563412ED
:04000005085FA018D8
:00000001FF
