:02000004085F93
:10C0000000C05F08FCFF5F0800000600200005017B
:08C010000401B514000000005A
:10C018000E480F4908B5884205D00E4A824202D020
:10C028000D4B121A98470D480D4A00210D4B121A54
:10C0380098470D480D49884205D00D4A824202D0E2
:10C04800054B121A9847014808BD00BFF4AC071009
:10C058000CF35F0868AD07102D0D111068AD0710BF
:10C06800E8AF0710A10E111080CD3F0290C05F0805
:0CC07800FCFF3F0219C05F080000000040
:08C084007817E07901000000CB
:08C090007CC05F0878FD3F024F
:10C0980081F0004102E000BF83F0004330B54FEA71
:10C0A80041044FEA430594EA050F08BF90EA020FDE
:10C0B8001FBF54EA000C55EA020C7FEA645C7FEA71
:10C0C800655C00F0E2804FEA5454D4EB5555B8BF94
:10C0D8006D420CDD2C4480EA020281EA030382EA05
:10C0E800000083EA010180EA020281EA0303362D97
:10C0F80088BF30BD11F0004F4FEA01314FF4801C6A
:10C108004CEA113102D0404261EB410113F0004F7B
:10C118004FEA03334CEA133302D0524263EB430332
:10C1280094EA050F00F0A780A4F10104D5F1200ED0
:10C138000DDB02FA0EFC22FA05F2801841F100012B
:10C1480003FA0EF2801843FA05F359410EE0A5F1FF
:10C1580020050EF1200E012A03FA0EFC28BF4CF030
:10C16800020C43FA05F3C01851EBE37101F00045E6
:10C1780007D54FF0000EDCF1000C7EEB00006EEBF3
:10C188000101B1F5801F1BD3B1F5001F0CD349087D
:10C198005FEA30004FEA3C0C04F101044FEA4452D4
:10C1A80012F5800F80F09A80BCF1004F08BF5FEA5B
:10C1B800500C50F1000041EB045141EA050130BD3B
:10C1C8005FEA4C0C404141EB0101013C28BFB1F54D
:10C1D800801FE9D291F0000F04BF01460020B1FA98
:10C1E80081F308BF2033A3F10B03B3F120020CDA6B
:10C1F8000C3208DD02F1140CC2F10C0201FA0CF049
:10C2080021FA02F10CE002F11402D8BFC2F1200CAD
:10C2180001FA02F120FA0CFCDCBF41EA0C01904063
:10C22800E41AA2BF01EB0451294330BD6FEA0404AC
:10C238001F3C1CDA0C340EDC04F11404C4F1200297
:10C2480020FA04F001FA02F340EA030021FA04F3A9
:10C2580045EA030130BDC4F10C04C4F1200220FA00
:10C2680002F001FA04F340EA0300294630BD21FA3E
:10C2780004F0294630BD94F0000F83F4801306BF04
:10C2880081F480110134013D4EE77FEA645C18BFF8
:10C298007FEA655C29D094EA050F08BF90EA020F8F
:10C2A80005D054EA000C04BF1946104630BD91EA87
:10C2B800030F1EBF0021002030BD5FEA545C05D18A
:10C2C8004000494128BF41F0004130BD14F58004C9
:10C2D8003CBF01F5801130BD01F0004545F0FE413D
:10C2E80041F470014FF0000030BD7FEA645C1ABF72
:10C2F800194610467FEA655C1CBF0B46024650EAA9
:10C30800013406BF52EA033591EA030F41F40021D4
:10C3180030BD00BF90F0000F04BF0021704730B55A
:10C328004FF4806404F132044FF000054FF000012F
:10C3380050E700BF90F0000F04BF0021704730B5F0
:10C348004FF4806404F1320410F0004548BF4042C5
:10C358004FF000013EE700BF42004FEAE2014FEA1A
:10C3680031014FEA02701FBF12F07F4393F07F4FF5
:10C3780081F06051704732F07F4208BF704793F0F8
:10C388007F4F04BF41F40021704730B54FF460740B
:10C3980001F0004521F000411CE700BF50EA01020E
:10C3A80008BF704730B54FF000050AE050EA0102B7
:10C3B80008BF704730B511F0004502D5404261EB27
:10C3C80041014FF4806404F132045FEA915C3FF468
:10C3D800D8AE4FF003025FEADC0C18BF03325FEA05
:10C3E800DC0C18BF033202EBDC02C2F1200300FAB6
:10C3F80003FC20FA02F001FA03FE40EA0E0021FADB
:10C4080002F11444BDE600BF70B54FF0FF0C4CF4C8
:10C41800E06C1CEA11541DBF1CEA135594EA0C0F7A
:10C4280095EA0C0F00F0DEF82C4481EA030621EAB5
:10C438004C5123EA4C5350EA013518BF52EA0335F0
:10C4480041F4801143F4801338D0A0FB02CE4FF0A2
:10C458000005E1FB02E506F00042E0FB03E54FF0D2
:10C468000006E1FB03569CF0000F18BF4EF0010ECA
:10C47800A4F1FF04B6F5007F64F5407404D25FEAC6
:10C488004E0E6D4146EB060642EAC62141EA555179
:10C498004FEAC52040EA5E504FEACE2EB4F1FD0CBB
:10C4A80088BFBCF5E06F1ED8BEF1004F08BF5FEA39
:10C4B800500E50F1000041EB045170BD06F00046EB
:10C4C80046EA010140EA020081EA0301B4EB5C0498
:10C4D800C2BFD4EB0C0541EA045170BD41F4801190
:10C4E8004FF0000E013C00F3AB8014F1360FDEBFB5
:10C4F800002001F0004170BDC4F10004203C35DA91
:10C508000C341BDC04F11404C4F1200500FA05F313
:10C5180020FA04F001FA05F240EA020001F00042B4
:10C5280021F0004110EBD37021FA04F642EB06012A
:10C538005EEA430E08BF20EAD37070BDC4F10C0454
:10C54800C4F1200500FA04F320FA05F001FA04F218
:10C5580040EA020001F0004110EBD37041F1000104
:10C568005EEA430E08BF20EAD37070BDC4F120050F
:10C5780000FA05F24EEA020E20FA04F301FA05F277
:10C5880043EA020321FA04F001F0004121FA04F21F
:10C5980020EA020000EBD3705EEA430E08BF20EAEF
:10C5A800D37070BD94F0000F0FD101F00046400029
:10C5B80041EB010111F4801F08BF013CF7D041EAAB
:10C5C800060195F0000F18BF704703F000465200AF
:10C5D80043EB030313F4801F08BF013DF7D043EA80
:10C5E8000603704794EA0C0F0CEA135518BF95EA36
:10C5F8000C0F0CD050EA410618BF52EA4306D1D1BD
:10C6080081EA030101F000414FF0000070BD50EADB
:10C61800410606BF1046194652EA430619D094EA65
:10C628000C0F02D150EA013613D195EA0C0F05D14F
:10C6380052EA03361CBF104619460AD181EA0301A3
:10C6480001F0004141F0FE4141F470014FF000005B
:10C6580070BD41F0FE4141F4780170BD70B54FF0F6
:10C66800FF0C4CF4E06C1CEA11541DBF1CEA135576
:10C6780094EA0C0F95EA0C0F00F0A7F8A4EB050458
:10C6880081EA030E52EA03354FEA013100F088804F
:10C698004FEA03334FF0805545EA131343EA126318
:10C6A8004FEA022245EA111545EA10654FEA0026CD
:10C6B8000EF000419D4208BF964244F1FD0404F586
:10C6C800407402D25B084FEA3202B61A65EB0305E2
:10C6D8005B084FEA32024FF480104FF4002CB6EB9F
:10C6E800020E75EB030E22BFB61A754640EA0C001F
:10C6F8005B084FEA3202B6EB020E75EB030E22BF5F
:10C70800B61A754640EA5C005B084FEA3202B6EB9F
:10C71800020E75EB030E22BFB61A754640EA9C005E
:10C728005B084FEA3202B6EB020E75EB030E22BF2E
:10C73800B61A754640EADC0055EA060E18D04FEAEC
:10C74800051545EA16754FEA06164FEAC30343EA8C
:10C7580052734FEAC2025FEA1C1CC0D111F4801F59
:10C768000BD141EA00014FF000004FF0004CB6E752
:10C7780011F4801F04BF01430020B4F1FD0C88BFF1
:10C78800BCF5E06F3FF6AFAEB5EB030C04BFB6EBFC
:10C79800020C5FEA500C50F1000041EB045170BDEF
:10C7A8000EF0004E4EEA113114EB5C04C2BFD4EB1C
:10C7B8000C0541EA045170BD41F480114FF0000EA0
:10C7C800013C90E645EA060E8DE60CEA135594EA1C
:10C7D8000C0F08BF95EA0C0F3FF43BAF94EA0C0F1F
:10C7E8000AD150EA01347FF434AF95EA0C0F7FF494
:10C7F80025AF104619462CE795EA0C0F06D152EAE8
:10C8080003353FF4FDAE1046194622E750EA4106CB
:10C8180018BF52EA43067FF4C5AE50EA41047FF4DC
:10C828000DAF52EA43057FF4EBAE12E74FF0FF3C41
:10C8380006E000BF4FF0010C02E000BF4FF0010C12
:10C848004DF804CD4FEA410C7FEA6C5C4FEA430C8B
:10C8580018BF7FEA6C5C1BD001B050EA410C0CBFDA
:10C8680052EA430C91EA030F02BF90EA020F00203C
:10C87800704710F1000F91EA030F58BF994208BFA3
:10C8880090422CBFD8176FEAE37040F00100704760
:10C898004FEA410C7FEA6C5C02D150EA013C07D1B7
:10C8A8004FEA430C7FEA6C5CD6D152EA033CD3D002
:10C8B8005DF8040B704700BF8446104662468C46FC
:10C8C8001946634600E000BF01B5FFF7B7FF00282F
:10C8D80048BF10F1000F01BD4DF808EDFFF7F4FF58
:10C8E8000CBF012000205DF808FB00BF4DF808EDE3
:10C8F800FFF7EAFF34BF012000205DF808FB00BF06
:10C908004DF808EDFFF7E0FF94BF012000205DF827
:10C9180008FB00BF4DF808EDFFF7CEFF94BF0120DC
:10C9280000205DF808FB00BF4DF808EDFFF7C4FFD5
:10C9380034BF012000205DF808FB00BF4FEA410C1E
:10C948007FEA6C5C02D150EA013C0AD14FEA430C01
:10C958007FEA6C5C02D152EA033C02D14FF000003E
:10C9680070474FF0010070474FEA410212F500127C
:10C9780015D211D56FF47873B3EB625212D94FEA1E
:10C98800C12343F0004343EA505311F0004F23FA08
:10C9980002F018BF404270474FF00000704750EA5D
:10C9A800013005D111F0004008BF6FF0004070471A
:10C9B8004FF00000704700BF4A0011D212F5001274
:10C9C80011D20DD56FF47873B3EB62520ED44FEADF
:10C9D800C12343F0004343EA505323FA02F070475F
:10C9E8004FF00000704750EA013002D14FF0FF309D
:10C9F80070474FF0000070474FEA4102B2F1E04340
:10CA080024BFB3F5001CDCF1FE5C0DD901F0004C2D
:10CA18004FEAC0024CEA5070B2F1004F40EB83007D
:10CA280008BF20F00100704711F0804F21D113F1A9
:10CA38003872BCBF01F00040704741F480114FEAE2
:10CA48005252C2F11802C2F1200C10FA0CF320FA6B
:10CA580002F018BF40F001004FEAC1234FEAD32388
:10CA680003FA0CFC40EA0C0023FA02F34FEA4303F2
:10CA7800CCE77FEA625307D150EA01331EBF4FF07B
:10CA8800FE4040F44000704701F0004040F0FE4096
:10CA980040F40000704700BF53B94AB9002908BFE5
:10CAA80000281CBF4FF0FF314FF0FF3000F0A0B955
:10CAB800ADF1080C6DE904CE00F024F8DDF804E0CF
:10CAC800DDE9022304B07047D0B500220B4B0646BF
:10CAD8000F46FFF799FCFFF76FFF0446FFF71AFCB4
:10CAE8000022074BFFF790FC02460B4630463946BA
:10CAF800FFF7D2FAFFF760FF2146D0BD0000F03DF6
:10CB08000000F0412DE9F04F099D04460F46002B27
:10CB180048D18A42944661D9B2FA82F343B1C3F14B
:10CB280020019F4002FA03FC9C4020FA01F10F43C8
:10CB38004FEA1C411FFA8CFE220CB7FBF1F601FBF1
:10CB4800167706FB0EF042EA0742904208D91CEB22
:10CB5800020206F1FF3702D2904200F237813E46C8
:10CB6800121AA4B2B2FBF1F001FB102200FB0EFE78
:10CB780044EA0244A64508D91CEB040400F1FF323C
:10CB880002D2A64500F21C81104640EA0640A4EBFA
:10CB98000E0400261DB1DC400023C5E900433146E0
:10CBA800BDE8F08F8B4209D9002D00F0FD800026EA
:10CBB800C5E9000130463146BDE8F08FB3FA83F687
:10CBC800002E4BD18B42C0F0F280824240F2EF80BF
:10CBD8003046002DE3D0C5E90047E0E702B9FFDEA3
:10CBE800B2FA82F3002B40F09D80891A4FEA124E68
:10CBF80097B20126200CB1FBFEF20EFB121140EA9F
:10CC0800014107FB02F088420FD91CEB010102F138
:10CC1800FF382CBF4FF001094FF00009884203D9B3
:10CC2800B9F1000F00F0CF804246091AA4B2B1FB57
:10CC3800FEF00EFB101100FB07F744EA0144A7427F
:10CC480008D91CEB040400F1FF3102D2A74200F21C
:10CC5800B4800846E41B40EA02409BE7C6F120077F
:10CC6800B34001FA06F422FA07FCF940B2404CEA54
:10CC7800030C20FA07F34FEA1C491C431FFA8CFEE9
:10CC880000FA06F3200CB1FBF9F809FB181140EA89
:10CC9800014108FB0EF088420FD91CEB010108F195
:10CCA800FF3A2CBF4FF0010B4FF0000B884203D91D
:10CCB800BBF1000F00F08D80D046091AA4B2B1FB79
:10CCC800F9F009FB101100FB0EFE44EA01418E4504
:10CCD80007D91CEB010100F1FF3401D28E457FD842
:10CCE800204640EA0840A1EB0E01A0FB029841450E
:10CCF8004C46C64602D306D14B4504D20138B9EB9F
:10CD0800020468EB0C0E002D70D01A1B61EB0E01AB
:10CD180022FA06F301FA07F7F14000261F43C5E996
:10CD280000713CE702FA03FCC3F1200001FA03F2A8
:10CD380021FA00F64FEA1C4E24FA00F11FFA8CF78C
:10CD48009C401143B6FBFEF00A0C0EFB106642EA4B
:10CD5800064200FB07F696420ED91CEB020200F1D0
:10CD6800FF382CBF4FF001094FF00009964202D955
:10CD7800B9F1000F31D04046921B89B2B2FBFEF6E2
:10CD88000EFB162241EA024106FB07F28A4207D946
:10CD98001CEB010106F1FF3801D28A4223D846462E
:10CDA800891A46EA004625E72E462846F7E6841AF9
:10CDB80061EB030301201F460BE76444023849E78F
:10CDC80064440238E1E6023A61442EE7023E6244D6
:10CDD800C6E6A8F1020861446FE702386244CBE76F
:10CDE800023861447DE7023E6144D9E72E46D6E623
:10CDF800704700BF034613F8012B002AFBD1181A0D
:10CE08000138704770B501F0CDFE0025054E064C7F
:10CE1800A41BA408AC4200D170BD56F8043B984747
:10CE28000135F7E7D8FF3F02FCFF3F0200F015B8D5
:10CE380008B500F047FABDE8084001F06BBE00F005
:10CE480043BD00F041BD00F04DBD0078B0FA80F060
:10CE58004009704701230370704708B501F07EFD53
:10CE68004FF4E13101F06EFD00210B2001F00AFFC3
:10CE7800BDE8084000210E2001F004BFF8B58A0083
:10CE8800073222F0070200AFADEB020D6C4600221C
:10CE98004B1ED5B28D4202F1010204DA50F825602A
:10CEA80044F82560F5E70020984211DA224600256B
:10CEB800A3EB000E754509DA1668D2F804C00135EF
:10CEC800664501DDC2E900C60432F3E70130EBE74D
:10CED800CA0706D503EBD3735B1054F82300BD468D
:10CEE800F8BD01EBD171491004EB810354F821001E
:10CEF80053F8043C184400EBD0704010EFE738B505
:10CF0800046805467CB16368013B63605BB92368CC
:10CF180020469B689847A368013BA3601BB9236818
:10CF28002046DB689847284638BD0000000000000E
:10CF3800F0B52DED028B9E4D8DB0D5E88F3F13F0E7
:10CF4800010F9C4C09D12846FFF77FFF28B100F05C
:10CF5800E3F920602846FFF77DFF00F0DDF923683C
:10CF6800C01A282812D900F0D7F92060924C0E2058
:10CF7800256801F098FE914B43F8250023681D2B86
:10CF880003F101020ABF0023226023608C4DD5E81B
:10CF98008F3F13F0010F8B4C09D12846FFF755FF3F
:10CFA80028B100F0B9F920602846FFF753FF00F0D8
:10CFB800B3F92368C01AB0F5487F40F2DE8000F06C
:10CFC800ABF900231F22804920607C4C7F480B600E
:10CFD800013A05D054F8043B40F8043B0123F7E735
:10CFE8000BB11E230B601E217848FFF747FF07EEA1
:10CFF800900A9FED777AF8EEE77A67EE877A9FEDE9
:10D00800757A87EE878A744B83ED008A734B1868AC
:10D01800FFF790F90022724BFFF73EF85AA3D3E9C5
:10D028000023FFF7F1F900226E4BFFF737F8FFF7FF
:10D03800E3FC07EE900AC8EE277A17EE900AFFF78E
:10D048008BF953A3D3E9002304460D46FFF7DCF917
:10D0580022462B46FFF7D8F922462B46FFF7D4F98C
:10D068004DA3D3E9002306460F4620462946FFF77D
:10D07800CBF922462B46FFF7C7F902460B46304646
:10D088003946FFF709F846A3D3E9002306460F46B9
:10D0980020462946FFF7B8F902460B46304639467E
:10D0A800FEF7FCFF0022504BFFF7AEF9FFF7A4FC98
:10D0B8004E4C4F4D2060FFF74FF93BA3D3E90023B7
:10D0C800FFF7CCFAFFF798FC286001F047FC4949C4
:10D0D80001F01AF901F042FC94ED000A022101F076
:10D0E80017FA01F03BFC444901F021F9434908A82B
:10D0F80001F0D9FA94ED000A022104A801F00CFB12
:10D1080004A908A801F039FB3B4901F042FB3C4C5B
:10D118000022237801688DF8003002A83C2300F033
:10D12800A7FD03A8FFF7EBFE04A801F071FA08A811
:10D1380001F06EFA334908A801F0B5FA95ED000A36
:10D14800022104A801F0E8FA04A908A801F015FBD7
:10D158002D4901F01EFB2378016800228DF800306C
:10D1680002A83C2300F084FD03A8FFF7C8FE04A82A
:10D1780001F04EFA08A801F04BFA0DB0BDEC028B95
:10D18800F0BD00BFAFF300807B14AE47E17A943F57
:10D198003D0AD7A370AD6040EC51B81E85FB6F40C7
:10D1A80085EB51B81ECB8A40A4703D0AD7A319401D
:10D1B8006CAD071078AD0710F4AD07107CAD071003
:10D1C80068AD071074AD071074AE0710F8AD0710FE
:10D1D8003333534000F07F4570AE0710F8AC0710AA
:10D1E800000039400000F03F0000E03F7CAE07102F
:10D1F80078AE071088FD3F0293FD3F0297FD3F027E
:10D2080070AD07109CFD3F02A0FD3F0230B50B201A
:10D218008DB001F048FD044601F0A0FB002C054646
:10D228003BDA2D2101F074F861420A22284601F008
:10D2380088F82846002501F06EF8642340F2DC5295
:10D2480023212046009500F0A1FB0446642000F04D
:10D25800A9FB132C23DC174908A801F024FA0A2299
:10D26800214604A801F045FA04A908A801F085FAA6
:10D27800114B01681B782A468DF8003002A83C2320
:10D2880000F0F6FC03A8FFF73AFE04A801F0C0F985
:10D2980008A801F0BDF90DB030BD2146C5E7A4F1DD
:10D2A80015031C2B01D80549D6E7322CF3DD0449B8
:10D2B800D2E700BFA5FD3F0270AD0710B0FD3F02E9
:10D2C800BCFD3F0208B5FFF733FEBDE80840FFF795
:10D2D8009DBF00000122014B1A70704770AD071006
:10D2E80009B504480068044B03441B685B6C02934F
:10D2F80009BD0000F4AC07103000000009B504486F
:10D308000068044B03441B685B68029309BD000076
:10D31800F4AC07100000000009B504480068044B8D
:10D3280003441B685B69029309BD0000F4AC071055
:10D338000000000009B504480068044B03441B685A
:10D348005B68029309BD0000F4AC071014000000EC
:10D3580009B504480068044B03441B689B680293A2
:10D3680009BD0000F4AC07101400000009B504481A
:10D378000068044B03441B681B6B029309BD000043
:10D38800F4AC07101400000009B504480068044B09
:10D3980003441B681B6A029309BD0000F4AC071024
:10D3A8001000000009B504480068044B03441B68DA
:10D3B8005B6A029309BD0000F4AC0710100000007E
:10D3C80009B504480068044B03441B689B6A029330
:10D3D80009BD0000F4AC07101000000009B50448AE
:10D3E8000068044B03441B68DB6A029309BD000014
:10D3F800F4AC07101000000009B504480068044B9D
:10D4080003441B681B6B029309BD0000F4AC0710B2
:10D418001000000009B504480068044B03441B6869
:10D428005B6B029309BD0000F4AC0710100000000C
:10D4380009B504480068044B03441B681B6C02933D
:10D4480009BD0000F4AC07101000000009B504483D
:10D458000068044B03441B685B69029309BD000024
:10D46800F4AC07104C00000009B504480068044BF0
:10D4780003441B689B68029309BD0000F4AC0710C5
:10D488005000000009B504480068044B03441B68B9
:10D49800DB68029309BD0000F4AC071050000000DF
:10D4A80009B504480068044B03441B68DB69029310
:10D4B80009BD0000F4AC07101800000009B50448C5
:10D4C8000068044B03441B681B6A029309BD0000F3
:10D4D800F4AC07101800000009B504480068044BB4
:10D4E80003441B68DB68029309BD0000F4AC071015
:10D4F8002400000009B504480068044B03441B6875
:10D508001B69029309BD0000F4AC07102400000059
:10D5180009B504480068044B03441B685B6902931F
:10D5280009BD0000F4AC07102400000009B5044848
:10D538000068044B03441B689B69029309BD000003
:10D54800F4AC07102400000009B504480068044B37
:10D5580003441B68DB69029309BD0000F4AC0710A3
:10D568002400000009B504480068044B03441B6804
:10D578001B6A029309BD0000F4AC071024000000E8
:10D5880009B504480068044B03441B689B6A02936E
:10D5980009BD0000F4AC07102400000009B50448D8
:10D5A8000068044B03441B681B6C029309BD000010
:10D5B800F4AC07102400000009B504480068044BC7
:10D5C80003441B681B68029309BD0000F4AC0710F4
:10D5D8003400000009B504480068044B03441B6884
:10D5E8005B68029309BD0000F4AC0710340000002A
:10D5F80009B504480068044B03441B681B6902937F
:10D6080009BD0000F4AC07103400000009B5044857
:10D618000068044B03441B685B69029309BD000062
:10D62800F4AC07103400000009B504480068044B46
:10D6380003441B689B69029309BD0000F4AC071002
:10D648003400000009B504480068044B03441B6813
:10D65800DB69029309BD0000F4AC07103400000038
:10D6680009B504480068044B03441B681B6A02930D
:10D6780009BD0000F4AC07103400000009B50448E7
:10D688000068044B03441B685B68029309BD0000F3
:10D69800F4AC07100800000009B504480068044B02
:10D6A80003441B685B69029309BD0000F4AC0710D2
:10D6B8000800000009B504480068044B03441B68CF
:10D6C800DB6C029309BD0000F4AC071008000000F1
:10D6D80009B504480068044B03441B685B6D02935A
:10D6E80009BD0000F4AC07100800000009B50448A3
:10D6F8000068044B03441B68D3F88830029309BDC3
:10D70800F4AC07100800000009B504480068044B91
:10D7180003441B68D3F89430029309BDF4AC071096
:10D728000800000009B504480068044B03441B685E
:10D738005B69029309BD0000F4AC07102C000000DF
:10D7480009B504480068044B03441B681B6A02932C
:10D7580009BD0000F4AC07102C00000009B504480E
:10D768000068044B03441B68DB6B029309BD00008F
:10D77800F4AC07102C00000009B504480068044BFD
:10D7880003441B685B68029309BD0000F4AC0710F2
:10D798002800000009B504480068044B03441B68CE
:10D7A8009B68029309BD0000F4AC07102800000034
:10D7B80009B504480068044B03441B68DB680293FE
:10D7C80009BD0000F4AC07102800000009B50448A2
:10D7D8000068044B03441B681B69029309BD0000E1
:10D7E800F4AC07102800000009B504480068044B91
:10D7F80003441B685B69029309BD0000F4AC071081
:10D808002800000009B504480068044B03441B685D
:10D818009B69029309BD0000F4AC071028000000C2
:10D8280009B504480068044B03441B68DB6902938C
:10D8380009BD0000F4AC07102800000009B5044831
:10D848000068044B03441B681B6A029309BD00006F
:10D85800F4AC07102800000009B504480068044B20
:10D8680003441B681B6B029309BD0000F4AC07104E
:10D878002800000009B504480068044B03441B68ED
:10D888005B6B029309BD0000F4AC07102800000090
:10D8980009B504480068044B03441B681B6C0293D9
:10D8A80009BD0000F4AC07102800000009B50448C1
:10D8B8000068044B03441B685B6C029309BD0000BD
:10D8C800F4AC07102800000009B504480068044BB0
:10D8D80003441B681B68029309BD0000F4AC0710E1
:10D8E8000400000009B504480068044B03441B68A1
:10D8F8005B68029309BD0000F4AC07100400000047
:10D9080009B504480068044B03441B689B680293EC
:10D9180009BD0000F4AC07100400000009B5044874
:10D928000068044B03441B68DB6A029309BD0000CE
:10D93800F4AC07100400000009B504480068044B63
:10D9480003441B681B6B029309BD0000F4AC07106D
:10D958000400000009B504480068044B03441B6830
:10D968001B6C029309BD0000F4AC07100400000012
:10D9780009B504480068044B03441B685B6C0293B8
:10D9880009BD0000F4AC0710040000008A4210B57D
:10D9980007D0441A0298C01A4443501A94FBF0F076
:10D9A800184410BD0021FFF777BE10B58368044600
:10D9B8000BB901F08BFAC3689847A3681BB103221F
:10D9C8002146204698472046BDE810401021FFF721
:10D9D8003ABA10B58368044613B103220146984742
:10D9E800204610BD13B56C460B460246D0E900012F
:10D9F80084E8030093E8030082E8030094E8030046
:10DA080083E8030002B010BD002302480360FFF75B
:10DA180067BC00BF80AE071070470020704710B584
:10DA280004461021FFF70FFA204610BD08B5FFF78E
:10DA3800F6FF08BD002230B54FF69C740260848062
:10DA48008D888C800C68858004600A6030BD10B5B4
:10DA580004460068FFF746FF204610BD38B5C46885
:10DA680014B32378DBB2022B03D104F10C00FFF7C7
:10DA7800EEFF231D1D6835B12846FFF7AAFF1021C8
:10DA88002846FFF7E0F904F108031D6835B1284678
:10DA9800FFF79FFF10212846FFF7D5F92046BDE87C
:10DAA80038401421FFF7CFB938BD0B6803604B68C5
:10DAB800436013B15A6801325A60704737B504465B
:10DAC80068460D46FFF7F1FF009B019A236000238B
:10DAD800626001A801930093FFF711FA35B1281D80
:10DAE800FFF70DFA08212846FFF7ADF9204603B0E5
:10DAF80030BD826810B50AB901F0E8F9C368BDE81D
:10DB08001040184708B5006800F11001FFF7F1FF51
:10DB180008BD826810B50AB901F0D8F9C368BDE834
:10DB28001040184708B5006800F11001FFF7F1FF31
:10DB380008BD000038B500230446036010200D46D8
:10DB4800FFF77DF928B10123C0E90133024BC56015
:10DB580003602060204638BDD0FD3F0238B5002361
:10DB680083608B6804460D462BB102229847EB6808
:10DB7800E360AB68A360204638BD0000F0B589B00B
:10DB880004686846FFF756FF4FF00203D4E84F2FAA
:10DB9800002A03D1C4E8413F0029F7D121D104F17B
:10DBA8000C0569462846FFF745FF0122631CC3E8B8
:10DBB8008F2F002004F10803D3E8EF6FC3E8E20FCA
:10DBC800002AF9D16EB1FFF775FD78B129463046C4
:10DBD800FFF78FFF3046FFF7FCFE10213046FFF7B6
:10DBE80032F96846FFF733FF09B0F0BD314602A8A5
:10DBF800FFF7B4FFE068B4F9105008B101F0BAF9C2
:10DC080006901020ADF81C50FFF719F90546E8B149
:10DC1800002787601820FFF712F9044688B10146EB
:10DC2800876002A8FFF7DEFE049BA268A360059B3D
:10DC38000492E26806A9E36004F110000592FFF778
:10DC4800F9FE084B2C60EB60074BAB6006A8FFF7AA
:10DC5800FEFE02A8FFF7BDFE002229460348FFF793
:10DC680037FDB7E7FDE73F0279EA3F02A3E63F0247
:10DC78002DE9F04F8BB005460F46904699469DF822
:10DC880050A0FFF74FFD07AE834638BB4FF62E7303
:10DC9800059005A93046ADF81830FFF7CBFE1420E3
:10DCA800FFF7CDF8044648B1022303700123C0E909
:10DCB80001BB437031460C30FFF7BCFE28462146B5
:10DCC80040F8044BFFF736FF3046FFF7C0FE05A8C3
:10DCD800FFF7BDFE28460BB0BDE8F08F0C230024EB
:10DCE8001420CDE908440793FFF7A9F8014618B1B5
:10DCF800C0E901440470447004A80391FFF71AFFB7
:10DD08001E4B08200893FFF79AF8044610B103A9A0
:10DD1800FFF7CBFE4A464146384600965FFA8AF33B
:10DD28000994FFF70DFDB8B9039B01331B78DBB2EB
:10DD380093B905934FF69C7305A903A8ADF818305D
:10DD4800FFF71CFF05A8FFF782FE05A80999FFF752
:10DD5800B5FE06A8FFF7D3F803A905A8FFF7A5FEA7
:10DD6800059B069A2B6000236A6006A80693059314
:10DD7800FFF7C5F804A8FFF7C2F8ABE7F5EA3F02DA
:10DD8800012AF8B5054603D10B6803600020F8BDE9
:10DD9800022A10D0032AF9D10468002CF6D004F125
:10DDA8001000FFF754FE2046FFF713FE1821204607
:10DDB800FFF749F8EAE718200E68FFF740F804462D
:10DDC80050B13146FFF7CAFE3069B6F9147008B190
:10DDD80001F0D0F82061A7822C60D7E738B500237E
:10DDE80083608B6804460D462BB102229847EB6886
:10DDF800E360AB68A360204638BD0000F0B5044678
:10DE080089B00D4601A81146FFF758FEA4B124B207
:10DE18001DB1284601F0AEF8054601A803A90395EF
:10DE2800ADF81040FFF7AAFE03A8FFF710FE02A8FE
:10DE3800FFF765F809B0F0BD0123019DD5E84F2F24
:10DE4800002A03D1C5E8413F0029F7D1EFD12B7350
:10DE58000122EB18C3E88F2F2B1DD3E8EF6FC3E81F
:10DE6800E24F002AF9D1002EE1D02046FFF722FC2C
:10DE7800074660B1304605F10C01FFF74AFE30460F
:10DE8800FFF7A7FD10213046FEF7DDFFCFE731464B
:10DE980003A8FFF7A3FF2B7B10208DF81C30FEF79B
:10DEA800CEFF0546D0B187601420FEF7C8FF0446B0
:10DEB80078B10146876003A8FFF794FD059BA26827
:10DEC800A360069B0592E268E3609DF81C30069209
:10DED8002374074B2C60EB60064BAB6003A8FFF77D
:10DEE80078FD002229460448FFF7F2FBC7E700BF88
:10DEF8001DE83F02F5EB3F02A3E63F02012A70B599
:10DF0800044603D10B680360002070BD022A0CD0C0
:10DF1800032AF9D10468002CF6D02046FFF759FDF2
:10DF280014212046FEF78FFFEEE714200E68FEF757
:10DF380086FF054620B13146FFF750FF337C2B742E
:10DF48002560E1E7002240681146FFF777BC002210
:10DF580040681146FFF78EBC00224068FFF77CBC82
:10DF68000022406881F00101FFF75ABC0023406895
:10DF78001A461946FFF746BC002340681A46194658
:10DF8800FFF732BC002240681146FFF71FBC002291
:10DF980040681146FFF7FEBB002202214068FFF7E8
:10DFA80007BC002340681A46FFF7E6BB0322024B72
:10DFB8005A60024A1A60704784AE0710ECFD3F02AF
:10DFC8007047F8B5064615460C468F18BC4206D071
:10DFD800336830469B6814F8011B9847F6E72846D3
:10DFE800F8BD0022007CFFF7CFB90021007CFFF7C5
:10DFF800D9B90021007CFFF7E3B90021007CFFF7C5
:10E00800EDB90021007CFFF7F7B910B504461421DB
:10E01800FEF719FF204610BD38B5044615464FF4E3
:10E028007A730022C4E90123094B0846217423604E
:10E038002946FFF7FDF9BF3008D16B69DB0705D525
:10E048006868FFF74FFCE868FFF74CFC204638BDCE
:10E0580028FE3F02704710B504461821FEF7F3FE6C
:10E06800204610BDF0B5037D0E46062B4FF0000488
:10E078008DB000F1040712D000F1080515F8011D54
:10E088000A22304600F05DF9AF42044419D0002C52
:10E09800F4D02E21304600F03BF90444EEE72F235C
:10E0A8006A4639460A208DF80040FFF7CFF96846DE
:10E0B800FEF7A0FE3368024669463046DB6898479B
:10E0C800044620460DB0F0BD10B50446044B11229D
:10E0D800002140F8043B00F00FFF204610BD00BFB0
:10E0E80050FE3F020346074A10B543F8042B01F1DE
:10E0F800100251F8044B914243F8044BF9D10A78C5
:10E108001A7010BD50FE3F0210B59DF8084044EA51
:10E11800032343EA0242042342EA01614160037592
:10E1280010BD000007B5064B0360CB7800938B78D1
:10E138004A780978FFF7E8FF03B05DF804FB00BFF1
:10E1480050FE3F02014B024A1A6070478CAE07101E
:10E158005CFE3F02002340681A46FFF70DBB002211
:10E1680002214068FFF724BB002240681146FFF7F0
:10E1780011BB002240681146FFF728BB0023406806
:10E188001A461946FFF730BB002340681A4619465D
:10E19800FFF738BB00214068FFF77ABB00214068D1
:10E1A800FFF784BB0022406881F00101FFF738BB0C
:10E1B80000224068FFF750BB002240681146FFF775
:10E1C80059BB002240681146FFF738BB2DE9F043E0
:10E1D80095B014460D460746FFF776FF00211C222E
:10E1E8000DA8009100F088FE402320460C930021E2
:10E1F8006B460CAAFFF746F9044600284BD10246A5
:10E2080001216868FFF7E2FA022180462246686821
:10E21800FFF7DCFA21468146009E002E3BD00029FC
:10E2280039D17368022B03D00A2B11D0F669F4E7B1
:10E23800B8F1000FFAD0716906A804313C1D07AD8A
:10E24800FFF770FF0FCD0FC42B6841462370EDE731
:10E25800B9F1000FEAD0102201A8746900F04CFE51
:10E26800062301AD8DF8143004F1080318342A464A
:10E2780018685968083303C2A3421546F7D101A9A3
:10E2880006A83C1D07ADFFF72DFF0FCD0FC42B6867
:10E2980049462370CAE70098FFF7E6F8384615B0F4
:10E2A800BDE8F083024B034A1A6000225A607047A7
:10E2B80090AE071068FE3F02F8B506460D460024EA
:10E2C8008F18BD420CD0336830469B6815F8011B87
:10E2D8009847031E01DB1C44F3E7002C08BF1C46CB
:10E2E8002046F8BD13B50446084659B10191FEF71A
:10E2F80081FD0246204623680199DB6802B0BDE82B
:10E308001040184702B010BD08B5FFF7EBFF08BD75
:10E3180003689B68184738B50D210546FFF7F8FFD5
:10E328000A2104462846FFF7F3FF204438BD38B5D4
:10E338000546FFF7D7FF04462846FFF7ECFF2044C1
:10E3480038BD0023012A98BF0A2230B58BB08DF85A
:10E35800243009AC0D46B1FBF2F101FB125303F076
:10E36800FF03092B94BF30333733DBB2AA4204F8DA
:10E37800013DEFD92146FFF7B5FF0BB030BD0000D6
:10E388002DE9F74F55EC104B06460F4610EE102AB4
:10E398002B4610EE100A2946FEF7D0FA40B1534931
:10E3A8003046FFF79FFF8246504603B0BDE8F08F26
:10E3B80025F000494FF0FF32204649464C4BFEF706
:10E3C800BDFA48B94FF0FF3220464946484BFEF7A0
:10E3D80097FA08B94749E3E74FF0604220462946D3
:10E3E800454BFEF7A1FA08B14449D9E74FF060421E
:10E3F80020462946424BFEF779FA0028F4D100223C
:10E40800002320462946FEF771FAD0B12D21304667
:10E41800FFF77EFF05F1004382461D464FF0000BD3
:10E4280000204FF000083749DFF8E0905FFA8BF3DF
:10E438009F4208D942464B46FEF710F90BF1010BF3
:10E44800F4E78246EAE722462B46FDF727FE0D460B
:10E458000446FEF7B1FA8046FDF75CFF02460B461C
:10E4680020462946FDF718FE0A2204460D46304686
:10E478004146FFF766FF8244002F95D03046224977
:10E48800FFF730FF4FF00008DFF880908244002F3C
:10E498008AD042464B4620462946FDF7B5FF04463A
:10E4A8000D46FEF761FAB0F1000B1CDA2D2130465B
:10E4B800FFF72EFF0346CBF100010A2230460193F5
:10E4C800FFF73FFF019B013F184482445846FDF780
:10E4D80031FF02460B4620462946FDF7DDFDFFB217
:10E4E80004460D46D3E759460023E6E79CFE3F0263
:10E4F800FFFFEF7FA0FE3F02FFFFEF41A4FE3F02B8
:10E50800FFFFEFC10000E03FA8FE3F0200002440EB
:10E5180038B5044610EE100ACDB2FDF71DFF41ECE8
:10E52800100B29462046BDE83840FFF729BF0000F8
:10E538000022014B9A60704798AE071010B5044648
:10E5480008462170FEF7ACFF00232046636010BD2B
:10E558002DE9F14F57EC106B80460C460022002342
:10E5680010EE100A3946FEF7C1F928B107F1004349
:10E578001F462D2304F8013B00234FF001090A220E
:10E58800D9B2884503D902FB09F90133F8E74846AF
:10E59800FDF7D0FE32463B46FDF736FF06460F46EE
:10E5A800FEF792FA8A4605468B46FDF7F7FE0246C5
:10E5B8000B4630463946FDF76FFD0022134BFEF738
:10E5C800A9F910B101354AF1000B4A4628465946C7
:10E5D800D317FEF761FA0123154621460A2200F0F7
:10E5E80030FAB8F1000F0ED02046FEF703FC2E23B8
:10E5F800211823540A2243462846013101B0BDE8B8
:10E60800F04F00F01EBA01B0BDE8F08F0000E03F07
:10E6180010B504460068FFF765F9204610BD10B52F
:10E628000446006808B1FFF75DF90023C4E9013327
:10E63800236010BD38B504460D4600680131FFF768
:10E648005FF910B1C4E90005012038BD10B50368B1
:10E65800044623B143688B4201D3012010BD2046F4
:10E66800FFF7E8FF0028F9D0A368002BF5D122684E
:10E678001370F2E737B50D46114601920446FFF7CD
:10E68800E5FF019A28B92046FFF7C9FF204603B0E5
:10E6980030BD2946A260206800F021FC00212268D4
:10E6A800A368D154F2E7002313B50446C0E9003348
:10E6B8008360037341B108460191FEF79BFB019902
:10E6C80002462046FFF7D6FF204602B010BD13B51C
:10E6D800044659B108460191FEF78CFB01990246A0
:10E6E8002046FFF7C7FF204602B010BDFFF797FF8F
:10E6F800F9E710B5002304468AB0C4E90033A360E3
:10E708002373084601A900F0C1F9204601A9FFF7C3
:10E71800DEFF20460AB010BD30B5002304468BB09A
:10E72800C4E90033A360237310EE100ACDB2FDF7DD
:10E7380013FE41EC100B284601A9FFF709FF2046FC
:10E7480001A9FFF7C4FF20460BB030BD70B50546E0
:10E758000E4609B9002070BD6AB184681444214688
:10E76800FFF774FF0028F5D02868AB6831461844D5
:10E7780000F0F8FBAC600120EDE710B58A68096885
:10E788000446FFF7E3FF10B92046FFF748FF20468D
:10E7980010BD13B5044629B92046FFF740FF2046AF
:10E7A80002B010BD08460191FEF724FB019902460C
:10E7B8002046FFF7CBFF0028EED0F0E7022200202A
:10E7C800044B1A60044B054AC3E900009A60FEF73F
:10E7D80055BF00BFB4AE0710A8AE07100000FFFF7A
:10E7E800024B1A68024B1A60704700BFFCAC071056
:10E7F800B8AE071070474174704708B5007CFEF743
:10E80800BFFE20EAE07008BD08B5007CFEF772FE86
:10E8180020EAE07008BD08B5007CFEF787FE40EAF4
:10E82800E07008BD08B5007CFEF772FE40EAE070B3
:10E8380008BD007CFEF788BE37B5457C04462DB17F
:10E84800207C03B0BDE83040FEF746BE007C019155
:10E85800FEF796FE00280199F2DC284603B030BD89
:10E8680010B504461421FEF7EEFA204610BD00004C
:10E8780010B54FF47A730446084611460022C4E9DD
:10E888000123044B2074236001236374FEF786FE82
:10E89800204610BDD0FE3F02007CFEF763BE4174E7
:10E8A80070477047704708B50021007CFEF7BCFE32
:10E8B80040EAE07008BD08B50121007CFEF7B4FE0F
:10E8C80040EAE07008BD08B5007CFEF79FFE20EA2C
:10E8D800E07008BD08B5007CFEF78AFE20EAE0700B
:10E8E80008BD13B50446007C0191FEF78FFE002891
:10E8F800019901DC607C20B1207CFEF7A3FE20EAB0
:10E90800E07002B010BD007CFEF7AABE10B5044648
:10E918001421FEF798FA204610BD000010B54FF4F8
:10E928007A73044608460021C4E90113044B207495
:10E938002360012311466374FEF73EFE204610BD96
:10E9480000FF3F020022007CFEF744BE10B50446DB
:10E958001422002100F0D0FA204610BD10B588B06E
:10E9680003A8FFF7F3FF0C4CD4E88F1F11F0010147
:10E978000FD120460191FEF768FA019948B103AA20
:10E988000648FFF7CBFF2046FEF764FA044800F07C
:10E99800A0FA024808B010BDBCAE0710C0AE071000
:10E9A8009BF53F02002240681146FEF70FBF002288
:10E9B80040681146FEF742BF002240681146FEF744
:10E9C80059BF00224068FEF747BF0022406881F027
:10E9D8000101FEF725BF002340681A461946FEF7D5
:10E9E80011BF002340681A461946FEF7FDBE0022F3
:10E9F80040681146FEF7CEBE002202214068FEF7AD
:10EA0800D7BE002340681A46FEF7B6BE0422024B62
:10EA18005A60024A1A607047D4AE071030FF3F02AE
:10EA280010B50446FEF7E6F901382318204683425C
:10EA380006D90278197800F8011B03F80129F6E7CE
:10EA480010BD70B50C46911E22291DD8254630B937
:10EA5800302223449D4210D205F8012BFAE7B0FB7F
:10EA6800F2F602FB1600C1B2092894BF30315731C3
:10EA7800C9B2304605F8011BE9E7002320462B7090
:10EA8800FFF7CEFF204670BD0020FCE738B5031E17
:10EA98000C4615460DDA2D22B3F1004F0CBF18466F
:10EAA800584201230A702A461944FFF7CAFF204634
:10EAB80038BD0123F9E70000014B1860704700BF1B
:10EAC80000AD071008B50F4B43B1FFF747FF0368C8
:10EAD8001B699847002801DD00E000BF0A4B43B1DD
:10EAE80000F062F903681B699847002801DD00E01F
:10EAF80000BF064B0BB100F09DF9054B0BB100F0C0
:10EB0800CFF908BD00000000000000000000000070
:10EB18000000000008B5FFF7D5FFFEF7FDFB014B2D
:10EB2800186008BDF0AE07100548064A08B5121A65
:10EB3800054900F0D4F9054B054A1A6008BD00BF25
:10EB480000B4071004B4071080F35F0800B407107E
:10EB58001E1C279A002307B51A466FF07701009309
:10EB6800FEF7D2FD03B05DF804FB000007B543884B
:10EB78000A2B08D0502B0BD1094B1B684BB103B0A3
:10EB88005DF804EB1847FFF7E5FF03B05DF804FBF9
:10EB980000231A466FF077010093FEF7B5FDF4E7FE
:10EBA800E0AE0710002110B51148FEF7E1FE114B49
:10EBB8001A68114B9A420CBF012200220F4B1A709F
:10EBC80001D0FFF7B1FFFEF799FB044600F09CF96E
:10EBD8000B4B13B1204600E000BF00210848FEF7A8
:10EBE800BDFDBDE8104000210648FEF77FBD00BF0F
:10EBF800B1F73F0200B407101E1C279ADCAE0710BD
:10EC08000000000065F83F021B2837B5044602D90A
:10EC1800002003B030BDA0F10F03022B0BD901284F
:10EC280021D800F06DF80021007CFEF7F3FB80F09E
:10EC38000100C0B2EDE7114DD5E88F1F11F00101B9
:10EC48000BD128460191FEF700F9019928B10C482B
:10EC5800FFF774FC2846FEF7FDF8094B1878FEF715
:10EC68002DFC0028D4D1083C012C05D800F09CF8D4
:10EC7800007CFEF777FCDAE70120CAE7E4AE07106C
:10EC8800E8AE07101B2838B504460D460AD8FF29F8
:10EC980008D0FFF7B9FF28B129462046BDE838401B
:10ECA800FEF756BB38BD10B50446FFF7ADFF50B1AF
:10ECB80003212046FEF73EFB032804D12046BDE889
:10ECC8001040FEF753BB002010BD704738B50A4B03
:10ECD80004460360012309494361202000F0F4F849
:10ECE8002025606005492846A56000F0EDF8C4E9D4
:10ECF8000305204638BD00BF1800010064FF3F022D
:10ED080030B50E4D87B0D5E88F1F11F0010411D131
:10ED18002846FEF79AF868B16846FFF7D7FF6A46B3
:10ED280021460748FFF778F92846FEF793F8054883
:10ED380000F0CFF8024807B030BD00BFF4AE0710AE
:10ED4800F8AE0710C3F93F027047000038B5142524
:10ED580004462A46002100F0CFF8258040250749BF
:10ED680028462581258200F0AFF8044960602846CE
:10ED780000F0AAF8E060204638BD00BF64FF3F02FB
:10ED88007047704710B50446FFF7E0FF204610BDF6
:10ED980010B50446FFF7DAFF204610BD10B504464B
:10EDA800FFF7D4FF204610BD30B50E4D87B0D5E82B
:10EDB8008F1F11F0010411D12846FEF746F868B1FB
:10EDC80001A8FFF7DFFF214601AA0748FFF750FD1A
:10EDD8002846FEF73FF8054800F07BF8024807B0E0
:10EDE80030BD00BF0CAF071018AF071041FA3F0243
:10EDF80010B50D4C86B0D4E88F3FDB0711D4204600
:10EE0800FEF723F868B101A8FFF7C2FF012101AAA4
:10EE18000648FFF72DFD2046FEF71CF8044800F0D1
:10EE280058F8024806B010BD10AF07102CAF0710F5
:10EE38007BFA3F0210B5FFF7DBFF074B044653B1DF
:10EE4800FFF72AFD38B1236820461B699847002838
:10EE580001DD00E000BF10BD0000000010B50D4C42
:10EE680086B0D4E88F3FDB0711D42046FDF7EDFFCD
:10EE780068B101A8FFF792FF022101AA0648FFF72F
:10EE8800F7FC2046FDF7E6FF044800F022F80248A8
:10EE980006B010BD14AF071040AF071079FA3F0253
:10EEA80010B5FFF7DBFF074B044653B1FFF7F4FC3F
:10EEB80038B1236820461B699847002801DD00E027
:10EEC80000BF10BD00000000FDF7BBBF08B5FEF78E
:10EED80025FD002301461A46184600F069B80A4481
:10EEE800431E914200D1704710B511F8014B914271
:10EEF80003F8014FF9D110BD02440346934200D1F3
:10EF0800704703F8011BF9E738B5104B04461D6834
:10EF1800AB6BB3B91820FEF7D7FC0246A86320B93B
:10EF28000B4B42210B48FEF715FD0B490B4BC0E973
:10EF380000130B4B002183600B2383810120C2E95E
:10EF48000401AB6B00221C615A6138BD00AD07108B
:10EF580065FF3F027CFF3F020E33CDAB34126DE6F6
:10EF6800ECDE0500034611F8012B03F8012B002AFB
:10EF7800F9D17047024B0146186800F003B800BF8A
:10EF880000AD071037B5044608460D46FDF732FFB9
:10EF9800421C204611460192FEF7CEFC044618B1E9
:10EFA800019A2946FFF79BFF204603B030BD0000B9
:10EFB8002DE9F843DFF8BC8006461F460D46D8F811
:10EFC8000000914600F058F8264B1C6834B9264CCE
:10EFD8001C60264B13B11B68C4F8883063681F2B6C
:10EFE80007DDD8F8000000F049F84FF0FF30BDE821
:10EFF800F8835EB3D4F8880088B91D4B23B9D8F8D4
:10F00800000000F03AF8F0E74FF48470FEF75CFC7B
:10F018000028F4D00023C0E94033C4F888006368AE
:10F028000122022E40F8239002FA03F200EB83013A
:10F03800D0F8003143EA0203C0F80031C1F880700B
:10F0480002BFD0F804311343C0F804316368D8F81C
:10F0580000005A1C0233626044F8235000F00EF896
:10F068000020C4E7E0AF071054AF0710000000000D
:10F07800C1E53F0264AD0710704770477047000054
:10F08800FDDA3F0225DB3F0229DB3F0200000000DA
:10F098005444532056616C75653A0070706D005485
:10F0A80044533A0045433A006D532F6D0069747319
:10F0B80020434C454152200069747320434C6F55DE
:10F0C800445920006974732044695254592000003F
:10F0D800000000000000000011E73F0217E73F02B0
:10F0E80055E73F0225E73F0213E73F020000000013
:10F0F800000000009BEC3F0291EC3F0287EC3F02CE
:10F108007DEC3F0271EC3F0265EC3F028DEE3F0261
:10F1180095EE3F0259EC3F0251EC3F0247EC3F02AB
:10F128003DEC3F02C5EE3F02000000000000000079
:10F13800B9EC3F0203ED3F02DBEC3F02BBEC3F02C0
:10F14800E3EC3F02EBEC3F02F3EC3F02FBEC3F0247
:10F1580000000000000000005DED3F024DED3F02A1
:10F168004FED3F02617070000000000000000000D9
:10F178004DEE3F0257EE3F0261EE3F026BEE3F025B
:10F1880075EE3F0281EE3F028DEE3F0295EE3F02A3
:10F198009DEE3F02A9EE3F02B1EE3F02BBEE3F02F9
:10F1A800C5EE3F026E616E00696E66006F7666009E
:10F1B8002E0025592D256D2D25645425483A254DB9
:10F1C8003A2553257A0061736374696D6500000000
:10F1D8000000000000000000EDF43F0259F53F0276
:10F1E80031F53F02B1EF3F0201F53F021DF53F0245
:10F1F8000FF53F022BF53F02EFF43F02F3F43F0215
:10F2080000000000000000009DF53F0205F63F02E7
:10F21800DBF53F02B1EF3F02CDF53F029FF53F021C
:10F22800AFF53F02FFF53F02BFF53F0297F53F02FA
:10F238000000000000000000FBF63F02F1F63F026C
:10F24800E7F63F029DF63F02DBF63F02CFF63F02AC
:10F258008DEE3F0295EE3F02C3F63F02BBF63F023A
:10F26800B1F63F02A7F63F02C5EE3F020052454500
:10F278004E54206D616C6C6F6320737563636565B4
:10F28800646564002F746D702F6A656E6B696E73A8
:10F298002D4743432D31302D706970656C696E655B
:10F2A8002D34385F32303230313132345F313630DC
:10F2B800363138303633392F7372632F6E65776C79
:10F2C80069622F6E65776C69622F6C6962632F7350
:10F2D80074646C69622F72616E642E6300000000B2
:10F2E800CDDF3F0201E73F02A5EC3F023DEE3F02C2
:10F2F8009DEF3F0229F23F02B5F43F02D9F43F02E5
:04F3080005F73F02C4
:10F30C000000000219000000BEFE3F0204AD071011
:10F31C0000000000000000000000000000000000E1
:10F32C0000000000000000000000000000000000D1
:10F33C0000000000000000000000000000000000C1
:10F34C0000000000000000000000000000000000B1
:10F35C0000000000000000000000000000000000A1
:10F36C000000000000000000000000000000000091
:04F37C00E4AF0710E3
:04F380000000000089
:10FFBE000200100000C05F0890C05F0880CD3F02B5
:10FFCE0001000A00FFFFFFFFFFFF00000102030414
:10FFDE0005060708090A0B0C0D0E0F10111213144B
:0EFFEE0015161718191A1B1C1D1E1F203E0089
:04FFFC0078563412ED
:04000005085FC018B8
:00000001FF
