:02000004085F93
:10D0000000D05F08FCFF5F0800000600200005015B
:08D010000401B514000000004A
:10D018000E480F4908B5884205D00E4A824202D010
:10D028000D4B121A98470D480D4A00210D4B121A44
:10D0380098470D480D49884205D00D4A824202D0D2
:10D04800054B121A9847014808BD00BFF8AC0710F5
:10D0580050F55F086CAD07102D0D11106CAD071061
:10D06800E8AF0710A10E111030DB3F0288D05F082F
:0CD07800F8FF3F0219D05F080000000024
:08D088007CD05F089CFD3F0213
:10D0900081F0004102E000BF83F0004330B54FEA69
:10D0A00041044FEA430594EA050F08BF90EA020FD6
:10D0B0001FBF54EA000C55EA020C7FEA645C7FEA69
:10D0C000655C00F0E2804FEA5454D4EB5555B8BF8C
:10D0D0006D420CDD2C4480EA020281EA030382EAFD
:10D0E000000083EA010180EA020281EA0303362D8F
:10D0F00088BF30BD11F0004F4FEA01314FF4801C62
:10D100004CEA113102D0404261EB410113F0004F73
:10D110004FEA03334CEA133302D0524263EB43032A
:10D1200094EA050F00F0A780A4F10104D5F1200EC8
:10D130000DDB02FA0EFC22FA05F2801841F1000123
:10D1400003FA0EF2801843FA05F359410EE0A5F1F7
:10D1500020050EF1200E012A03FA0EFC28BF4CF028
:10D16000020C43FA05F3C01851EBE37101F00045DE
:10D1700007D54FF0000EDCF1000C7EEB00006EEBEB
:10D180000101B1F5801F1BD3B1F5001F0CD3490875
:10D190005FEA30004FEA3C0C04F101044FEA4452CC
:10D1A00012F5800F80F09A80BCF1004F08BF5FEA53
:10D1B000500C50F1000041EB045141EA050130BD33
:10D1C0005FEA4C0C404141EB0101013C28BFB1F545
:10D1D000801FE9D291F0000F04BF01460020B1FA90
:10D1E00081F308BF2033A3F10B03B3F120020CDA63
:10D1F0000C3208DD02F1140CC2F10C0201FA0CF041
:10D2000021FA02F10CE002F11402D8BFC2F1200CA5
:10D2100001FA02F120FA0CFCDCBF41EA0C0190405B
:10D22000E41AA2BF01EB0451294330BD6FEA0404A4
:10D230001F3C1CDA0C340EDC04F11404C4F120028F
:10D2400020FA04F001FA02F340EA030021FA04F3A1
:10D2500045EA030130BDC4F10C04C4F1200220FAF8
:10D2600002F001FA04F340EA0300294630BD21FA36
:10D2700004F0294630BD94F0000F83F4801306BFFC
:10D2800081F480110134013D4EE77FEA645C18BFF0
:10D290007FEA655C29D094EA050F08BF90EA020F87
:10D2A00005D054EA000C04BF1946104630BD91EA7F
:10D2B000030F1EBF0021002030BD5FEA545C05D182
:10D2C0004000494128BF41F0004130BD14F58004C1
:10D2D0003CBF01F5801130BD01F0004545F0FE4135
:10D2E00041F470014FF0000030BD7FEA645C1ABF6A
:10D2F000194610467FEA655C1CBF0B46024650EAA1
:10D30000013406BF52EA033591EA030F41F40021CC
:10D3100030BD00BF90F0000F04BF0021704730B552
:10D320004FF4806404F132044FF000054FF0000127
:10D3300050E700BF90F0000F04BF0021704730B5E8
:10D340004FF4806404F1320410F0004548BF4042BD
:10D350004FF000013EE700BF42004FEAE2014FEA12
:10D3600031014FEA02701FBF12F07F4393F07F4FED
:10D3700081F06051704732F07F4208BF704793F0F0
:10D380007F4F04BF41F40021704730B54FF4607403
:10D3900001F0004521F000411CE700BF50EA010206
:10D3A00008BF704730B54FF000050AE050EA0102AF
:10D3B00008BF704730B511F0004502D5404261EB1F
:10D3C00041014FF4806404F132045FEA915C3FF460
:10D3D000D8AE4FF003025FEADC0C18BF03325FEAFD
:10D3E000DC0C18BF033202EBDC02C2F1200300FAAE
:10D3F00003FC20FA02F001FA03FE40EA0E0021FAD3
:10D4000002F11444BDE600BF70B54FF0FF0C4CF4C0
:10D41000E06C1CEA11541DBF1CEA135594EA0C0F72
:10D4200095EA0C0F00F0DEF82C4481EA030621EAAD
:10D430004C5123EA4C5350EA013518BF52EA0335E8
:10D4400041F4801143F4801338D0A0FB02CE4FF09A
:10D450000005E1FB02E506F00042E0FB03E54FF0CA
:10D460000006E1FB03569CF0000F18BF4EF0010EC2
:10D47000A4F1FF04B6F5007F64F5407404D25FEABE
:10D480004E0E6D4146EB060642EAC62141EA555171
:10D490004FEAC52040EA5E504FEACE2EB4F1FD0CB3
:10D4A00088BFBCF5E06F1ED8BEF1004F08BF5FEA31
:10D4B000500E50F1000041EB045170BD06F00046E3
:10D4C00046EA010140EA020081EA0301B4EB5C0490
:10D4D000C2BFD4EB0C0541EA045170BD41F4801188
:10D4E0004FF0000E013C00F3AB8014F1360FDEBFAD
:10D4F000002001F0004170BDC4F10004203C35DA89
:10D500000C341BDC04F11404C4F1200500FA05F30B
:10D5100020FA04F001FA05F240EA020001F00042AC
:10D5200021F0004110EBD37021FA04F642EB060122
:10D530005EEA430E08BF20EAD37070BDC4F10C044C
:10D54000C4F1200500FA04F320FA05F001FA04F210
:10D5500040EA020001F0004110EBD37041F10001FC
:10D560005EEA430E08BF20EAD37070BDC4F1200507
:10D5700000FA05F24EEA020E20FA04F301FA05F26F
:10D5800043EA020321FA04F001F0004121FA04F217
:10D5900020EA020000EBD3705EEA430E08BF20EAE7
:10D5A000D37070BD94F0000F0FD101F00046400021
:10D5B00041EB010111F4801F08BF013CF7D041EAA3
:10D5C000060195F0000F18BF704703F000465200A7
:10D5D00043EB030313F4801F08BF013DF7D043EA78
:10D5E0000603704794EA0C0F0CEA135518BF95EA2E
:10D5F0000C0F0CD050EA410618BF52EA4306D1D1B5
:10D6000081EA030101F000414FF0000070BD50EAD3
:10D61000410606BF1046194652EA430619D094EA5D
:10D620000C0F02D150EA013613D195EA0C0F05D147
:10D6300052EA03361CBF104619460AD181EA03019B
:10D6400001F0004141F0FE4141F470014FF0000053
:10D6500070BD41F0FE4141F4780170BD70B54FF0EE
:10D66000FF0C4CF4E06C1CEA11541DBF1CEA13556E
:10D6700094EA0C0F95EA0C0F00F0A7F8A4EB050450
:10D6800081EA030E52EA03354FEA013100F0888047
:10D690004FEA03334FF0805545EA131343EA126310
:10D6A0004FEA022245EA111545EA10654FEA0026C5
:10D6B0000EF000419D4208BF964244F1FD0404F57E
:10D6C000407402D25B084FEA3202B61A65EB0305DA
:10D6D0005B084FEA32024FF480104FF4002CB6EB97
:10D6E000020E75EB030E22BFB61A754640EA0C0017
:10D6F0005B084FEA3202B6EB020E75EB030E22BF57
:10D70000B61A754640EA5C005B084FEA3202B6EB97
:10D71000020E75EB030E22BFB61A754640EA9C0056
:10D720005B084FEA3202B6EB020E75EB030E22BF26
:10D73000B61A754640EADC0055EA060E18D04FEAE4
:10D74000051545EA16754FEA06164FEAC30343EA84
:10D7500052734FEAC2025FEA1C1CC0D111F4801F51
:10D760000BD141EA00014FF000004FF0004CB6E74A
:10D7700011F4801F04BF01430020B4F1FD0C88BFE9
:10D78000BCF5E06F3FF6AFAEB5EB030C04BFB6EBF4
:10D79000020C5FEA500C50F1000041EB045170BDE7
:10D7A0000EF0004E4EEA113114EB5C04C2BFD4EB14
:10D7B0000C0541EA045170BD41F480114FF0000E98
:10D7C000013C90E645EA060E8DE60CEA135594EA14
:10D7D0000C0F08BF95EA0C0F3FF43BAF94EA0C0F17
:10D7E0000AD150EA01347FF434AF95EA0C0F7FF48C
:10D7F00025AF104619462CE795EA0C0F06D152EAE0
:10D8000003353FF4FDAE1046194622E750EA4106C3
:10D8100018BF52EA43067FF4C5AE50EA41047FF4D4
:10D820000DAF52EA43057FF4EBAE12E74FF0FF3C39
:10D8300006E000BF4FF0010C02E000BF4FF0010C0A
:10D840004DF804CD4FEA410C7FEA6C5C4FEA430C83
:10D8500018BF7FEA6C5C1BD001B050EA410C0CBFD2
:10D8600052EA430C91EA030F02BF90EA020F002034
:10D87000704710F1000F91EA030F58BF994208BF9B
:10D8800090422CBFD8176FEAE37040F00100704758
:10D890004FEA410C7FEA6C5C02D150EA013C07D1AF
:10D8A0004FEA430C7FEA6C5CD6D152EA033CD3D0FA
:10D8B0005DF8040B704700BF8446104662468C46F4
:10D8C0001946634600E000BF01B5FFF7B7FF002827
:10D8D00048BF10F1000F01BD4DF808EDFFF7F4FF50
:10D8E0000CBF012000205DF808FB00BF4DF808EDDB
:10D8F000FFF7EAFF34BF012000205DF808FB00BFFE
:10D900004DF808EDFFF7E0FF94BF012000205DF81F
:10D9100008FB00BF4DF808EDFFF7CEFF94BF0120D4
:10D9200000205DF808FB00BF4DF808EDFFF7C4FFCD
:10D9300034BF012000205DF808FB00BF4FEA410C16
:10D940007FEA6C5C02D150EA013C0AD14FEA430CF9
:10D950007FEA6C5C02D152EA033C02D14FF0000036
:10D9600070474FF0010070474FEA410212F5001274
:10D9700015D211D56FF47873B3EB625212D94FEA16
:10D98000C12343F0004343EA505311F0004F23FA00
:10D9900002F018BF404270474FF00000704750EA55
:10D9A000013005D111F0004008BF6FF00040704712
:10D9B0004FF00000704700BF4A0011D212F500126C
:10D9C00011D20DD56FF47873B3EB62520ED44FEAD7
:10D9D000C12343F0004343EA505323FA02F0704757
:10D9E0004FF00000704750EA013002D14FF0FF3095
:10D9F00070474FF0000070474FEA4102B2F1E04338
:10DA000024BFB3F5001CDCF1FE5C0DD901F0004C25
:10DA10004FEAC0024CEA5070B2F1004F40EB830075
:10DA200008BF20F00100704711F0804F21D113F1A1
:10DA30003872BCBF01F00040704741F480114FEADA
:10DA40005252C2F11802C2F1200C10FA0CF320FA63
:10DA500002F018BF40F001004FEAC1234FEAD32380
:10DA600003FA0CFC40EA0C0023FA02F34FEA4303EA
:10DA7000CCE77FEA625307D150EA01331EBF4FF073
:10DA8000FE4040F44000704701F0004040F0FE408E
:10DA900040F40000704700BF034613F8012B002A32
:10DAA000FBD1181A0138704770B501F0DDF9002577
:10DAB000054E064CA41BA408AC4200D170BD56F81C
:10DAC000043B98470135F7E7D8FF3F02F8FF3F02D4
:10DAD00000F030B808B500F005FABDE8084001F0E4
:10DAE0007BB900F0C3BC00F0CFBC0078B0FA80F086
:10DAF0004009704701230370704770B505460C4616
:10DB0000164642B90368C9B29B6898472846BDE8E3
:10DB1000704000F0E4BE00290ADA0A2A08D12D215B
:10DB200000F0DAFE61422846F2B200F0EEFEEDE7C8
:10DB30002146F8E708B501F0BFF84FF4E13101F0F4
:10DB4000AFF80021012001F0FFF9BDE808400021F5
:10DB5000084601F0F9B9000037B54FF47A75002492
:10DB6000012001F002FA013D0444F9D14FF47A7327
:10DB700094FBF3F401F0A0F821460A22FFF7BDFF61
:10DB8000642340F2DE321E212046009500F0A6FC00
:10DB90000446642000F0AEFC132C0DDC01F08CF880
:10DBA000104900F095FE01F087F80222214603B0EB
:10DBB000BDE83040FFF7A1BFA4F115031C2B03D82B
:10DBC00001F07AF80849ECE7322C08DD01F074F82E
:10DBD000064900F07DFE01F06FF80A22E6E703B087
:10DBE00030BD00BFACFD3F02B4FD3F02BCFD3F02B3
:10DBF000F8B58A00073222F0070200AFADEB020D44
:10DC00006C4600224B1ED5B28D4202F1010204DAAD
:10DC100050F8256044F82560F5E70020984211DAB5
:10DC200022460025A3EB000E754509DA1668D2F8E6
:10DC300004C00135664501DDC2E900C60432F3E7E0
:10DC40000130EBE7CA0706D503EBD3735B1054F83A
:10DC50002300BD46F8BD01EBD171491004EB8103EF
:10DC600054F8210053F8043C184400EBD0704010E5
:10DC7000EFE7000000000000F8B52DED028B844DA9
:10DC8000D5E88F3F13F0010F824C09D12846FFF7EA
:10DC90002CFF28B100F04AF920602846FFF72AFF40
:10DCA00000F044F92368C01A282812D900F03EF980
:10DCB0002060794C0020256801F057F9774B43F834
:10DCC000250023681D2B03F101020ABF00232260F7
:10DCD0002360734DD5E88F3F13F0010F714C09D1CC
:10DCE0002846FFF702FF28B100F020F920602846FF
:10DCF000FFF700FF00F01AF92368C01AB0F5487F5B
:10DD000040F2AC8000F012F900231F226649206027
:10DD1000624C66480B60013A05D054F8043B40F869
:10DD2000043B0123F7E70BB11E230B601E215F4864
:10DD3000FFF75EFF07EE900A9FED5D7AF8EEE77A57
:10DD400067EE877A9FED5B7A87EE878A5A4B83ED81
:10DD5000008A5A4B1868FFF7EDFA0022584BFFF77C
:10DD60009BF941A3D3E90023FFF74EFB0022554B5B
:10DD7000FFF794F9FFF740FE07EE900AC8EE277A06
:10DD800017EE900AFFF7E8FA39A3D3E90023044617
:10DD90000D46FFF739FB22462B46FFF735FB22469F
:10DDA0002B46FFF731FB34A3D3E9002306460F4689
:10DDB00020462946FFF728FB22462B46FFF724FB87
:10DDC00002460B4630463946FFF766F92CA3D3E9E5
:10DDD000002306460F4620462946FFF715FB02465C
:10DDE0000B4630463946FFF759F90022364BFFF70C
:10DDF0000BFBFFF701FE354D354C2860FFF7ACFA01
:10DE000021A3D3E90023FFF729FCFFF7F5FD2060EC
:10DE100000F052FF2F4900F05BFD00F04DFF95ED43
:10DE2000000A022100F058FE00F046FF2A4900F0E7
:10DE300062FD00F041FF294900F04AFD00F03CFF7F
:10DE4000022194ED000A00F047FE00F035FFBDEC22
:10DE5000028BBDE8F840224900F04DBDBDEC028BBD
:10DE6000F8BD00BFAFF300807B14AE47E17A943F6A
:10DE70003D0AD7A370AD6040EC51B81E85FB6F40E2
:10DE800085EB51B81ECB8A40A4703D0AD7A3194038
:10DE900070AD071078AD0710F4AD07107CAD07101A
:10DEA0006CAD071074AD071074AE0710F8AD071015
:10DEB0003333534000F07F4570AE0710FCAC0710C1
:10DEC000000039400000F03F0000E03F7CAE07104A
:10DED00078AE0710C4FD3F02CFFD3F02D3FD3F02E5
:10DEE000DDFD3F0208B5FFF7C7FEBDE80840FFF7BC
:10DEF00033BE000009B504480068044B03441B68A6
:10DF00005B6C029309BD0000F8AC07103000000004
:10DF100009B504480068044B03441B685B6802931E
:10DF200009BD0000F8AC07100000000009B5044866
:10DF30000068044B03441B685B69029309BD000041
:10DF4000F8AC07100000000009B504480068044B55
:10DF500003441B685B68029309BD0000F8AC07101E
:10DF60001400000009B504480068044B03441B6812
:10DF70009B68029309BD0000F8AC07101400000074
:10DF800009B504480068044B03441B681B6B0293EB
:10DF900009BD0000F8AC07101400000009B50448E2
:10DFA0000068044B03441B681B6A029309BD000010
:10DFB000F8AC07101000000009B504480068044BD5
:10DFC00003441B685B6A029309BD0000F8AC0710AC
:10DFD0001000000009B504480068044B03441B68A6
:10DFE0009B6A029309BD0000F8AC07101000000006
:10DFF00009B504480068044B03441B68DB6A0293BC
:10E0000009BD0000F8AC07101000000009B5044875
:10E010000068044B03441B681B6B029309BD00009E
:10E02000F8AC07101000000009B504480068044B64
:10E0300003441B685B6B029309BD0000F8AC07103A
:10E040001000000009B504480068044B03441B6835
:10E050001B6C029309BD0000F8AC07101000000013
:10E0600009B504480068044B03441B685B690293CC
:10E0700009BD0000F8AC07104C00000009B50448C9
:10E080000068044B03441B689B68029309BD0000B1
:10E09000F8AC07105000000009B504480068044BB4
:10E0A00003441B68DB68029309BD0000F8AC07104D
:10E0B0005000000009B504480068044B03441B6885
:10E0C000DB69029309BD0000F8AC071018000000DE
:10E0D00009B504480068044B03441B681B6A02939B
:10E0E00009BD0000F8AC07101800000009B504488D
:10E0F0000068044B03441B68DB68029309BD000001
:10E10000F8AC07102400000009B504480068044B6F
:10E1100003441B681B69029309BD0000F8AC07109B
:10E120002400000009B504480068044B03441B6840
:10E130005B69029309BD0000F8AC071024000000E1
:10E1400009B504480068044B03441B689B690293AB
:10E1500009BD0000F8AC07102400000009B5044810
:10E160000068044B03441B68DB69029309BD00008F
:10E17000F8AC07102400000009B504480068044BFF
:10E1800003441B681B6A029309BD0000F8AC07102A
:10E190002400000009B504480068044B03441B68D0
:10E1A0009B6A029309BD0000F8AC07102400000030
:10E1B00009B504480068044B03441B681B6C0293B8
:10E1C00009BD0000F8AC07102400000009B50448A0
:10E1D0000068044B03441B681B68029309BD0000E0
:10E1E000F8AC07103400000009B504480068044B7F
:10E1F00003441B685B68029309BD0000F8AC07107C
:10E200003400000009B504480068044B03441B684F
:10E210001B69029309BD0000F8AC07103400000030
:10E2200009B504480068044B03441B685B6902930A
:10E2300009BD0000F8AC07103400000009B504481F
:10E240000068044B03441B689B69029309BD0000EE
:10E25000F8AC07103400000009B504480068044B0E
:10E2600003441B68DB69029309BD0000F8AC07108A
:10E270003400000009B504480068044B03441B68DF
:10E280001B6A029309BD0000F8AC071034000000BF
:10E2900009B504480068044B03441B685B6802939B
:10E2A00009BD0000F8AC07100800000009B50448DB
:10E2B0000068044B03441B685B69029309BD0000BE
:10E2C000F8AC07100800000009B504480068044BCA
:10E2D00003441B68D3F88830029309BDF8AC0710DB
:10E2E0000800000009B504480068044B03441B689B
:10E2F000D3F89430029309BDF8AC07100800000071
:10E3000009B504480068044B03441B68DB6B0293A7
:10E3100009BD0000F8AC07102C00000009B5044846
:10E320000068044B03441B685B68029309BD00004E
:10E33000F8AC07102800000009B504480068044B39
:10E3400003441B689B68029309BD0000F8AC0710EA
:10E350002800000009B504480068044B03441B680A
:10E36000DB68029309BD0000F8AC0710280000002C
:10E3700009B504480068044B03441B681B690293F9
:10E3800009BD0000F8AC07102800000009B50448DA
:10E390000068044B03441B685B69029309BD0000DD
:10E3A000F8AC07102800000009B504480068044BC9
:10E3B00003441B689B69029309BD0000F8AC071079
:10E3C0002800000009B504480068044B03441B689A
:10E3D000DB69029309BD0000F8AC071028000000BB
:10E3E00009B504480068044B03441B681B6A029388
:10E3F00009BD0000F8AC07102800000009B504486A
:10E400000068044B03441B681B6B029309BD0000AA
:10E41000F8AC07102800000009B504480068044B58
:10E4200003441B685B6B029309BD0000F8AC071046
:10E430002800000009B504480068044B03441B6829
:10E440001B6C029309BD0000F8AC07102800000007
:10E4500009B504480068044B03441B685B6C0293D5
:10E4600009BD0000F8AC07102800000009B50448F9
:10E470000068044B03441B681B68029309BD00003D
:10E48000F8AC07100400000009B504480068044B0C
:10E4900003441B685B68029309BD0000F8AC0710D9
:10E4A0000400000009B504480068044B03441B68DD
:10E4B0001B6C029309BD0000F8AC071004000000BB
:10E4C00009B504480068044B03441B685B6C029365
:10E4D00009BD0000F8AC0710040000008A4210B526
:10E4E00007D0441A0298C01A4443501A94FBF0F023
:10E4F000184410BD0021FFF7D9BE000000230248D8
:10E500000360FFF7F7BC00BF80AE07100022406831
:10E510001146FFF765BF002240681146FFF77CBF38
:10E5200000224068FFF76ABF0022406881F00101C5
:10E53000FFF748BF002340681A461946FFF734BF6B
:10E54000002340681A461946FFF720BF00224068A2
:10E550001146FFF70DBF002240681146FFF7ECBEE1
:10E56000002202214068FFF7F5BE002340681A46EA
:10E57000FFF7D4BE0322024B5A60024A1A6070476A
:10E5800084AE0710ECFD3F027047F8B5064615460D
:10E590000C468F18BC4206D0336830469B6814F88E
:10E5A000011B9847F6E72846F8BD0022007CFFF7DC
:10E5B000F5BC0021007CFFF7FFBC0021007CFFF7C9
:10E5C00009BD0021007CFFF713BD0021007CFFF78F
:10E5D0001DBD10B504461421FFF785FA204610BD75
:10E5E00038B5044615464FF47A730022C4E9012376
:10E5F000094B0846217423602946FFF723FDBF30ED
:10E6000008D16B69DB0705D56868FFF73DFFE8684F
:10E61000FFF73AFF204638BD28FE3F02704710B58D
:10E6200004461821FFF75FFA204610BDF0B5037DC0
:10E630000E46062B4FF000048DB000F1040712D0F7
:10E6400000F1080515F8011D0A22304600F05DF9B9
:10E65000AF42044419D0002CF4D02E21304600F0F3
:10E660003BF90444EEE72F236A4639460A208DF829
:10E670000040FFF7F5FC6846FFF70EFA33680246E4
:10E6800069463046DB689847044620460DB0F0BD29
:10E6900010B50446044B1122002140F8043B00F061
:10E6A0008AFD204610BD00BF50FE3F020346074AC8
:10E6B00010B543F8042B01F1100251F8044B9142BC
:10E6C00043F8044BF9D10A781A7010BD50FE3F028E
:10E6D00010B59DF8084044EA032343EA02420423AC
:10E6E00042EA01614160037510BD000007B5064BA9
:10E6F0000360CB7800938B784A780978FFF7E8FFBE
:10E7000003B05DF804FB00BF50FE3F02014B024A1C
:10E710001A6070478CAE07105CFE3F020023406811
:10E720001A46FFF7FBBD002202214068FFF712BE28
:10E73000002240681146FFF7FFBD002240681146E5
:10E74000FFF716BE002340681A461946FFF71EBEA3
:10E75000002340681A461946FFF726BE002140688C
:10E76000FFF768BE00214068FFF772BE00224068D4
:10E7700081F00101FFF726BE00224068FFF73EBE90
:10E78000002240681146FFF747BE0022406811464C
:10E79000FFF726BE2DE9F04395B014460D46074617
:10E7A000FFF776FF00211C220DA8009100F003FD69
:10E7B000402320460C9300216B460CAAFFF76CFC0B
:10E7C000044600284BD1024601216868FFF7D0FDBE
:10E7D0000221804622466868FFF7CAFD214681462D
:10E7E000009E002E3BD0002939D17368022B03D044
:10E7F0000A2B11D0F669F4E7B8F1000FFAD071696D
:10E8000006A804313C1D07ADFFF770FF0FCD0FC404
:10E810002B6841462370EDE7B9F1000FEAD01022D2
:10E8200001A8746900F0C7FC062301AD8DF814300F
:10E8300004F1080318342A4618685968083303C2DB
:10E84000A3421546F7D101A906A83C1D07ADFFF765
:10E850002DFF0FCD0FC42B6849462370CAE70098DF
:10E86000FFF70CFC384615B0BDE8F083024B034AB5
:10E870001A6000225A60704790AE071068FE3F028F
:10E88000F8B506460D4600248F18BD420CD03368FB
:10E8900030469B6815F8011B9847031E01DB1C449A
:10E8A000F3E7002C08BF1C462046F8BD13B504460C
:10E8B000084659B10191FFF7EFF802462046236858
:10E8C0000199DB6802B0BDE81040184702B010BDE6
:10E8D00008B5FFF7EBFF08BD03689B68184738B51C
:10E8E0000D210546FFF7F8FF0A2104462846FFF7E9
:10E8F000F3FF204438BD38B50546FFF7D7FF04467F
:10E900002846FFF7ECFF204438BD0023012A98BFBA
:10E910000A2230B58BB08DF8243009AC0D46B1FB1E
:10E92000F2F101FB125303F0FF03092B94BF3033C4
:10E930003733DBB2AA4204F8013DEFD92146FFF795
:10E94000B5FF0BB030BD00002DE9F74F55EC104B73
:10E9500006460F4610EE102A2B4610EE100A2946E6
:10E96000FEF7ECFF40B153493046FFF79FFF824668
:10E97000504603B0BDE8F08F25F000494FF0FF325C
:10E98000204649464C4BFEF7D9FF48B94FF0FF32BD
:10E9900020464946484BFEF7B3FF08B94749E3E72D
:10E9A0004FF0604220462946454BFEF7BDFF08B1B7
:10E9B0004449D9E74FF0604220462946424BFEF7D2
:10E9C00095FF0028F4D10022002320462946FEF7B7
:10E9D0008DFFD0B12D213046FFF77EFF05F10043BA
:10E9E00082461D464FF0000B00204FF000083749CB
:10E9F000DFF8E0905FFA8BF39F4208D942464B461E
:10EA0000FEF72CFE0BF1010BF4E78246EAE7224603
:10EA10002B46FEF743FB0D460446FEF7CDFF80462E
:10EA2000FEF778FC02460B4620462946FEF734FBEB
:10EA30000A2204460D4630464146FFF766FF8244EF
:10EA4000002F95D030462249FFF730FF4FF00008E5
:10EA5000DFF880908244002F8AD042464B46204601
:10EA60002946FEF7D1FC04460D46FEF77DFFB0F1C6
:10EA7000000B1CDA2D213046FFF72EFF0346CBF1A9
:10EA800000010A2230460193FFF73FFF019B013F3F
:10EA9000184482445846FEF74DFC02460B46204679
:10EAA0002946FEF7F9FAFFB204460D46D3E7594668
:10EAB0000023E6E79CFE3F02FFFFEF7FA0FE3F0240
:10EAC000FFFFEF41A4FE3F02FFFFEFC10000E03F68
:10EAD000A8FE3F020000244038B5044610EE100A9C
:10EAE000CDB2FEF739FC41EC100B29462046BDE8BB
:10EAF0003840FFF729BF00000022014B9A607047A1
:10EB000098AE071010B5044608462170FFF7D2FAF8
:10EB100000232046636010BD02220020044B1A60CF
:10EB2000044B054AC3E900009A60FFF7B1BB00BF80
:10EB3000B4AE0710A8AE07100000FFFF024B1A6822
:10EB4000024B1A60704700BF00AD0710B8AE071047
:10EB500070474174704708B5007CFFF71BFB20EA43
:10EB6000E07008BD08B5007CFFF7CEFA20EAE0703F
:10EB700008BD08B5007CFFF7E3FA40EAE07008BD85
:10EB800008B5007CFFF7CEFA40EAE07008BD007CD3
:10EB9000FFF7E4BA37B5457C04462DB1207C03B0BD
:10EBA000BDE83040FFF7A2BA007C0191FFF7F2FA0E
:10EBB00000280199F2DC284603B030BD10B50446A8
:10EBC0001421FEF790FF204610BD000010B54FF451
:10EBD0007A730446084611460022C4E90123044B17
:10EBE0002074236001236374FFF7E2FA204610BD0E
:10EBF000D0FE3F02007CFFF7BFBA417470477047F8
:10EC0000704708B50021007CFFF718FB40EAE07070
:10EC100008BD08B50121007CFFF710FB40EAE07059
:10EC200008BD08B5007CFFF7FBFA20EAE07008BDDC
:10EC300008B5007CFFF7E6FA20EAE07008BD13B5DE
:10EC40000446007C0191FFF7EBFA0028019901DCF2
:10EC5000607C20B1207CFFF7FFFA20EAE07002B070
:10EC600010BD007CFFF706BB10B504461421FEF76B
:10EC70003AFF204610BD000010B54FF47A730446E9
:10EC800008460021C4E90113044B207423600123CA
:10EC900011466374FFF79AFA204610BD00FF3F0249
:10ECA0000022007CFFF7A0BA10B504461422002110
:10ECB00000F081FA204610BD10B588B003A8FFF718
:10ECC000F3FF0C4CD4E88F1F11F001010FD1204647
:10ECD0000191FEF70AFF019948B103AA0648FFF720
:10ECE000CBFF2046FEF706FF044800F051FA024829
:10ECF00008B010BDBCAE0710C0AE0710A7F63F02AB
:10ED0000002240681146FFF733BB002240681146DD
:10ED1000FFF766BB002240681146FFF77DBB00226B
:10ED20004068FFF76BBB0022406881F00101FFF7EC
:10ED300049BB002340681A461946FFF735BB00233C
:10ED400040681A461946FFF721BB00224068114669
:10ED5000FFF7F2BA002202214068FFF7FBBA002356
:10ED600040681A46FFF7DABA0422024B5A60024A98
:10ED70001A607047D4AE071030FF3F02014B186095
:10ED8000704700BF04AD071008B50F4B43B1FFF744
:10ED900093FF03681B699847002801DD00E000BF6E
:10EDA0000A4B43B100F062F903681B6998470028D9
:10EDB00001DD00E000BF064B0BB100F09DF9054BF3
:10EDC0000BB100F0CFF908BD00000000000000000A
:10EDD000000000000000000008B5FFF7D5FFFFF7B6
:10EDE000A5F8014B186008BDF0AE07100548064AAB
:10EDF00008B5121A054900F0D1F9054B054A1A6009
:10EE000008BD00BF00B4071004B40710C4F55F08C4
:10EE100000B407101E1C279A002307B51A466FF08E
:10EE200077010093FFF75EFA03B05DF804FB000082
:10EE300007B543880A2B08D0502B0BD1094B1B6810
:10EE40004BB103B05DF804EB1847FFF7E5FF03B0E3
:10EE50005DF804FB00231A466FF077010093FFF77B
:10EE600041FAF4E7E0AE0710002110B51148FFF7B2
:10EE700027FB114B1A68114B9A420CBF012200224A
:10EE80000F4B1A7001D0FFF7B1FFFFF741F80446AE
:10EE900000F09AF90B4B13B1204600E000BF0021AF
:10EEA0000848FFF72DFABDE8104000210648FFF79B
:10EEB0000BBA00BF25F83F0200B407101E1C279AAA
:10EEC000DCAE071000000000D9F83F021B2837B560
:10EED000044602D9002003B030BDA0F10F03022B7D
:10EEE0000BD9012821D800F06DF80021007CFFF734
:10EEF0009BF880F00100C0B2EDE7114DD5E88F1FFF
:10EF000011F001010BD128460191FEF7EEFD0199A8
:10EF100028B10C48FFF7F6FD2846FEF7EBFD094B3C
:10EF20001878FFF7D5F80028D4D1083C012C05D873
:10EF300000F09CF8007CFFF71FF9DAE70120CAE730
:10EF4000E4AE0710E8AE07101B2838B504460D469E
:10EF50000AD8FF2908D0FFF7B9FF28B12946204673
:10EF6000BDE83840FEF7FEBF38BD10B50446FFF7D8
:10EF7000ADFF50B103212046FEF7E6FF032804D180
:10EF80002046BDE81040FEF7FBBF002010BD7047D3
:10EF900038B50A4B04460360012309494361202028
:10EFA00000F0F4F82025606005492846A56000F0CF
:10EFB000EDF8C4E90305204638BD00BF1800010084
:10EFC00064FF3F0230B50E4D87B0D5E88F1F11F0BA
:10EFD000010411D12846FEF788FD68B16846FFF7A5
:10EFE000D7FF6A4621460748FFF7FAFA2846FEF798
:10EFF00081FD054800F0CCF8024807B030BD00BFE5
:10F00000F4AE0710F8AE071037FA3F027047000061
:10F0100038B5142504462A46002100F0CCF8258096
:10F020004025074928462581258200F0AFF804498C
:10F030006060284600F0AAF8E060204638BD00BFB6
:10F0400064FF3F027047704710B50446FFF7E0FFCA
:10F05000204610BD10B50446FFF7DAFF204610BD6C
:10F0600010B50446FFF7D4FF204610BD30B50E4D55
:10F0700087B0D5E88F1F11F0010411D12846FEF7A3
:10F0800034FD68B101A8FFF7DFFF214601AA074858
:10F09000FFF79CFD2846FEF72DFD054800F078F8A7
:10F0A000024807B030BD00BF0CAF071018AF071003
:10F0B000B5FA3F0210B50D4C86B0D4E88F3FDB07A0
:10F0C00011D42046FEF711FD68B101A8FFF7C2FF79
:10F0D000012101AA0648FFF779FD2046FEF70AFD47
:10F0E000044800F055F8024806B010BD10AF0710F4
:10F0F0002CAF0710EFFA3F0210B5FFF7DBFF074B0D
:10F10000044653B1FFF776FD38B1236820461B69EA
:10F110009847002801DD00E000BF10BD000000009E
:10F1200010B50D4C86B0D4E88F3FDB0711D42046D4
:10F13000FEF7DBFC68B101A8FFF792FF022101AAEC
:10F140000648FFF743FD2046FEF7D4FC044800F0D4
:10F150001FF8024806B010BD14AF071040AF0710EB
:10F16000EDFA3F0210B5FFF7DBFF074B044653B142
:10F17000FFF740FD38B1236820461B6998470028F7
:10F1800001DD00E000BF10BD00000000FEF7A9BCDB
:10F19000002301461A46184600F044B80A44431EAC
:10F1A000914200D1704710B511F8014B914203F81C
:10F1B000014FF9D110BD02440346934200D170477C
:10F1C00003F8011BF9E7000038B5104B04461D6831
:10F1D000AB6BB3B91820FFF749F90246A86320B911
:10F1E0000B4B42210B48FFF75DF90B490B4BC0E974
:10F1F00000130B4B002183600B2383810120C2E9A4
:10F200000401AB6B00221C615A6138BD04AD0710CC
:10F2100065FF3F027CFF3F020E33CDAB34126DE63B
:10F22000ECDE05002DE9F843DFF8BC8006461F46FA
:10F230000D46D8F80000914600F058F8264B1C689F
:10F2400034B9264C1C60264B13B11B68C4F88830B7
:10F2500063681F2B07DDD8F8000000F049F84FF075
:10F26000FF30BDE8F8835EB3D4F8880088B91D4B41
:10F2700023B9D8F8000000F03AF8F0E74FF48470B2
:10F28000FFF7F4F80028F4D00023C0E94033C4F8B5
:10F29000880063680122022E40F8239002FA03F2EC
:10F2A00000EB8301D0F8003143EA0203C0F80031DB
:10F2B000C1F8807002BFD0F804311343C0F80431A4
:10F2C0006368D8F800005A1C0233626044F8235087
:10F2D00000F00EF80020C4E7E0AF071054AF0710AD
:10F2E0000000000015EF3F0268AD0710704770473F
:10F2F0007047000051E53F0279E53F027DE53F029E
:10F3000000000000434C45414E3A20004D55524B01
:10F31000593A200044495254593A20005444532049
:10F3200056616C75653A0070706D004543205661FA
:10F330006C75653A006D532F6D00000000000000F1
:10F340000000000013F03F0209F03F02FFEF3F0210
:10F35000F5EF3F02E9EF3F02DDEF3F0205F23F022A
:10F360000DF23F02D1EF3F02C9EF3F02BFEF3F0274
:10F37000B5EF3F023DF23F02000000000000000038
:10F3800031F03F027BF03F0253F03F0233F03F0287
:10F390005BF03F0263F03F026BF03F0273F03F020D
:10F3A0000000000000000000D5F03F02C5F03F0261
:10F3B000C7F03F0261707000000000000000000014
:10F3C000C5F13F02CFF13F02D9F13F02E3F13F0225
:10F3D000EDF13F02F9F13F0205F23F020DF23F026B
:10F3E00015F23F0221F23F0229F23F0233F23F02BF
:10F3F0003DF23F026E616E00696E66006F766600D8
:10F400002E0025592D256D2D25645425483A254D6E
:10F410003A2553257A0061736374696D65000000B5
:10F420000000000000000000F9F53F0265F63F0211
:10F430003DF63F0229F33F020DF63F0229F63F0257
:10F440001BF63F0237F63F02FBF53F02FFF53F0296
:10F450000000000000000000A9F63F0211F73F0283
:10F46000E7F63F0229F33F02D9F63F02ABF63F022F
:10F47000BBF63F020BF73F02CBF63F02A3F63F027B
:10F48000000000000000000007F83F02FDF73F0207
:10F49000F3F73F02A9F73F02E7F73F02DBF73F022E
:10F4A00005F23F020DF23F02CFF73F02C7F73F02DE
:10F4B000BDF73F02B3F73F023DF23F020052454520
:10F4C0004E54206D616C6C6F63207375636365656A
:10F4D000646564002F746D702F6A656E6B696E735E
:10F4E0002D4743432D31302D706970656C696E6511
:10F4F0002D34385F32303230313132345F31363092
:10F50000363138303633392F7372632F6E65776C2E
:10F5100069622F6E65776C69622F6C6962632F7305
:10F5200074646C69622F72616E642E630000000067
:10F53000A5EF3F021DF03F02B5F13F0215F33F0278
:10F54000A1F53F02C1F53F02E5F53F0211F83F0288
:10F550000000000219000000BEFE3F0208AD0710C7
:10F56000000000000000000000000000000000009B
:10F57000000000000000000000000000000000008B
:10F58000000000000000000000000000000000007B
:10F59000000000000000000000000000000000006B
:10F5A000000000000000000000000000000000005B
:10F5B000000000000000000000000000000000004B
:04F5C000E4AF07109D
:04F5C4000000000043
:10FFBE000200100000D05F0888D05F0830DB3F02DF
:10FFCE0001000A00FFFFFFFFFFFF00000102030414
:10FFDE0005060708090A0B0C0D0E0F10111213144B
:0EFFEE0015161718191A1B1C1D1E1F203E0089
:04FFFC0078563412ED
:04000005085FD018A8
:00000001FF
